{
  "address": "0x5C6016D7155C99b4E3631e65cfffBA1de5c7604a",
  "abi": [
    {
      "inputs": [
        {
          "internalType": "address",
          "name": "_savingCore",
          "type": "address"
        },
        {
          "internalType": "address",
          "name": "_paymentToken",
          "type": "address"
        },
        {
          "internalType": "bytes32",
          "name": "_termsHash",
          "type": "bytes32"
        }
      ],
      "stateMutability": "nonpayable",
      "type": "constructor"
    },
    {
      "inputs": [],
      "name": "AlreadyListed",
      "type": "error"
    },
    {
      "inputs": [],
      "name": "DepositNotActive",
      "type": "error"
    },
    {
      "inputs": [],
      "name": "DirectTransferRejected",
      "type": "error"
    },
    {
      "inputs": [],
      "name": "EnforcedPause",
      "type": "error"
    },
    {
      "inputs": [],
      "name": "ExpectedPause",
      "type": "error"
    },
    {
      "inputs": [],
      "name": "InvalidAddress",
      "type": "error"
    },
    {
      "inputs": [],
      "name": "InvalidMaxListings",
      "type": "error"
    },
    {
      "inputs": [],
      "name": "InvalidNFT",
      "type": "error"
    },
    {
      "inputs": [],
      "name": "InvalidPrice",
      "type": "error"
    },
    {
      "inputs": [],
      "name": "InvalidTerms",
      "type": "error"
    },
    {
      "inputs": [],
      "name": "ListingNotFound",
      "type": "error"
    },
    {
      "inputs": [],
      "name": "NotDepositOwner",
      "type": "error"
    },
    {
      "inputs": [],
      "name": "NotEscrowed",
      "type": "error"
    },
    {
      "inputs": [],
      "name": "NotSeller",
      "type": "error"
    },
    {
      "inputs": [
        {
          "internalType": "address",
          "name": "owner",
          "type": "address"
        }
      ],
      "name": "OwnableInvalidOwner",
      "type": "error"
    },
    {
      "inputs": [
        {
          "internalType": "address",
          "name": "account",
          "type": "address"
        }
      ],
      "name": "OwnableUnauthorizedAccount",
      "type": "error"
    },
    {
      "inputs": [],
      "name": "RenewalMintRejected",
      "type": "error"
    },
    {
      "inputs": [],
      "name": "RestrictedWindow",
      "type": "error"
    },
    {
      "inputs": [
        {
          "internalType": "address",
          "name": "token",
          "type": "address"
        }
      ],
      "name": "SafeERC20FailedOperation",
      "type": "error"
    },
    {
      "inputs": [],
      "name": "SelfBuyNotAllowed",
      "type": "error"
    },
    {
      "anonymous": false,
      "inputs": [
        {
          "indexed": true,
          "internalType": "uint256",
          "name": "depositId",
          "type": "uint256"
        },
        {
          "indexed": true,
          "internalType": "address",
          "name": "seller",
          "type": "address"
        },
        {
          "indexed": false,
          "internalType": "uint256",
          "name": "price",
          "type": "uint256"
        },
        {
          "indexed": false,
          "internalType": "bytes32",
          "name": "termsHash",
          "type": "bytes32"
        }
      ],
      "name": "Listed",
      "type": "event"
    },
    {
      "anonymous": false,
      "inputs": [
        {
          "indexed": true,
          "internalType": "uint256",
          "name": "depositId",
          "type": "uint256"
        },
        {
          "indexed": true,
          "internalType": "address",
          "name": "seller",
          "type": "address"
        }
      ],
      "name": "ListingCancelled",
      "type": "event"
    },
    {
      "anonymous": false,
      "inputs": [
        {
          "indexed": true,
          "internalType": "uint256",
          "name": "depositId",
          "type": "uint256"
        },
        {
          "indexed": true,
          "internalType": "address",
          "name": "seller",
          "type": "address"
        }
      ],
      "name": "ListingExpired",
      "type": "event"
    },
    {
      "anonymous": false,
      "inputs": [
        {
          "indexed": true,
          "internalType": "uint256",
          "name": "depositId",
          "type": "uint256"
        },
        {
          "indexed": true,
          "internalType": "address",
          "name": "seller",
          "type": "address"
        },
        {
          "indexed": true,
          "internalType": "address",
          "name": "buyer",
          "type": "address"
        },
        {
          "indexed": false,
          "internalType": "uint256",
          "name": "price",
          "type": "uint256"
        }
      ],
      "name": "ListingPurchased",
      "type": "event"
    },
    {
      "anonymous": false,
      "inputs": [
        {
          "indexed": true,
          "internalType": "address",
          "name": "previousOwner",
          "type": "address"
        },
        {
          "indexed": true,
          "internalType": "address",
          "name": "newOwner",
          "type": "address"
        }
      ],
      "name": "OwnershipTransferred",
      "type": "event"
    },
    {
      "anonymous": false,
      "inputs": [
        {
          "indexed": false,
          "internalType": "address",
          "name": "account",
          "type": "address"
        }
      ],
      "name": "Paused",
      "type": "event"
    },
    {
      "anonymous": false,
      "inputs": [
        {
          "indexed": true,
          "internalType": "bytes32",
          "name": "oldTermsHash",
          "type": "bytes32"
        },
        {
          "indexed": true,
          "internalType": "bytes32",
          "name": "newTermsHash",
          "type": "bytes32"
        }
      ],
      "name": "TermsHashUpdated",
      "type": "event"
    },
    {
      "anonymous": false,
      "inputs": [
        {
          "indexed": true,
          "internalType": "uint256",
          "name": "depositId",
          "type": "uint256"
        },
        {
          "indexed": true,
          "internalType": "address",
          "name": "recipient",
          "type": "address"
        }
      ],
      "name": "UnlistedDepositRecovered",
      "type": "event"
    },
    {
      "anonymous": false,
      "inputs": [
        {
          "indexed": false,
          "internalType": "address",
          "name": "account",
          "type": "address"
        }
      ],
      "name": "Unpaused",
      "type": "event"
    },
    {
      "inputs": [],
      "name": "MAX_NO_LISTING_DAYS",
      "outputs": [
        {
          "internalType": "uint256",
          "name": "",
          "type": "uint256"
        }
      ],
      "stateMutability": "view",
      "type": "function"
    },
    {
      "inputs": [],
      "name": "MIN_NO_LISTING_DAYS",
      "outputs": [
        {
          "internalType": "uint256",
          "name": "",
          "type": "uint256"
        }
      ],
      "stateMutability": "view",
      "type": "function"
    },
    {
      "inputs": [],
      "name": "NO_LISTING_PERCENT",
      "outputs": [
        {
          "internalType": "uint256",
          "name": "",
          "type": "uint256"
        }
      ],
      "stateMutability": "view",
      "type": "function"
    },
    {
      "inputs": [
        {
          "internalType": "uint256",
          "name": "depositId",
          "type": "uint256"
        }
      ],
      "name": "buyDeposit",
      "outputs": [],
      "stateMutability": "nonpayable",
      "type": "function"
    },
    {
      "inputs": [
        {
          "internalType": "uint256",
          "name": "depositId",
          "type": "uint256"
        }
      ],
      "name": "cancelListing",
      "outputs": [],
      "stateMutability": "nonpayable",
      "type": "function"
    },
    {
      "inputs": [
        {
          "internalType": "uint256",
          "name": "maxListings",
          "type": "uint256"
        }
      ],
      "name": "cleanExpiredListings",
      "outputs": [
        {
          "internalType": "uint256",
          "name": "cleaned",
          "type": "uint256"
        }
      ],
      "stateMutability": "nonpayable",
      "type": "function"
    },
    {
      "inputs": [
        {
          "internalType": "uint256[]",
          "name": "depositIds",
          "type": "uint256[]"
        }
      ],
      "name": "cleanListings",
      "outputs": [
        {
          "internalType": "uint256",
          "name": "cleaned",
          "type": "uint256"
        }
      ],
      "stateMutability": "nonpayable",
      "type": "function"
    },
    {
      "inputs": [],
      "name": "cleanupCursor",
      "outputs": [
        {
          "internalType": "uint256",
          "name": "",
          "type": "uint256"
        }
      ],
      "stateMutability": "view",
      "type": "function"
    },
    {
      "inputs": [],
      "name": "currentTermsHash",
      "outputs": [
        {
          "internalType": "bytes32",
          "name": "",
          "type": "bytes32"
        }
      ],
      "stateMutability": "view",
      "type": "function"
    },
    {
      "inputs": [
        {
          "internalType": "uint256",
          "name": "depositId",
          "type": "uint256"
        }
      ],
      "name": "isListable",
      "outputs": [
        {
          "internalType": "bool",
          "name": "",
          "type": "bool"
        }
      ],
      "stateMutability": "view",
      "type": "function"
    },
    {
      "inputs": [
        {
          "internalType": "uint256",
          "name": "depositId",
          "type": "uint256"
        }
      ],
      "name": "isListingStale",
      "outputs": [
        {
          "internalType": "bool",
          "name": "",
          "type": "bool"
        }
      ],
      "stateMutability": "view",
      "type": "function"
    },
    {
      "inputs": [
        {
          "internalType": "uint256",
          "name": "depositId",
          "type": "uint256"
        },
        {
          "internalType": "uint256",
          "name": "price",
          "type": "uint256"
        },
        {
          "internalType": "bytes32",
          "name": "acceptedTermsHash",
          "type": "bytes32"
        }
      ],
      "name": "listDeposit",
      "outputs": [],
      "stateMutability": "nonpayable",
      "type": "function"
    },
    {
      "inputs": [],
      "name": "listedCount",
      "outputs": [
        {
          "internalType": "uint256",
          "name": "",
          "type": "uint256"
        }
      ],
      "stateMutability": "view",
      "type": "function"
    },
    {
      "inputs": [
        {
          "internalType": "uint256",
          "name": "",
          "type": "uint256"
        }
      ],
      "name": "listedDepositIds",
      "outputs": [
        {
          "internalType": "uint256",
          "name": "",
          "type": "uint256"
        }
      ],
      "stateMutability": "view",
      "type": "function"
    },
    {
      "inputs": [
        {
          "internalType": "uint256",
          "name": "depositId",
          "type": "uint256"
        }
      ],
      "name": "listings",
      "outputs": [
        {
          "internalType": "address",
          "name": "seller",
          "type": "address"
        },
        {
          "internalType": "uint96",
          "name": "price",
          "type": "uint96"
        }
      ],
      "stateMutability": "view",
      "type": "function"
    },
    {
      "inputs": [
        {
          "internalType": "uint256",
          "name": "depositId",
          "type": "uint256"
        }
      ],
      "name": "noListingDays",
      "outputs": [
        {
          "internalType": "uint256",
          "name": "daysCount",
          "type": "uint256"
        }
      ],
      "stateMutability": "view",
      "type": "function"
    },
    {
      "inputs": [
        {
          "internalType": "address",
          "name": "",
          "type": "address"
        },
        {
          "internalType": "address",
          "name": "from",
          "type": "address"
        },
        {
          "internalType": "uint256",
          "name": "tokenId",
          "type": "uint256"
        },
        {
          "internalType": "bytes",
          "name": "",
          "type": "bytes"
        }
      ],
      "name": "onERC721Received",
      "outputs": [
        {
          "internalType": "bytes4",
          "name": "",
          "type": "bytes4"
        }
      ],
      "stateMutability": "view",
      "type": "function"
    },
    {
      "inputs": [],
      "name": "owner",
      "outputs": [
        {
          "internalType": "address",
          "name": "",
          "type": "address"
        }
      ],
      "stateMutability": "view",
      "type": "function"
    },
    {
      "inputs": [],
      "name": "pause",
      "outputs": [],
      "stateMutability": "nonpayable",
      "type": "function"
    },
    {
      "inputs": [],
      "name": "paused",
      "outputs": [
        {
          "internalType": "bool",
          "name": "",
          "type": "bool"
        }
      ],
      "stateMutability": "view",
      "type": "function"
    },
    {
      "inputs": [],
      "name": "paymentToken",
      "outputs": [
        {
          "internalType": "contract IERC20",
          "name": "",
          "type": "address"
        }
      ],
      "stateMutability": "view",
      "type": "function"
    },
    {
      "inputs": [
        {
          "internalType": "uint256",
          "name": "depositId",
          "type": "uint256"
        },
        {
          "internalType": "address",
          "name": "recipient",
          "type": "address"
        }
      ],
      "name": "recoverUnlistedDeposit",
      "outputs": [],
      "stateMutability": "nonpayable",
      "type": "function"
    },
    {
      "inputs": [],
      "name": "renounceOwnership",
      "outputs": [],
      "stateMutability": "nonpayable",
      "type": "function"
    },
    {
      "inputs": [],
      "name": "savingCore",
      "outputs": [
        {
          "internalType": "contract ISavingCoreMarketplace",
          "name": "",
          "type": "address"
        }
      ],
      "stateMutability": "view",
      "type": "function"
    },
    {
      "inputs": [
        {
          "internalType": "bytes32",
          "name": "newTermsHash",
          "type": "bytes32"
        }
      ],
      "name": "setTermsHash",
      "outputs": [],
      "stateMutability": "nonpayable",
      "type": "function"
    },
    {
      "inputs": [
        {
          "internalType": "address",
          "name": "newOwner",
          "type": "address"
        }
      ],
      "name": "transferOwnership",
      "outputs": [],
      "stateMutability": "nonpayable",
      "type": "function"
    },
    {
      "inputs": [],
      "name": "unpause",
      "outputs": [],
      "stateMutability": "nonpayable",
      "type": "function"
    }
  ],
  "transactionHash": "0x638187b8d2a7768993eb758b6e50060ca3f17f31a079520639db5ee3d876950b",
  "args": [
    "0x4C1b681f4968A1524aac92c162B4422a2bf20110",
    "0x3Cb2AE0859d0B2aFe20d5f16Bf9e2E35A1cb2Cb8",
    "0x3b66a5c015a29f4b433c579a09d7e3f9be033797349ca7d673571d722c5b8676"
  ],
  "numDeployments": 4,
  "solcInputHash": "0fa5147e91f083eeae2169df15df3da8",
  "bytecode": "0x60c03461018357601f611ae638819003918201601f19168301916001600160401b0383118484101761018757808492606094604052833981010312610183576100478161019b565b9060406100566020830161019b565b910151903315610170575f8054336001600160a01b0319821681178355604051959290916001600160a01b0316907f8be0079c531659141344cd1fd0a4f28419497f9722a3daafe3b4186f6b6457e09080a36001600160a01b03168015801561015f575b610150578215610141576080526001600160a01b031660a05260015561193690816101b082396080518181816102af01528181610602015281816107f6015281816108ec01528181610a7101528181610e0c0152818161107401528181611223015281816113db0152818161164a0152611821015260a05181818161021301526111760152f35b630256965f60e01b5f5260045ffd5b63e6c4247b60e01b5f5260045ffd5b506001600160a01b038216156100ba565b631e4fbdf760e01b5f525f60045260245ffd5b5f80fd5b634e487b7160e01b5f52604160045260245ffd5b51906001600160a01b03821682036101835756fe60806040526004361015610011575f80fd5b5f3560e01c8063044ff8011461130c578063150b7a02146111b757806316297c481461119a5780633013ce2914611157578063305a67a8146110075780633f4ba83a14610f845780635092943314610f3e5780635c975abb14610f1a57806369bcbacb14610d625780636b7c809a14610d47578063715018a614610ce357806375e4d94514610a1e5780637c85176614610a015780638456cb591461099357806384c701d8146108b65780638da5cb5b146108915780638e8b4ecb1461081a5780638f18c887146107d757806399ea584414610785578063d31bb3cd146105b1578063dad2419314610596578063de74e57b1461055c578063e5879c8914610541578063f2fde38b14610498578063f36065b31461047b578063f3ba90d51461017e5763f8e5503914610142575f80fd5b3461017a57602036600319011261017a5760043560035481101561017a5761016b6020916114e6565b90549060031b1c604051908152f35b5f80fd5b3461017a57602036600319011261017a5760043561019a6117c8565b805f52600260205260405f20604051906101b382611512565b54906001600160a01b038216808252602082019260a01c835215610453576001600160a01b03815116331461042b576101eb836117fe565b6006811015610417576001036103ef5761020491611885565b6103c757610211836116bc565b7f0000000000000000000000000000000000000000000000000000000000000000906001600160a01b03815116916bffffffffffffffffffffffff845116604051937f23b872dd000000000000000000000000000000000000000000000000000000005f523360045260245260445260205f60648180855af160015f51148116156103a8575b836040525f6060521561037357506001600160a01b037f000000000000000000000000000000000000000000000000000000000000000016803b1561017a57632142170760e11b8352306004840152336024840152604483018590525f908390606490829084905af1908115610368576bffffffffffffffffffffffff926001600160a01b0392610358575b505116915116916040519283527f05e16e5cf13eeb3ff32f51644ccd765a8ecfd4114beb5820ff29d0b3b1e91a8460203394a4005b5f6103629161152e565b85610323565b6040513d5f823e3d90fd5b6001600160a01b03907f5274afe7000000000000000000000000000000000000000000000000000000005f521660045260245ffd5b60018115166103be57813b15153d151616610297565b833d5f823e3d90fd5b7f22f04865000000000000000000000000000000000000000000000000000000005f5260045ffd5b7f6ca34c6b000000000000000000000000000000000000000000000000000000005f5260045ffd5b634e487b7160e01b5f52602160045260245ffd5b7fc56c89a4000000000000000000000000000000000000000000000000000000005f5260045ffd5b7f7e43e638000000000000000000000000000000000000000000000000000000005f5260045ffd5b3461017a575f36600319011261017a576020600354604051908152f35b3461017a57602036600319011261017a576001600160a01b036104b96114ba565b6104c1611789565b168015610515576001600160a01b035f548273ffffffffffffffffffffffffffffffffffffffff198216175f55167f8be0079c531659141344cd1fd0a4f28419497f9722a3daafe3b4186f6b6457e05f80a3005b7f1e4fbdf7000000000000000000000000000000000000000000000000000000005f525f60045260245ffd5b3461017a575f36600319011261017a576020604051601e8152f35b3461017a57602036600319011261017a576004355f5260026020526040805f20548151906001600160a01b038116825260a01c6020820152f35b3461017a575f36600319011261017a57602060405160058152f35b3461017a57604036600319011261017a576004356105cd6114d0565b906105d6611789565b6001600160a01b03821691821561075d57815f52600460205260405f2054610735576001600160a01b037f0000000000000000000000000000000000000000000000000000000000000000166040516331a9108f60e11b8152836004820152602081602481855afa908115610368575f91610706575b506001600160a01b03309116036106de57803b1561017a57604051632142170760e11b81523060048201526001600160a01b03929092166024830152604482018390525f908290606490829084905af18015610368576106ce575b507fd0254a460fcac617b65c45947db8359a069d84a3dcae96783305b15b767e1ede5f80a3005b5f6106d89161152e565b826106a7565b7fff272902000000000000000000000000000000000000000000000000000000005f5260045ffd5b610728915060203d60201161072e575b610720818361152e565b810190611550565b8561064c565b503d610716565b7fa3d582ec000000000000000000000000000000000000000000000000000000005f5260045ffd5b7fe6c4247b000000000000000000000000000000000000000000000000000000005f5260045ffd5b3461017a57602036600319011261017a576107a16004356117fe565b919060068310156104175760016020931491826107c5575b50506040519015158152f35b6107cf9250611885565b1582806107b9565b3461017a575f36600319011261017a5760206040516001600160a01b037f0000000000000000000000000000000000000000000000000000000000000000168152f35b3461017a57602036600319011261017a57600435610836611789565b801561086957600154816001557fde35f0acaefa1b839f9ad7e30916c35325dcc9c75a7ff8a436d5038b1cf1bf615f80a3005b7f0256965f000000000000000000000000000000000000000000000000000000005f5260045ffd5b3461017a575f36600319011261017a5760206001600160a01b035f5416604051908152f35b3461017a57602036600319011261017a57604051630b02c43d60e41b8152600435600482015260e0816024816001600160a01b037f0000000000000000000000000000000000000000000000000000000000000000165afa9081156103685762015180610940602093610946935f905f9261094e575b5067ffffffffffffffff80911691166115eb565b046118ca565b604051908152f35b67ffffffffffffffff925082915061097d9060e03d60e01161098c575b610975818361152e565b810190611593565b5050509492509050915061092c565b503d61096b565b3461017a575f36600319011261017a576109ab611789565b6109b36117c8565b7401000000000000000000000000000000000000000060ff60a01b195f5416175f557f62e78cea01bee320cd4e420270b5ea74000d11b0c9f74754ebdbfc544b05a2586020604051338152a1005b3461017a575f36600319011261017a576020600554604051908152f35b3461017a57606036600319011261017a57602435600435604435610a406117c8565b82158015610cce575b610ca757600154810361086957815f52600460205260405f2054610735576001600160a01b037f0000000000000000000000000000000000000000000000000000000000000000166040516331a9108f60e11b8152836004820152602081602481855afa908115610368575f91610c88575b506001600160a01b0333911603610c6057610ad5836117fe565b6006811015610417576001036103ef57610aee91611885565b6103c757604051610afe81611512565b3381526bffffffffffffffffffffffff851660208083019182525f8681526002909152604090209151905160a01b73ffffffffffffffffffffffffffffffffffffffff19166001600160a01b039190911617905560035468010000000000000000811015610c4c5783610b7a826001610b9294016003556114e6565b90919082549060031b91821b915f19901b1916179055565b600354835f52600460205260405f205560018301808411610c3857600655803b1561017a57604051632142170760e11b815233600482015230602482015260448101849052905f908290606490829084905af1801561036857610c28575b505f60065560405192835260208301527f720d9e8e884f7efa5994d100c6aec186962de769f7d9a2084453e35e0ebca9cb60403393a3005b5f610c329161152e565b83610bf0565b634e487b7160e01b5f52601160045260245ffd5b634e487b7160e01b5f52604160045260245ffd5b7fc74ecfa1000000000000000000000000000000000000000000000000000000005f5260045ffd5b610ca1915060203d60201161072e57610720818361152e565b85610abb565b7ebfc921000000000000000000000000000000000000000000000000000000005f5260045ffd5b506bffffffffffffffffffffffff8311610a49565b3461017a575f36600319011261017a57610cfb611789565b5f6001600160a01b03815473ffffffffffffffffffffffffffffffffffffffff1981168355167f8be0079c531659141344cd1fd0a4f28419497f9722a3daafe3b4186f6b6457e08280a3005b3461017a575f36600319011261017a576020604051600a8152f35b3461017a57602036600319011261017a575f6004358015610ef257905f915b808310610d94575b602082604051908152f35b906003548015610eeb5760055490811015610ee4575b610db3816114e6565b90549060031b1c90610dc4826115f8565b15610ed45750805f52600260205260405f209160405192610de484611512565b546001600160a01b038116845260a01c6020840152610e02826116bc565b6001600160a01b037f000000000000000000000000000000000000000000000000000000000000000016916001600160a01b0384511692803b1561017a57604051632142170760e11b81523060048201526001600160a01b03949094166024850152604484018290525f908490606490829084905af180156103685760019485946001600160a01b0392610ec4575b505116907f10b907a6fcc126ba9acbe7a08f4d4a5d9f9fd37ac5a1cb380f01d895615b58385f80a301925b019190610d81565b5f610ece9161152e565b88610e91565b6001929491508201600555610ebc565b505f610daa565b5090610d89565b7f6f36d033000000000000000000000000000000000000000000000000000000005f5260045ffd5b3461017a575f36600319011261017a57602060ff5f5460a01c166040519015158152f35b3461017a57602036600319011261017a576020600435805f526004825260405f205415159081610f74575b506040519015158152f35b610f7e91506115f8565b82610f69565b3461017a575f36600319011261017a57610f9c611789565b5f5460ff8160a01c1615610fdf5760ff60a01b19165f557f5db9ee0a495bf2e6ff9c91a7834c1ba4fdd244a5e8aa4e537bd38aeae4b073aa6020604051338152a1005b7f8dfc202b000000000000000000000000000000000000000000000000000000005f5260045ffd5b3461017a57602036600319011261017a57600435805f52600260205260405f206040519061103482611512565b546001600160a01b0381169081835260a01c602083015215610453576001600160a01b03815116330361112f5761106a826116bc565b6001600160a01b037f000000000000000000000000000000000000000000000000000000000000000016906001600160a01b0381511691803b1561017a57604051632142170760e11b81523060048201526001600160a01b03939093166024840152604483018490525f908390606490829084905af1918215610368576001600160a01b039261111f575b505116907f8e25282255ab31897df2b0456bb993ac7f84d376861aefd84901d2d63a7428a25f80a3005b5f6111299161152e565b836110f5565b7f5ec82351000000000000000000000000000000000000000000000000000000005f5260045ffd5b3461017a575f36600319011261017a5760206040516001600160a01b037f0000000000000000000000000000000000000000000000000000000000000000168152f35b3461017a575f36600319011261017a576020600154604051908152f35b3461017a57608036600319011261017a576111d06114ba565b506111d96114d0565b6044359060643567ffffffffffffffff811161017a573660238201121561017a57806004013567ffffffffffffffff811161017a573691016024011161017a576001600160a01b037f00000000000000000000000000000000000000000000000000000000000000001633036112e4576001600160a01b0316156112bc5760065460018201809211610c3857036112945760206040517f150b7a02000000000000000000000000000000000000000000000000000000008152f35b7f7057aa6a000000000000000000000000000000000000000000000000000000005f5260045ffd5b7fc5bbed69000000000000000000000000000000000000000000000000000000005f5260045ffd5b7f0f3e2a3e000000000000000000000000000000000000000000000000000000005f5260045ffd5b3461017a57602036600319011261017a5760043567ffffffffffffffff811161017a573660238201121561017a57806004013567ffffffffffffffff811161017a573660248260051b8401011161017a575f915f5b828110156114af5760248160051b83010135805f52600460205260405f20541515806114a0575b611396575b50600101611361565b805f95929552600260205260405f2091604051926113b384611512565b546001600160a01b038116845260a01c60208401526113d1826116bc565b6001600160a01b037f000000000000000000000000000000000000000000000000000000000000000016916001600160a01b0384511692803b1561017a57604051632142170760e11b81523060048201526001600160a01b03949094166024850152604484018290525f908490606490829084905af180156103685760019485946001600160a01b0392611490575b505116907f10b907a6fcc126ba9acbe7a08f4d4a5d9f9fd37ac5a1cb380f01d895615b58385f80a301939061138d565b5f61149a9161152e565b89611460565b506114aa816115f8565b611388565b602084604051908152f35b600435906001600160a01b038216820361017a57565b602435906001600160a01b038216820361017a57565b6003548110156114fe5760035f5260205f2001905f90565b634e487b7160e01b5f52603260045260245ffd5b6040810190811067ffffffffffffffff821117610c4c57604052565b90601f8019910116810190811067ffffffffffffffff821117610c4c57604052565b9081602091031261017a57516001600160a01b038116810361017a5790565b519067ffffffffffffffff8216820361017a57565b519061ffff8216820361017a57565b908160e091031261017a578051916020820151916115b36040820161156f565b916115c06060830161156f565b916115cd60808201611584565b9160c06115dc60a08401611584565b920151600681101561017a5790565b91908203918211610c3857565b611601816117fe565b600681949394101561041757600114928315936116a9575b50508115611625575090565b9050604051906331a9108f60e11b825260048201526020816024816001600160a01b037f0000000000000000000000000000000000000000000000000000000000000000165afa908115610368575f9161168a575b506001600160a01b031630141590565b6116a3915060203d60201161072e57610720818361152e565b5f61167a565b6116b4929350611885565b905f80611619565b805f52600460205260405f20545f198101818111610c38576003545f198101908111610c3857808203611756575b5050506003548015611742575f1901611702816114e6565b8154905f199060031b1b19169055600355805f5260046020525f60408120555f5260026020525f6040812055600354806005541161173d5750565b600555565b634e487b7160e01b5f52603160045260245ffd5b610b7a91611766611775926114e6565b90549060031b1c9283916114e6565b5f52600460205260405f20555f80806116ea565b6001600160a01b035f5416330361179c57565b7f118cdaa7000000000000000000000000000000000000000000000000000000005f523360045260245ffd5b60ff5f5460a01c166117d657565b7fd93c0665000000000000000000000000000000000000000000000000000000005f5260045ffd5b60405190630b02c43d60e41b8252600482015260e0816024816001600160a01b037f0000000000000000000000000000000000000000000000000000000000000000165afa908115610368575f915f915f9161185b575b50909192565b915050611877915060e03d60e01161098c57610975818361152e565b94505050925091905f611855565b906201518061094067ffffffffffffffff806118a494169416846115eb565b62015180810290808204620151801490151715610c38576118c4916115eb565b42101590565b600581029080820460051490151715610c38576064900490600a82106118fa57601e82116118f457565b601e9150565b600a915056fea26469706673582212209b547493cab11f321aceb3e6db147f519f849caf9b47865feafcb32a3967672e64736f6c634300081c0033",
  "devdoc": {
    "errors": {
      "AlreadyListed()": [
        {
          "details": "Reverts when a deposit is already listed."
        }
      ],
      "DepositNotActive()": [
        {
          "details": "Reverts when a deposit is not active."
        }
      ],
      "DirectTransferRejected()": [
        {
          "details": "Reverts when an ERC721 is sent without the listing flow."
        }
      ],
      "EnforcedPause()": [
        {
          "details": "The operation failed because the contract is paused."
        }
      ],
      "ExpectedPause()": [
        {
          "details": "The operation failed because the contract is not paused."
        }
      ],
      "InvalidAddress()": [
        {
          "details": "Reverts when an address parameter is zero."
        }
      ],
      "InvalidMaxListings()": [
        {
          "details": "Reverts when maxListings is zero."
        }
      ],
      "InvalidNFT()": [
        {
          "details": "Reverts when an NFT is not from the official SavingCore contract."
        }
      ],
      "InvalidPrice()": [
        {
          "details": "Reverts when a price is zero."
        }
      ],
      "InvalidTerms()": [
        {
          "details": "Reverts when terms are missing or do not match the current terms hash."
        }
      ],
      "ListingNotFound()": [
        {
          "details": "Reverts when a listing does not exist."
        }
      ],
      "NotDepositOwner()": [
        {
          "details": "Reverts when caller is not the current deposit NFT owner."
        }
      ],
      "NotEscrowed()": [
        {
          "details": "Reverts when the marketplace does not hold the listed NFT."
        }
      ],
      "NotSeller()": [
        {
          "details": "Reverts when caller is not the listing seller."
        }
      ],
      "OwnableInvalidOwner(address)": [
        {
          "details": "The owner is not a valid owner account. (eg. `address(0)`)"
        }
      ],
      "OwnableUnauthorizedAccount(address)": [
        {
          "details": "The caller account is not authorized to perform an operation."
        }
      ],
      "RenewalMintRejected()": [
        {
          "details": "Reverts when SavingCore tries to mint a renewed NFT into marketplace custody."
        }
      ],
      "RestrictedWindow()": [
        {
          "details": "Reverts when a deposit is inside the marketplace restricted window."
        }
      ],
      "SafeERC20FailedOperation(address)": [
        {
          "details": "An operation with an ERC-20 token failed."
        }
      ],
      "SelfBuyNotAllowed()": [
        {
          "details": "Reverts when the seller tries to buy their own listing."
        }
      ]
    },
    "events": {
      "Paused(address)": {
        "details": "Emitted when the pause is triggered by `account`."
      },
      "Unpaused(address)": {
        "details": "Emitted when the pause is lifted by `account`."
      }
    },
    "kind": "dev",
    "methods": {
      "buyDeposit(uint256)": {
        "params": {
          "depositId": "Deposit NFT listing to buy."
        }
      },
      "cancelListing(uint256)": {
        "params": {
          "depositId": "Deposit NFT listing to cancel."
        }
      },
      "cleanExpiredListings(uint256)": {
        "params": {
          "maxListings": "Maximum listing slots to scan during this call."
        },
        "returns": {
          "cleaned": "Number of stale listings removed."
        }
      },
      "cleanListings(uint256[])": {
        "details": "Skips unlisted or still-valid deposit ids so off-chain cleanup can submit candidate batches safely.",
        "params": {
          "depositIds": "Deposit NFT ids to check and clean."
        },
        "returns": {
          "cleaned": "Number of stale listings removed."
        }
      },
      "constructor": {
        "params": {
          "_paymentToken": "ERC20 token used for marketplace payments.",
          "_savingCore": "Official SavingCore contract address.",
          "_termsHash": "Initial terms hash sellers must accept."
        }
      },
      "isListable(uint256)": {
        "params": {
          "depositId": "Deposit NFT id to check."
        }
      },
      "isListingStale(uint256)": {
        "params": {
          "depositId": "Deposit NFT id to check."
        }
      },
      "listDeposit(uint256,uint256,bytes32)": {
        "params": {
          "acceptedTermsHash": "Terms hash accepted by the seller.",
          "depositId": "Deposit NFT id to list.",
          "price": "Sale price in the payment token's smallest unit."
        }
      },
      "noListingDays(uint256)": {
        "params": {
          "depositId": "Deposit NFT id to check."
        }
      },
      "owner()": {
        "details": "Returns the address of the current owner."
      },
      "paused()": {
        "details": "Returns true if the contract is paused, and false otherwise."
      },
      "recoverUnlistedDeposit(uint256,address)": {
        "params": {
          "depositId": "Deposit NFT id to recover.",
          "recipient": "Account that should receive the NFT."
        }
      },
      "renounceOwnership()": {
        "details": "Leaves the contract without owner. It will not be possible to call `onlyOwner` functions. Can only be called by the current owner. NOTE: Renouncing ownership will leave the contract without an owner, thereby disabling any functionality that is only available to the owner."
      },
      "setTermsHash(bytes32)": {
        "params": {
          "newTermsHash": "New terms hash."
        }
      },
      "transferOwnership(address)": {
        "details": "Transfers ownership of the contract to a new account (`newOwner`). Can only be called by the current owner."
      }
    },
    "stateVariables": {
      "expectedDepositIdPlusOne": {
        "details": "Listing transfer guard: expected deposit id plus one while receiving the escrow NFT."
      },
      "listingIndexPlusOne": {
        "details": "Active listing array index plus one by deposit id. Zero means not listed."
      }
    },
    "title": "DepositMarketplace",
    "version": 1
  },
  "userdoc": {
    "events": {
      "Listed(uint256,address,uint256,bytes32)": {
        "notice": "Emitted when a deposit NFT is listed."
      },
      "ListingCancelled(uint256,address)": {
        "notice": "Emitted when a seller cancels a listing."
      },
      "ListingExpired(uint256,address)": {
        "notice": "Emitted when cleanup removes a stale listing."
      },
      "ListingPurchased(uint256,address,address,uint256)": {
        "notice": "Emitted when a deposit NFT listing is purchased."
      },
      "TermsHashUpdated(bytes32,bytes32)": {
        "notice": "Emitted when the required marketplace terms hash is updated."
      },
      "UnlistedDepositRecovered(uint256,address)": {
        "notice": "Emitted when the owner recovers an unlisted NFT accidentally sent with raw transferFrom."
      }
    },
    "kind": "user",
    "methods": {
      "MAX_NO_LISTING_DAYS()": {
        "notice": "Upper bound for the restricted no-listing window in days."
      },
      "MIN_NO_LISTING_DAYS()": {
        "notice": "Lower bound for the restricted no-listing window in days."
      },
      "NO_LISTING_PERCENT()": {
        "notice": "Percent of deposit tenor used for the no-listing window."
      },
      "buyDeposit(uint256)": {
        "notice": "Buys a listed deposit NFT with the configured payment token."
      },
      "cancelListing(uint256)": {
        "notice": "Cancels a listing and returns the deposit NFT to the seller."
      },
      "cleanExpiredListings(uint256)": {
        "notice": "Removes stale listings and returns escrowed NFTs to their sellers when possible."
      },
      "cleanListings(uint256[])": {
        "notice": "Removes specific stale listings and returns escrowed NFTs to their sellers."
      },
      "cleanupCursor()": {
        "notice": "Cursor used by repeated cleanup calls to avoid always scanning from index zero."
      },
      "constructor": {
        "notice": "Initializes the marketplace with official protocol contracts and terms."
      },
      "currentTermsHash()": {
        "notice": "Current marketplace terms hash sellers must accept when listing."
      },
      "isListable(uint256)": {
        "notice": "Returns whether a deposit can currently be listed on this marketplace."
      },
      "isListingStale(uint256)": {
        "notice": "Returns whether a listed deposit should be removed by cleanup."
      },
      "listDeposit(uint256,uint256,bytes32)": {
        "notice": "Lists an eligible active deposit NFT and transfers it into marketplace escrow."
      },
      "listedCount()": {
        "notice": "Returns the number of active listings."
      },
      "listedDepositIds(uint256)": {
        "notice": "Active listed deposit ids used for cleanup scans and frontend reads."
      },
      "listings(uint256)": {
        "notice": "Active listing by deposit NFT id."
      },
      "noListingDays(uint256)": {
        "notice": "Returns the no-listing window for a deposit in days."
      },
      "onERC721Received(address,address,uint256,bytes)": {
        "notice": "Receives official SavingCore NFTs only during marketplace listing transfers."
      },
      "pause()": {
        "notice": "Pauses listing and buying during an emergency."
      },
      "paymentToken()": {
        "notice": "ERC20 token used to pay sellers, expected to be USDC or MockUSDC."
      },
      "recoverUnlistedDeposit(uint256,address)": {
        "notice": "Recovers an unlisted deposit NFT accidentally sent to the marketplace without safe listing flow."
      },
      "savingCore()": {
        "notice": "Official SavingCore contract whose NFTs are accepted."
      },
      "setTermsHash(bytes32)": {
        "notice": "Updates the marketplace terms hash sellers must accept for new listings."
      },
      "unpause()": {
        "notice": "Unpauses listing and buying after an emergency is resolved."
      }
    },
    "notice": "Escrow marketplace for authentic SavingCore term-deposit NFTs.",
    "version": 1
  },
  "storageLayout": {
    "storage": [
      {
        "astId": 8,
        "contract": "contracts/DepositMarketplace.sol:DepositMarketplace",
        "label": "_owner",
        "offset": 0,
        "slot": "0",
        "type": "t_address"
      },
      {
        "astId": 3552,
        "contract": "contracts/DepositMarketplace.sol:DepositMarketplace",
        "label": "_paused",
        "offset": 20,
        "slot": "0",
        "type": "t_bool"
      },
      {
        "astId": 8858,
        "contract": "contracts/DepositMarketplace.sol:DepositMarketplace",
        "label": "currentTermsHash",
        "offset": 0,
        "slot": "1",
        "type": "t_bytes32"
      },
      {
        "astId": 8870,
        "contract": "contracts/DepositMarketplace.sol:DepositMarketplace",
        "label": "listings",
        "offset": 0,
        "slot": "2",
        "type": "t_mapping(t_uint256,t_struct(Listing)8864_storage)"
      },
      {
        "astId": 8874,
        "contract": "contracts/DepositMarketplace.sol:DepositMarketplace",
        "label": "listedDepositIds",
        "offset": 0,
        "slot": "3",
        "type": "t_array(t_uint256)dyn_storage"
      },
      {
        "astId": 8879,
        "contract": "contracts/DepositMarketplace.sol:DepositMarketplace",
        "label": "listingIndexPlusOne",
        "offset": 0,
        "slot": "4",
        "type": "t_mapping(t_uint256,t_uint256)"
      },
      {
        "astId": 8882,
        "contract": "contracts/DepositMarketplace.sol:DepositMarketplace",
        "label": "cleanupCursor",
        "offset": 0,
        "slot": "5",
        "type": "t_uint256"
      },
      {
        "astId": 8885,
        "contract": "contracts/DepositMarketplace.sol:DepositMarketplace",
        "label": "expectedDepositIdPlusOne",
        "offset": 0,
        "slot": "6",
        "type": "t_uint256"
      }
    ],
    "types": {
      "t_address": {
        "encoding": "inplace",
        "label": "address",
        "numberOfBytes": "20"
      },
      "t_array(t_uint256)dyn_storage": {
        "base": "t_uint256",
        "encoding": "dynamic_array",
        "label": "uint256[]",
        "numberOfBytes": "32"
      },
      "t_bool": {
        "encoding": "inplace",
        "label": "bool",
        "numberOfBytes": "1"
      },
      "t_bytes32": {
        "encoding": "inplace",
        "label": "bytes32",
        "numberOfBytes": "32"
      },
      "t_mapping(t_uint256,t_struct(Listing)8864_storage)": {
        "encoding": "mapping",
        "key": "t_uint256",
        "label": "mapping(uint256 => struct DepositMarketplace.Listing)",
        "numberOfBytes": "32",
        "value": "t_struct(Listing)8864_storage"
      },
      "t_mapping(t_uint256,t_uint256)": {
        "encoding": "mapping",
        "key": "t_uint256",
        "label": "mapping(uint256 => uint256)",
        "numberOfBytes": "32",
        "value": "t_uint256"
      },
      "t_struct(Listing)8864_storage": {
        "encoding": "inplace",
        "label": "struct DepositMarketplace.Listing",
        "members": [
          {
            "astId": 8861,
            "contract": "contracts/DepositMarketplace.sol:DepositMarketplace",
            "label": "seller",
            "offset": 0,
            "slot": "0",
            "type": "t_address"
          },
          {
            "astId": 8863,
            "contract": "contracts/DepositMarketplace.sol:DepositMarketplace",
            "label": "price",
            "offset": 20,
            "slot": "0",
            "type": "t_uint96"
          }
        ],
        "numberOfBytes": "32"
      },
      "t_uint256": {
        "encoding": "inplace",
        "label": "uint256",
        "numberOfBytes": "32"
      },
      "t_uint96": {
        "encoding": "inplace",
        "label": "uint96",
        "numberOfBytes": "12"
      }
    }
  }
}