{
  "address": "0x9Ae860C2DCc66f80f5ad69E451c3208cd77924a0",
  "abi": [
    {
      "inputs": [
        {
          "internalType": "address",
          "name": "_savingCore",
          "type": "address"
        },
        {
          "internalType": "address",
          "name": "_paymentToken",
          "type": "address"
        },
        {
          "internalType": "bytes32",
          "name": "_termsHash",
          "type": "bytes32"
        }
      ],
      "stateMutability": "nonpayable",
      "type": "constructor"
    },
    {
      "inputs": [],
      "name": "AlreadyListed",
      "type": "error"
    },
    {
      "inputs": [],
      "name": "DepositNotActive",
      "type": "error"
    },
    {
      "inputs": [],
      "name": "DirectTransferRejected",
      "type": "error"
    },
    {
      "inputs": [],
      "name": "EnforcedPause",
      "type": "error"
    },
    {
      "inputs": [],
      "name": "ExpectedPause",
      "type": "error"
    },
    {
      "inputs": [],
      "name": "InvalidAddress",
      "type": "error"
    },
    {
      "inputs": [],
      "name": "InvalidMaxListings",
      "type": "error"
    },
    {
      "inputs": [],
      "name": "InvalidNFT",
      "type": "error"
    },
    {
      "inputs": [],
      "name": "InvalidPrice",
      "type": "error"
    },
    {
      "inputs": [],
      "name": "InvalidTerms",
      "type": "error"
    },
    {
      "inputs": [],
      "name": "ListingNotFound",
      "type": "error"
    },
    {
      "inputs": [],
      "name": "NotDepositOwner",
      "type": "error"
    },
    {
      "inputs": [],
      "name": "NotEscrowed",
      "type": "error"
    },
    {
      "inputs": [],
      "name": "NotSeller",
      "type": "error"
    },
    {
      "inputs": [
        {
          "internalType": "address",
          "name": "owner",
          "type": "address"
        }
      ],
      "name": "OwnableInvalidOwner",
      "type": "error"
    },
    {
      "inputs": [
        {
          "internalType": "address",
          "name": "account",
          "type": "address"
        }
      ],
      "name": "OwnableUnauthorizedAccount",
      "type": "error"
    },
    {
      "inputs": [],
      "name": "RenewalMintRejected",
      "type": "error"
    },
    {
      "inputs": [],
      "name": "RestrictedWindow",
      "type": "error"
    },
    {
      "inputs": [
        {
          "internalType": "address",
          "name": "token",
          "type": "address"
        }
      ],
      "name": "SafeERC20FailedOperation",
      "type": "error"
    },
    {
      "inputs": [],
      "name": "SelfBuyNotAllowed",
      "type": "error"
    },
    {
      "anonymous": false,
      "inputs": [
        {
          "indexed": true,
          "internalType": "uint256",
          "name": "depositId",
          "type": "uint256"
        },
        {
          "indexed": true,
          "internalType": "address",
          "name": "seller",
          "type": "address"
        },
        {
          "indexed": false,
          "internalType": "uint256",
          "name": "price",
          "type": "uint256"
        },
        {
          "indexed": false,
          "internalType": "bytes32",
          "name": "termsHash",
          "type": "bytes32"
        }
      ],
      "name": "Listed",
      "type": "event"
    },
    {
      "anonymous": false,
      "inputs": [
        {
          "indexed": true,
          "internalType": "uint256",
          "name": "depositId",
          "type": "uint256"
        },
        {
          "indexed": true,
          "internalType": "address",
          "name": "seller",
          "type": "address"
        }
      ],
      "name": "ListingCancelled",
      "type": "event"
    },
    {
      "anonymous": false,
      "inputs": [
        {
          "indexed": true,
          "internalType": "uint256",
          "name": "depositId",
          "type": "uint256"
        },
        {
          "indexed": true,
          "internalType": "address",
          "name": "seller",
          "type": "address"
        }
      ],
      "name": "ListingExpired",
      "type": "event"
    },
    {
      "anonymous": false,
      "inputs": [
        {
          "indexed": true,
          "internalType": "uint256",
          "name": "depositId",
          "type": "uint256"
        },
        {
          "indexed": true,
          "internalType": "address",
          "name": "seller",
          "type": "address"
        },
        {
          "indexed": true,
          "internalType": "address",
          "name": "buyer",
          "type": "address"
        },
        {
          "indexed": false,
          "internalType": "uint256",
          "name": "price",
          "type": "uint256"
        }
      ],
      "name": "ListingPurchased",
      "type": "event"
    },
    {
      "anonymous": false,
      "inputs": [
        {
          "indexed": true,
          "internalType": "address",
          "name": "previousOwner",
          "type": "address"
        },
        {
          "indexed": true,
          "internalType": "address",
          "name": "newOwner",
          "type": "address"
        }
      ],
      "name": "OwnershipTransferred",
      "type": "event"
    },
    {
      "anonymous": false,
      "inputs": [
        {
          "indexed": false,
          "internalType": "address",
          "name": "account",
          "type": "address"
        }
      ],
      "name": "Paused",
      "type": "event"
    },
    {
      "anonymous": false,
      "inputs": [
        {
          "indexed": true,
          "internalType": "bytes32",
          "name": "oldTermsHash",
          "type": "bytes32"
        },
        {
          "indexed": true,
          "internalType": "bytes32",
          "name": "newTermsHash",
          "type": "bytes32"
        }
      ],
      "name": "TermsHashUpdated",
      "type": "event"
    },
    {
      "anonymous": false,
      "inputs": [
        {
          "indexed": true,
          "internalType": "uint256",
          "name": "depositId",
          "type": "uint256"
        },
        {
          "indexed": true,
          "internalType": "address",
          "name": "recipient",
          "type": "address"
        }
      ],
      "name": "UnlistedDepositRecovered",
      "type": "event"
    },
    {
      "anonymous": false,
      "inputs": [
        {
          "indexed": false,
          "internalType": "address",
          "name": "account",
          "type": "address"
        }
      ],
      "name": "Unpaused",
      "type": "event"
    },
    {
      "inputs": [],
      "name": "MAX_NO_LISTING_DAYS",
      "outputs": [
        {
          "internalType": "uint256",
          "name": "",
          "type": "uint256"
        }
      ],
      "stateMutability": "view",
      "type": "function"
    },
    {
      "inputs": [],
      "name": "MIN_NO_LISTING_DAYS",
      "outputs": [
        {
          "internalType": "uint256",
          "name": "",
          "type": "uint256"
        }
      ],
      "stateMutability": "view",
      "type": "function"
    },
    {
      "inputs": [],
      "name": "NO_LISTING_PERCENT",
      "outputs": [
        {
          "internalType": "uint256",
          "name": "",
          "type": "uint256"
        }
      ],
      "stateMutability": "view",
      "type": "function"
    },
    {
      "inputs": [
        {
          "internalType": "uint256",
          "name": "depositId",
          "type": "uint256"
        }
      ],
      "name": "buyDeposit",
      "outputs": [],
      "stateMutability": "nonpayable",
      "type": "function"
    },
    {
      "inputs": [
        {
          "internalType": "uint256",
          "name": "depositId",
          "type": "uint256"
        }
      ],
      "name": "cancelListing",
      "outputs": [],
      "stateMutability": "nonpayable",
      "type": "function"
    },
    {
      "inputs": [
        {
          "internalType": "uint256",
          "name": "maxListings",
          "type": "uint256"
        }
      ],
      "name": "cleanExpiredListings",
      "outputs": [
        {
          "internalType": "uint256",
          "name": "cleaned",
          "type": "uint256"
        }
      ],
      "stateMutability": "nonpayable",
      "type": "function"
    },
    {
      "inputs": [],
      "name": "cleanupCursor",
      "outputs": [
        {
          "internalType": "uint256",
          "name": "",
          "type": "uint256"
        }
      ],
      "stateMutability": "view",
      "type": "function"
    },
    {
      "inputs": [],
      "name": "currentTermsHash",
      "outputs": [
        {
          "internalType": "bytes32",
          "name": "",
          "type": "bytes32"
        }
      ],
      "stateMutability": "view",
      "type": "function"
    },
    {
      "inputs": [
        {
          "internalType": "uint256",
          "name": "depositId",
          "type": "uint256"
        }
      ],
      "name": "isListable",
      "outputs": [
        {
          "internalType": "bool",
          "name": "",
          "type": "bool"
        }
      ],
      "stateMutability": "view",
      "type": "function"
    },
    {
      "inputs": [
        {
          "internalType": "uint256",
          "name": "depositId",
          "type": "uint256"
        },
        {
          "internalType": "uint256",
          "name": "price",
          "type": "uint256"
        },
        {
          "internalType": "bytes32",
          "name": "acceptedTermsHash",
          "type": "bytes32"
        }
      ],
      "name": "listDeposit",
      "outputs": [],
      "stateMutability": "nonpayable",
      "type": "function"
    },
    {
      "inputs": [],
      "name": "listedCount",
      "outputs": [
        {
          "internalType": "uint256",
          "name": "",
          "type": "uint256"
        }
      ],
      "stateMutability": "view",
      "type": "function"
    },
    {
      "inputs": [
        {
          "internalType": "uint256",
          "name": "",
          "type": "uint256"
        }
      ],
      "name": "listedDepositIds",
      "outputs": [
        {
          "internalType": "uint256",
          "name": "",
          "type": "uint256"
        }
      ],
      "stateMutability": "view",
      "type": "function"
    },
    {
      "inputs": [
        {
          "internalType": "uint256",
          "name": "depositId",
          "type": "uint256"
        }
      ],
      "name": "listings",
      "outputs": [
        {
          "internalType": "address",
          "name": "seller",
          "type": "address"
        },
        {
          "internalType": "uint96",
          "name": "price",
          "type": "uint96"
        }
      ],
      "stateMutability": "view",
      "type": "function"
    },
    {
      "inputs": [
        {
          "internalType": "uint256",
          "name": "depositId",
          "type": "uint256"
        }
      ],
      "name": "noListingDays",
      "outputs": [
        {
          "internalType": "uint256",
          "name": "daysCount",
          "type": "uint256"
        }
      ],
      "stateMutability": "view",
      "type": "function"
    },
    {
      "inputs": [
        {
          "internalType": "address",
          "name": "",
          "type": "address"
        },
        {
          "internalType": "address",
          "name": "from",
          "type": "address"
        },
        {
          "internalType": "uint256",
          "name": "tokenId",
          "type": "uint256"
        },
        {
          "internalType": "bytes",
          "name": "",
          "type": "bytes"
        }
      ],
      "name": "onERC721Received",
      "outputs": [
        {
          "internalType": "bytes4",
          "name": "",
          "type": "bytes4"
        }
      ],
      "stateMutability": "view",
      "type": "function"
    },
    {
      "inputs": [],
      "name": "owner",
      "outputs": [
        {
          "internalType": "address",
          "name": "",
          "type": "address"
        }
      ],
      "stateMutability": "view",
      "type": "function"
    },
    {
      "inputs": [],
      "name": "pause",
      "outputs": [],
      "stateMutability": "nonpayable",
      "type": "function"
    },
    {
      "inputs": [],
      "name": "paused",
      "outputs": [
        {
          "internalType": "bool",
          "name": "",
          "type": "bool"
        }
      ],
      "stateMutability": "view",
      "type": "function"
    },
    {
      "inputs": [],
      "name": "paymentToken",
      "outputs": [
        {
          "internalType": "contract IERC20",
          "name": "",
          "type": "address"
        }
      ],
      "stateMutability": "view",
      "type": "function"
    },
    {
      "inputs": [
        {
          "internalType": "uint256",
          "name": "depositId",
          "type": "uint256"
        },
        {
          "internalType": "address",
          "name": "recipient",
          "type": "address"
        }
      ],
      "name": "recoverUnlistedDeposit",
      "outputs": [],
      "stateMutability": "nonpayable",
      "type": "function"
    },
    {
      "inputs": [],
      "name": "renounceOwnership",
      "outputs": [],
      "stateMutability": "nonpayable",
      "type": "function"
    },
    {
      "inputs": [],
      "name": "savingCore",
      "outputs": [
        {
          "internalType": "contract ISavingCoreMarketplace",
          "name": "",
          "type": "address"
        }
      ],
      "stateMutability": "view",
      "type": "function"
    },
    {
      "inputs": [
        {
          "internalType": "bytes32",
          "name": "newTermsHash",
          "type": "bytes32"
        }
      ],
      "name": "setTermsHash",
      "outputs": [],
      "stateMutability": "nonpayable",
      "type": "function"
    },
    {
      "inputs": [
        {
          "internalType": "address",
          "name": "newOwner",
          "type": "address"
        }
      ],
      "name": "transferOwnership",
      "outputs": [],
      "stateMutability": "nonpayable",
      "type": "function"
    },
    {
      "inputs": [],
      "name": "unpause",
      "outputs": [],
      "stateMutability": "nonpayable",
      "type": "function"
    }
  ],
  "transactionHash": "0x2597157744a03be8a21ee64f87841b2948d18749fddd63ea8b6c33e2d7f6b4ba",
  "args": [
    "0x74E9BB5E8B755F0714c1AfF8f8A4672E5471C4Cb",
    "0x3Cb2AE0859d0B2aFe20d5f16Bf9e2E35A1cb2Cb8",
    "0x3b66a5c015a29f4b433c579a09d7e3f9be033797349ca7d673571d722c5b8676"
  ],
  "numDeployments": 1,
  "solcInputHash": "6b83e6568c6101785eeefdaf16ebb125",
  "bytecode": "0x60c03461017c57601f61196d38819003918201601f19168301916001600160401b038311848410176101805780849260609460405283398101031261017c5761004781610194565b90604061005660208301610194565b910151903315610169575f8054336001600160a01b0319821681178355604051959290916001600160a01b0316907f8be0079c531659141344cd1fd0a4f28419497f9722a3daafe3b4186f6b6457e09080a36001600160a01b031680158015610158575b61014957821561013a576080526001600160a01b031660a0526001556117c490816101a982396080518181816102a4015281816105bf015281816107dd015281816108be01528181610a4701528181610e5201528181610f6701528181611126015281816112fd01526116af015260a05181818161020701526112500152f35b630256965f60e01b5f5260045ffd5b63e6c4247b60e01b5f5260045ffd5b506001600160a01b038216156100ba565b631e4fbdf760e01b5f525f60045260245ffd5b5f80fd5b634e487b7160e01b5f52604160045260245ffd5b51906001600160a01b038216820361017c5756fe6080806040526004361015610012575f80fd5b5f905f3560e01c908163150b7a02146112915750806316297c48146112745780633013ce2914611231578063305a67a8146110b85780633f4ba83a146110335780635c975abb1461100e57806369bcbacb14610d895780636b7c809a14610d6d578063715018a614610d0757806375e4d945146109f35780637c851766146109d55780638456cb591461096557806384c701d8146108875780638da5cb5b146108615780638e8b4ecb146108015780638f18c887146107bd57806399ea584414610756578063d31bb3cd1461056d578063dad2419314610551578063de74e57b14610516578063e5879c89146104fa578063f2fde38b1461044f578063f36065b314610431578063f3ba90d51461016d5763f8e5503914610131575f80fd5b3461016a57602036600319011261016a576004359060035482101561016a57602061015b83611424565b90549060031b1c604051908152f35b80fd5b503461016a57602036600319011261016a5760043561018a611656565b808252600260205260408220604051906101a382611450565b54906001600160a01b038216808252602082019260a01c835215610422576001600160a01b0381511633146103fa576101db8361168c565b60068193929310156103e6576001036103d757906101f891611713565b6103c8576102058361154a565b7f00000000000000000000000000000000000000000000000000000000000000006001600160a01b03825116906bffffffffffffffffffffffff845116604051927f23b872dd0000000000000000000000000000000000000000000000000000000088523360045260245260445260208660648180855af160018751148116156103a9575b826040528660605215610375575084906001600160a01b037f000000000000000000000000000000000000000000000000000000000000000016803b1561037157632142170760e11b82523060048301523360248301526044820186905282908290606490829084905af180156103665761034d575b50506001600160a01b036bffffffffffffffffffffffff915116915116916040519283527f05e16e5cf13eeb3ff32f51644ccd765a8ecfd4114beb5820ff29d0b3b1e91a8460203394a480f35b8161035791611480565b61036257835f610300565b8380fd5b6040513d84823e3d90fd5b8280fd5b7f5274afe70000000000000000000000000000000000000000000000000000000086526001600160a01b0316600452602485fd5b60018115166103bf57813b15153d15161661028a565b823d88823e3d90fd5b6004846322f0486560e01b8152fd5b600486636ca34c6b60e01b8152fd5b602487634e487b7160e01b81526021600452fd5b6004847fc56c89a4000000000000000000000000000000000000000000000000000000008152fd5b600484630fc87cc760e31b8152fd5b503461016a578060031936011261016a576020600354604051908152f35b503461016a57602036600319011261016a576001600160a01b036104716113f8565b610479611617565b1680156104ce576001600160a01b0382548273ffffffffffffffffffffffffffffffffffffffff198216178455167f8be0079c531659141344cd1fd0a4f28419497f9722a3daafe3b4186f6b6457e08380a380f35b6024827f1e4fbdf700000000000000000000000000000000000000000000000000000000815280600452fd5b503461016a578060031936011261016a576020604051601e8152f35b503461016a57602036600319011261016a57604080916004358152600260205220548151906001600160a01b038116825260a01c6020820152f35b503461016a578060031936011261016a57602060405160058152f35b503461016a57604036600319011261016a5760043561058a61140e565b90610593611617565b6001600160a01b03821691821561072e5781845260046020526040842054610706576001600160a01b037f0000000000000000000000000000000000000000000000000000000000000000166040516331a9108f60e11b8152836004820152602081602481855afa9081156106fb5786916106cc575b506001600160a01b03309116036106a457908185923b1561037157604051632142170760e11b81523060048201526001600160a01b039290921660248301526044820184905282908290606490829084905af180156103665761068f575b50807fd0254a460fcac617b65c45947db8359a069d84a3dcae96783305b15b767e1ede91a380f35b8161069991611480565b61037157825f610667565b6004857fff272902000000000000000000000000000000000000000000000000000000008152fd5b6106ee915060203d6020116106f4575b6106e68183611480565b8101906114a2565b5f610609565b503d6106dc565b6040513d88823e3d90fd5b6004847fa3d582ec000000000000000000000000000000000000000000000000000000008152fd5b6004847fe6c4247b000000000000000000000000000000000000000000000000000000008152fd5b503461016a57602036600319011261016a5761077360043561168c565b9260068410156107a957506001602093149182610797575b50506040519015158152f35b6107a19250611713565b155f8061078b565b80634e487b7160e01b602492526021600452fd5b503461016a578060031936011261016a5760206040516001600160a01b037f0000000000000000000000000000000000000000000000000000000000000000168152f35b503461016a57602036600319011261016a5760043561081e611617565b801561085257600154816001557fde35f0acaefa1b839f9ad7e30916c35325dcc9c75a7ff8a436d5038b1cf1bf618380a380f35b600482630256965f60e01b8152fd5b503461016a578060031936011261016a576001600160a01b036020915416604051908152f35b503461016a57602036600319011261016a57604051630b02c43d60e41b8152600435600482015260e0816024816001600160a01b037f0000000000000000000000000000000000000000000000000000000000000000165afa90811561036657610912610918928462015180936020969192610920575b5067ffffffffffffffff809116911661153d565b04611758565b604051908152f35b67ffffffffffffffff925082915061094f9060e03d60e01161095e575b6109478183611480565b8101906114e5565b505050949250905091506108fe565b503d61093d565b503461016a578060031936011261016a5761097e611617565b610986611656565b7401000000000000000000000000000000000000000060ff60a01b198254161781557f62e78cea01bee320cd4e420270b5ea74000d11b0c9f74754ebdbfc544b05a2586020604051338152a180f35b503461016a578060031936011261016a576020600554604051908152f35b503461016a57606036600319011261016a57602435600435604435610a16611656565b82158015610cf2575b610ccb576001548103610cbc5781845260046020526040842054610706576001600160a01b037f0000000000000000000000000000000000000000000000000000000000000000166040516331a9108f60e11b8152836004820152602081602481855afa9081156106fb578691610c9d575b506001600160a01b0333911603610c7557610aab8361168c565b6006819392931015610c6157600103610c525790610ac891611713565b610c4357604051610ad881611450565b3381526bffffffffffffffffffffffff8516602080830191825285885260029052604087209151905160a01b73ffffffffffffffffffffffffffffffffffffffff19166001600160a01b039190911617905560035468010000000000000000811015610c2f5783610b52826001610b6a9401600355611424565b90919082549060031b91821b915f19901b1916179055565b6003548386526004602052604086205560018301808411610c1b576006558490803b15610c1757604051632142170760e11b8152336004820152306024820152604481018590529082908290606490829084905af1801561036657610c02575b5060065560405192835260208301527f720d9e8e884f7efa5994d100c6aec186962de769f7d9a2084453e35e0ebca9cb60403393a380f35b81610c0c91611480565b61036257835f610bca565b5080fd5b602486634e487b7160e01b81526011600452fd5b602486634e487b7160e01b81526041600452fd5b6004856322f0486560e01b8152fd5b600487636ca34c6b60e01b8152fd5b602488634e487b7160e01b81526021600452fd5b6004857fc74ecfa1000000000000000000000000000000000000000000000000000000008152fd5b610cb6915060203d6020116106f4576106e68183611480565b5f610a91565b600484630256965f60e01b8152fd5b6004847ebfc921000000000000000000000000000000000000000000000000000000008152fd5b506bffffffffffffffffffffffff8311610a1f565b503461016a578060031936011261016a57610d20611617565b806001600160a01b03815473ffffffffffffffffffffffffffffffffffffffff1981168355167f8be0079c531659141344cd1fd0a4f28419497f9722a3daafe3b4186f6b6457e08280a380f35b503461016a578060031936011261016a576020604051600a8152f35b503461016a57602036600319011261016a57600435818115610fe6579190825b818410610dbc575b602083604051908152f35b90916003548015610fdf5760055490811015610fd8575b610ddc81611424565b90549060031b1c90610ded8261168c565b60068110156103e65760011491821592610fc7575b50508015610f43575b15610f33575080835260026020526040832060405190610e2a82611450565b546001600160a01b038116825260a01c6020820152610e488261154a565b6001600160a01b037f0000000000000000000000000000000000000000000000000000000000000000166001600160a01b03825116813b15610f2f57604051632142170760e11b81523060048201526001600160a01b03919091166024820152604481018490529085908290606490829084905af18015610f2457908591610f0f575b505091600192916001600160a01b0384935116907f10b907a6fcc126ba9acbe7a08f4d4a5d9f9fd37ac5a1cb380f01d895615b58388680a301935b01929190610da9565b81610f1991611480565b61036257835f610ecb565b6040513d87823e3d90fd5b8580fd5b6001929591508201600555610f06565b506040516331a9108f60e11b81528260048201526020816024816001600160a01b037f0000000000000000000000000000000000000000000000000000000000000000165afa908115610f24578591610fa9575b506001600160a01b0316301415610e0b565b610fc1915060203d81116106f4576106e68183611480565b5f610f97565b610fd19250611713565b5f80610e02565b5081610dd3565b5091610db1565b807f6f36d0330000000000000000000000000000000000000000000000000000000060049252fd5b503461016a578060031936011261016a5760ff6020915460a01c166040519015158152f35b503461016a578060031936011261016a5761104c611617565b805460ff8160a01c16156110905760ff60a01b191681557f5db9ee0a495bf2e6ff9c91a7834c1ba4fdd244a5e8aa4e537bd38aeae4b073aa6020604051338152a180f35b6004827f8dfc202b000000000000000000000000000000000000000000000000000000008152fd5b50346111f65760203660031901126111f657600435805f52600260205260405f20604051906110e682611450565b546001600160a01b0381169081835260a01c602083015215611222576001600160a01b0381511633036111fa5761111c8261154a565b6001600160a01b037f0000000000000000000000000000000000000000000000000000000000000000166001600160a01b0382511690803b156111f657604051632142170760e11b81523060048201526001600160a01b03929092166024830152604482018490525f908290606490829084905af180156111eb576111cf575b50516001600160a01b0316907f8e25282255ab31897df2b0456bb993ac7f84d376861aefd84901d2d63a7428a28380a380f35b6111dc9193505f90611480565b5f916001600160a01b0361119c565b6040513d5f823e3d90fd5b5f80fd5b7f5ec82351000000000000000000000000000000000000000000000000000000005f5260045ffd5b630fc87cc760e31b5f5260045ffd5b346111f6575f3660031901126111f65760206040516001600160a01b037f0000000000000000000000000000000000000000000000000000000000000000168152f35b346111f6575f3660031901126111f6576020600154604051908152f35b346111f65760803660031901126111f6576112aa6113f8565b506112b361140e565b6044359060643567ffffffffffffffff81116111f657366023820112156111f657806004013567ffffffffffffffff81116111f657369101602401116111f6576001600160a01b037f00000000000000000000000000000000000000000000000000000000000000001633036113d0576001600160a01b0316156113a85760065460018201809211611394570361136c57807f150b7a020000000000000000000000000000000000000000000000000000000060209252f35b7f7057aa6a000000000000000000000000000000000000000000000000000000005f5260045ffd5b634e487b7160e01b5f52601160045260245ffd5b7fc5bbed69000000000000000000000000000000000000000000000000000000005f5260045ffd5b7f0f3e2a3e000000000000000000000000000000000000000000000000000000005f5260045ffd5b600435906001600160a01b03821682036111f657565b602435906001600160a01b03821682036111f657565b60035481101561143c5760035f5260205f2001905f90565b634e487b7160e01b5f52603260045260245ffd5b6040810190811067ffffffffffffffff82111761146c57604052565b634e487b7160e01b5f52604160045260245ffd5b90601f8019910116810190811067ffffffffffffffff82111761146c57604052565b908160209103126111f657516001600160a01b03811681036111f65790565b519067ffffffffffffffff821682036111f657565b519061ffff821682036111f657565b908160e09103126111f657805191602082015191611505604082016114c1565b91611512606083016114c1565b9161151f608082016114d6565b9160c061152e60a084016114d6565b92015160068110156111f65790565b9190820391821161139457565b805f52600460205260405f20545f198101818111611394576003545f198101908111611394578082036115e4575b50505060035480156115d0575f190161159081611424565b8154905f199060031b1b19169055600355805f5260046020525f60408120555f5260026020525f604081205560035480600554116115cb5750565b600555565b634e487b7160e01b5f52603160045260245ffd5b610b52916115f461160392611424565b90549060031b1c928391611424565b5f52600460205260405f20555f8080611578565b6001600160a01b035f5416330361162a57565b7f118cdaa7000000000000000000000000000000000000000000000000000000005f523360045260245ffd5b60ff5f5460a01c1661166457565b7fd93c0665000000000000000000000000000000000000000000000000000000005f5260045ffd5b60405190630b02c43d60e41b8252600482015260e0816024816001600160a01b037f0000000000000000000000000000000000000000000000000000000000000000165afa9081156111eb575f915f915f916116e9575b50909192565b915050611705915060e03d60e01161095e576109478183611480565b94505050925091905f6116e3565b906201518061091267ffffffffffffffff80611732941694168461153d565b62015180810290808204620151801490151715611394576117529161153d565b42101590565b600581029080820460051490151715611394576064900490600a821061178857601e821161178257565b601e9150565b600a915056fea2646970667358221220f494738873d7066ee16d64bc583f7bab661cc2183ce391e764d9f646a2a2e15164736f6c634300081c0033",
  "devdoc": {
    "errors": {
      "AlreadyListed()": [
        {
          "details": "Reverts when a deposit is already listed."
        }
      ],
      "DepositNotActive()": [
        {
          "details": "Reverts when a deposit is not active."
        }
      ],
      "DirectTransferRejected()": [
        {
          "details": "Reverts when an ERC721 is sent without the listing flow."
        }
      ],
      "EnforcedPause()": [
        {
          "details": "The operation failed because the contract is paused."
        }
      ],
      "ExpectedPause()": [
        {
          "details": "The operation failed because the contract is not paused."
        }
      ],
      "InvalidAddress()": [
        {
          "details": "Reverts when an address parameter is zero."
        }
      ],
      "InvalidMaxListings()": [
        {
          "details": "Reverts when maxListings is zero."
        }
      ],
      "InvalidNFT()": [
        {
          "details": "Reverts when an NFT is not from the official SavingCore contract."
        }
      ],
      "InvalidPrice()": [
        {
          "details": "Reverts when a price is zero."
        }
      ],
      "InvalidTerms()": [
        {
          "details": "Reverts when terms are missing or do not match the current terms hash."
        }
      ],
      "ListingNotFound()": [
        {
          "details": "Reverts when a listing does not exist."
        }
      ],
      "NotDepositOwner()": [
        {
          "details": "Reverts when caller is not the current deposit NFT owner."
        }
      ],
      "NotEscrowed()": [
        {
          "details": "Reverts when the marketplace does not hold the listed NFT."
        }
      ],
      "NotSeller()": [
        {
          "details": "Reverts when caller is not the listing seller."
        }
      ],
      "OwnableInvalidOwner(address)": [
        {
          "details": "The owner is not a valid owner account. (eg. `address(0)`)"
        }
      ],
      "OwnableUnauthorizedAccount(address)": [
        {
          "details": "The caller account is not authorized to perform an operation."
        }
      ],
      "RenewalMintRejected()": [
        {
          "details": "Reverts when SavingCore tries to mint a renewed NFT into marketplace custody."
        }
      ],
      "RestrictedWindow()": [
        {
          "details": "Reverts when a deposit is inside the marketplace restricted window."
        }
      ],
      "SafeERC20FailedOperation(address)": [
        {
          "details": "An operation with an ERC-20 token failed."
        }
      ],
      "SelfBuyNotAllowed()": [
        {
          "details": "Reverts when the seller tries to buy their own listing."
        }
      ]
    },
    "events": {
      "Paused(address)": {
        "details": "Emitted when the pause is triggered by `account`."
      },
      "Unpaused(address)": {
        "details": "Emitted when the pause is lifted by `account`."
      }
    },
    "kind": "dev",
    "methods": {
      "buyDeposit(uint256)": {
        "params": {
          "depositId": "Deposit NFT listing to buy."
        }
      },
      "cancelListing(uint256)": {
        "params": {
          "depositId": "Deposit NFT listing to cancel."
        }
      },
      "cleanExpiredListings(uint256)": {
        "params": {
          "maxListings": "Maximum listing slots to scan during this call."
        },
        "returns": {
          "cleaned": "Number of stale listings removed."
        }
      },
      "constructor": {
        "params": {
          "_paymentToken": "ERC20 token used for marketplace payments.",
          "_savingCore": "Official SavingCore contract address.",
          "_termsHash": "Initial terms hash sellers must accept."
        }
      },
      "isListable(uint256)": {
        "params": {
          "depositId": "Deposit NFT id to check."
        }
      },
      "listDeposit(uint256,uint256,bytes32)": {
        "params": {
          "acceptedTermsHash": "Terms hash accepted by the seller.",
          "depositId": "Deposit NFT id to list.",
          "price": "Sale price in the payment token's smallest unit."
        }
      },
      "noListingDays(uint256)": {
        "params": {
          "depositId": "Deposit NFT id to check."
        }
      },
      "owner()": {
        "details": "Returns the address of the current owner."
      },
      "paused()": {
        "details": "Returns true if the contract is paused, and false otherwise."
      },
      "recoverUnlistedDeposit(uint256,address)": {
        "params": {
          "depositId": "Deposit NFT id to recover.",
          "recipient": "Account that should receive the NFT."
        }
      },
      "renounceOwnership()": {
        "details": "Leaves the contract without owner. It will not be possible to call `onlyOwner` functions. Can only be called by the current owner. NOTE: Renouncing ownership will leave the contract without an owner, thereby disabling any functionality that is only available to the owner."
      },
      "setTermsHash(bytes32)": {
        "params": {
          "newTermsHash": "New terms hash."
        }
      },
      "transferOwnership(address)": {
        "details": "Transfers ownership of the contract to a new account (`newOwner`). Can only be called by the current owner."
      }
    },
    "stateVariables": {
      "expectedDepositIdPlusOne": {
        "details": "Listing transfer guard: expected deposit id plus one while receiving the escrow NFT."
      },
      "listingIndexPlusOne": {
        "details": "Active listing array index plus one by deposit id. Zero means not listed."
      }
    },
    "title": "DepositMarketplace",
    "version": 1
  },
  "userdoc": {
    "events": {
      "Listed(uint256,address,uint256,bytes32)": {
        "notice": "Emitted when a deposit NFT is listed."
      },
      "ListingCancelled(uint256,address)": {
        "notice": "Emitted when a seller cancels a listing."
      },
      "ListingExpired(uint256,address)": {
        "notice": "Emitted when cleanup removes a stale listing."
      },
      "ListingPurchased(uint256,address,address,uint256)": {
        "notice": "Emitted when a deposit NFT listing is purchased."
      },
      "TermsHashUpdated(bytes32,bytes32)": {
        "notice": "Emitted when the required marketplace terms hash is updated."
      },
      "UnlistedDepositRecovered(uint256,address)": {
        "notice": "Emitted when the owner recovers an unlisted NFT accidentally sent with raw transferFrom."
      }
    },
    "kind": "user",
    "methods": {
      "MAX_NO_LISTING_DAYS()": {
        "notice": "Upper bound for the restricted no-listing window in days."
      },
      "MIN_NO_LISTING_DAYS()": {
        "notice": "Lower bound for the restricted no-listing window in days."
      },
      "NO_LISTING_PERCENT()": {
        "notice": "Percent of deposit tenor used for the no-listing window."
      },
      "buyDeposit(uint256)": {
        "notice": "Buys a listed deposit NFT with the configured payment token."
      },
      "cancelListing(uint256)": {
        "notice": "Cancels a listing and returns the deposit NFT to the seller."
      },
      "cleanExpiredListings(uint256)": {
        "notice": "Removes stale listings and returns escrowed NFTs to their sellers when possible."
      },
      "cleanupCursor()": {
        "notice": "Cursor used by repeated cleanup calls to avoid always scanning from index zero."
      },
      "constructor": {
        "notice": "Initializes the marketplace with official protocol contracts and terms."
      },
      "currentTermsHash()": {
        "notice": "Current marketplace terms hash sellers must accept when listing."
      },
      "isListable(uint256)": {
        "notice": "Returns whether a deposit can currently be listed on this marketplace."
      },
      "listDeposit(uint256,uint256,bytes32)": {
        "notice": "Lists an eligible active deposit NFT and transfers it into marketplace escrow."
      },
      "listedCount()": {
        "notice": "Returns the number of active listings."
      },
      "listedDepositIds(uint256)": {
        "notice": "Active listed deposit ids used for cleanup scans and frontend reads."
      },
      "listings(uint256)": {
        "notice": "Active listing by deposit NFT id."
      },
      "noListingDays(uint256)": {
        "notice": "Returns the no-listing window for a deposit in days."
      },
      "onERC721Received(address,address,uint256,bytes)": {
        "notice": "Receives official SavingCore NFTs only during marketplace listing transfers."
      },
      "pause()": {
        "notice": "Pauses listing and buying during an emergency."
      },
      "paymentToken()": {
        "notice": "ERC20 token used to pay sellers, expected to be USDC or MockUSDC."
      },
      "recoverUnlistedDeposit(uint256,address)": {
        "notice": "Recovers an unlisted deposit NFT accidentally sent to the marketplace without safe listing flow."
      },
      "savingCore()": {
        "notice": "Official SavingCore contract whose NFTs are accepted."
      },
      "setTermsHash(bytes32)": {
        "notice": "Updates the marketplace terms hash sellers must accept for new listings."
      },
      "unpause()": {
        "notice": "Unpauses listing and buying after an emergency is resolved."
      }
    },
    "notice": "Escrow marketplace for authentic SavingCore term-deposit NFTs.",
    "version": 1
  },
  "storageLayout": {
    "storage": [
      {
        "astId": 8,
        "contract": "contracts/DepositMarketplace.sol:DepositMarketplace",
        "label": "_owner",
        "offset": 0,
        "slot": "0",
        "type": "t_address"
      },
      {
        "astId": 3552,
        "contract": "contracts/DepositMarketplace.sol:DepositMarketplace",
        "label": "_paused",
        "offset": 20,
        "slot": "0",
        "type": "t_bool"
      },
      {
        "astId": 8858,
        "contract": "contracts/DepositMarketplace.sol:DepositMarketplace",
        "label": "currentTermsHash",
        "offset": 0,
        "slot": "1",
        "type": "t_bytes32"
      },
      {
        "astId": 8870,
        "contract": "contracts/DepositMarketplace.sol:DepositMarketplace",
        "label": "listings",
        "offset": 0,
        "slot": "2",
        "type": "t_mapping(t_uint256,t_struct(Listing)8864_storage)"
      },
      {
        "astId": 8874,
        "contract": "contracts/DepositMarketplace.sol:DepositMarketplace",
        "label": "listedDepositIds",
        "offset": 0,
        "slot": "3",
        "type": "t_array(t_uint256)dyn_storage"
      },
      {
        "astId": 8879,
        "contract": "contracts/DepositMarketplace.sol:DepositMarketplace",
        "label": "listingIndexPlusOne",
        "offset": 0,
        "slot": "4",
        "type": "t_mapping(t_uint256,t_uint256)"
      },
      {
        "astId": 8882,
        "contract": "contracts/DepositMarketplace.sol:DepositMarketplace",
        "label": "cleanupCursor",
        "offset": 0,
        "slot": "5",
        "type": "t_uint256"
      },
      {
        "astId": 8885,
        "contract": "contracts/DepositMarketplace.sol:DepositMarketplace",
        "label": "expectedDepositIdPlusOne",
        "offset": 0,
        "slot": "6",
        "type": "t_uint256"
      }
    ],
    "types": {
      "t_address": {
        "encoding": "inplace",
        "label": "address",
        "numberOfBytes": "20"
      },
      "t_array(t_uint256)dyn_storage": {
        "base": "t_uint256",
        "encoding": "dynamic_array",
        "label": "uint256[]",
        "numberOfBytes": "32"
      },
      "t_bool": {
        "encoding": "inplace",
        "label": "bool",
        "numberOfBytes": "1"
      },
      "t_bytes32": {
        "encoding": "inplace",
        "label": "bytes32",
        "numberOfBytes": "32"
      },
      "t_mapping(t_uint256,t_struct(Listing)8864_storage)": {
        "encoding": "mapping",
        "key": "t_uint256",
        "label": "mapping(uint256 => struct DepositMarketplace.Listing)",
        "numberOfBytes": "32",
        "value": "t_struct(Listing)8864_storage"
      },
      "t_mapping(t_uint256,t_uint256)": {
        "encoding": "mapping",
        "key": "t_uint256",
        "label": "mapping(uint256 => uint256)",
        "numberOfBytes": "32",
        "value": "t_uint256"
      },
      "t_struct(Listing)8864_storage": {
        "encoding": "inplace",
        "label": "struct DepositMarketplace.Listing",
        "members": [
          {
            "astId": 8861,
            "contract": "contracts/DepositMarketplace.sol:DepositMarketplace",
            "label": "seller",
            "offset": 0,
            "slot": "0",
            "type": "t_address"
          },
          {
            "astId": 8863,
            "contract": "contracts/DepositMarketplace.sol:DepositMarketplace",
            "label": "price",
            "offset": 20,
            "slot": "0",
            "type": "t_uint96"
          }
        ],
        "numberOfBytes": "32"
      },
      "t_uint256": {
        "encoding": "inplace",
        "label": "uint256",
        "numberOfBytes": "32"
      },
      "t_uint96": {
        "encoding": "inplace",
        "label": "uint96",
        "numberOfBytes": "12"
      }
    }
  }
}