{
  "address": "0x74E9BB5E8B755F0714c1AfF8f8A4672E5471C4Cb",
  "abi": [
    {
      "inputs": [
        {
          "internalType": "address",
          "name": "_token",
          "type": "address"
        },
        {
          "internalType": "address",
          "name": "_vaultManager",
          "type": "address"
        }
      ],
      "stateMutability": "nonpayable",
      "type": "constructor"
    },
    {
      "inputs": [],
      "name": "AlreadyMatured",
      "type": "error"
    },
    {
      "inputs": [],
      "name": "AmountAboveMaximum",
      "type": "error"
    },
    {
      "inputs": [],
      "name": "AmountBelowMinimum",
      "type": "error"
    },
    {
      "inputs": [],
      "name": "DepositNotActive",
      "type": "error"
    },
    {
      "inputs": [],
      "name": "DepositNotFound",
      "type": "error"
    },
    {
      "inputs": [
        {
          "internalType": "address",
          "name": "sender",
          "type": "address"
        },
        {
          "internalType": "uint256",
          "name": "tokenId",
          "type": "uint256"
        },
        {
          "internalType": "address",
          "name": "owner",
          "type": "address"
        }
      ],
      "name": "ERC721IncorrectOwner",
      "type": "error"
    },
    {
      "inputs": [
        {
          "internalType": "address",
          "name": "operator",
          "type": "address"
        },
        {
          "internalType": "uint256",
          "name": "tokenId",
          "type": "uint256"
        }
      ],
      "name": "ERC721InsufficientApproval",
      "type": "error"
    },
    {
      "inputs": [
        {
          "internalType": "address",
          "name": "approver",
          "type": "address"
        }
      ],
      "name": "ERC721InvalidApprover",
      "type": "error"
    },
    {
      "inputs": [
        {
          "internalType": "address",
          "name": "operator",
          "type": "address"
        }
      ],
      "name": "ERC721InvalidOperator",
      "type": "error"
    },
    {
      "inputs": [
        {
          "internalType": "address",
          "name": "owner",
          "type": "address"
        }
      ],
      "name": "ERC721InvalidOwner",
      "type": "error"
    },
    {
      "inputs": [
        {
          "internalType": "address",
          "name": "receiver",
          "type": "address"
        }
      ],
      "name": "ERC721InvalidReceiver",
      "type": "error"
    },
    {
      "inputs": [
        {
          "internalType": "address",
          "name": "sender",
          "type": "address"
        }
      ],
      "name": "ERC721InvalidSender",
      "type": "error"
    },
    {
      "inputs": [
        {
          "internalType": "uint256",
          "name": "tokenId",
          "type": "uint256"
        }
      ],
      "name": "ERC721NonexistentToken",
      "type": "error"
    },
    {
      "inputs": [],
      "name": "EnforcedPause",
      "type": "error"
    },
    {
      "inputs": [],
      "name": "ExpectedPause",
      "type": "error"
    },
    {
      "inputs": [],
      "name": "GracePeriodNotEnded",
      "type": "error"
    },
    {
      "inputs": [],
      "name": "InvalidAddress",
      "type": "error"
    },
    {
      "inputs": [],
      "name": "InvalidAmount",
      "type": "error"
    },
    {
      "inputs": [],
      "name": "InvalidApr",
      "type": "error"
    },
    {
      "inputs": [],
      "name": "InvalidPenalty",
      "type": "error"
    },
    {
      "inputs": [],
      "name": "InvalidPlanRange",
      "type": "error"
    },
    {
      "inputs": [],
      "name": "InvalidTenor",
      "type": "error"
    },
    {
      "inputs": [],
      "name": "MaturityOverflow",
      "type": "error"
    },
    {
      "inputs": [],
      "name": "NewPrincipalOutOfRange",
      "type": "error"
    },
    {
      "inputs": [],
      "name": "NotDepositOwner",
      "type": "error"
    },
    {
      "inputs": [],
      "name": "NotMatured",
      "type": "error"
    },
    {
      "inputs": [
        {
          "internalType": "address",
          "name": "owner",
          "type": "address"
        }
      ],
      "name": "OwnableInvalidOwner",
      "type": "error"
    },
    {
      "inputs": [
        {
          "internalType": "address",
          "name": "account",
          "type": "address"
        }
      ],
      "name": "OwnableUnauthorizedAccount",
      "type": "error"
    },
    {
      "inputs": [],
      "name": "PlanAlreadyDisabled",
      "type": "error"
    },
    {
      "inputs": [],
      "name": "PlanAlreadyEnabled",
      "type": "error"
    },
    {
      "inputs": [],
      "name": "PlanNotEnabled",
      "type": "error"
    },
    {
      "inputs": [],
      "name": "PlanNotFound",
      "type": "error"
    },
    {
      "inputs": [
        {
          "internalType": "address",
          "name": "token",
          "type": "address"
        }
      ],
      "name": "SafeERC20FailedOperation",
      "type": "error"
    },
    {
      "anonymous": false,
      "inputs": [
        {
          "indexed": true,
          "internalType": "address",
          "name": "owner",
          "type": "address"
        },
        {
          "indexed": true,
          "internalType": "address",
          "name": "approved",
          "type": "address"
        },
        {
          "indexed": true,
          "internalType": "uint256",
          "name": "tokenId",
          "type": "uint256"
        }
      ],
      "name": "Approval",
      "type": "event"
    },
    {
      "anonymous": false,
      "inputs": [
        {
          "indexed": true,
          "internalType": "address",
          "name": "owner",
          "type": "address"
        },
        {
          "indexed": true,
          "internalType": "address",
          "name": "operator",
          "type": "address"
        },
        {
          "indexed": false,
          "internalType": "bool",
          "name": "approved",
          "type": "bool"
        }
      ],
      "name": "ApprovalForAll",
      "type": "event"
    },
    {
      "anonymous": false,
      "inputs": [
        {
          "indexed": true,
          "internalType": "uint256",
          "name": "depositId",
          "type": "uint256"
        },
        {
          "indexed": true,
          "internalType": "address",
          "name": "account",
          "type": "address"
        },
        {
          "indexed": true,
          "internalType": "uint256",
          "name": "planId",
          "type": "uint256"
        },
        {
          "indexed": false,
          "internalType": "uint256",
          "name": "principal",
          "type": "uint256"
        },
        {
          "indexed": false,
          "internalType": "uint64",
          "name": "startAt",
          "type": "uint64"
        },
        {
          "indexed": false,
          "internalType": "uint64",
          "name": "maturityAt",
          "type": "uint64"
        },
        {
          "indexed": false,
          "internalType": "uint16",
          "name": "aprBpsAtOpen",
          "type": "uint16"
        },
        {
          "indexed": false,
          "internalType": "uint16",
          "name": "penaltyBpsAtOpen",
          "type": "uint16"
        }
      ],
      "name": "DepositOpened",
      "type": "event"
    },
    {
      "anonymous": false,
      "inputs": [
        {
          "indexed": true,
          "internalType": "address",
          "name": "previousOwner",
          "type": "address"
        },
        {
          "indexed": true,
          "internalType": "address",
          "name": "newOwner",
          "type": "address"
        }
      ],
      "name": "OwnershipTransferred",
      "type": "event"
    },
    {
      "anonymous": false,
      "inputs": [
        {
          "indexed": false,
          "internalType": "address",
          "name": "account",
          "type": "address"
        }
      ],
      "name": "Paused",
      "type": "event"
    },
    {
      "anonymous": false,
      "inputs": [
        {
          "indexed": true,
          "internalType": "uint256",
          "name": "planId",
          "type": "uint256"
        },
        {
          "indexed": false,
          "internalType": "uint64",
          "name": "tenorDays",
          "type": "uint64"
        },
        {
          "indexed": false,
          "internalType": "uint16",
          "name": "aprBps",
          "type": "uint16"
        },
        {
          "indexed": false,
          "internalType": "uint256",
          "name": "minDeposit",
          "type": "uint256"
        },
        {
          "indexed": false,
          "internalType": "uint256",
          "name": "maxDeposit",
          "type": "uint256"
        },
        {
          "indexed": false,
          "internalType": "uint16",
          "name": "earlyWithdrawPenaltyBps",
          "type": "uint16"
        },
        {
          "indexed": false,
          "internalType": "bool",
          "name": "enabled",
          "type": "bool"
        }
      ],
      "name": "PlanCreated",
      "type": "event"
    },
    {
      "anonymous": false,
      "inputs": [
        {
          "indexed": true,
          "internalType": "uint256",
          "name": "planId",
          "type": "uint256"
        },
        {
          "indexed": false,
          "internalType": "uint16",
          "name": "aprBps",
          "type": "uint16"
        },
        {
          "indexed": false,
          "internalType": "bool",
          "name": "enabled",
          "type": "bool"
        }
      ],
      "name": "PlanUpdated",
      "type": "event"
    },
    {
      "anonymous": false,
      "inputs": [
        {
          "indexed": true,
          "internalType": "uint256",
          "name": "oldDepositId",
          "type": "uint256"
        },
        {
          "indexed": true,
          "internalType": "uint256",
          "name": "newDepositId",
          "type": "uint256"
        },
        {
          "indexed": true,
          "internalType": "address",
          "name": "account",
          "type": "address"
        },
        {
          "indexed": false,
          "internalType": "uint256",
          "name": "newPlanId",
          "type": "uint256"
        },
        {
          "indexed": false,
          "internalType": "uint256",
          "name": "oldPrincipal",
          "type": "uint256"
        },
        {
          "indexed": false,
          "internalType": "uint256",
          "name": "interest",
          "type": "uint256"
        },
        {
          "indexed": false,
          "internalType": "uint256",
          "name": "newPrincipal",
          "type": "uint256"
        },
        {
          "indexed": false,
          "internalType": "uint64",
          "name": "startAt",
          "type": "uint64"
        },
        {
          "indexed": false,
          "internalType": "uint64",
          "name": "maturityAt",
          "type": "uint64"
        },
        {
          "indexed": false,
          "internalType": "bool",
          "name": "isAuto",
          "type": "bool"
        }
      ],
      "name": "Renewed",
      "type": "event"
    },
    {
      "anonymous": false,
      "inputs": [
        {
          "indexed": true,
          "internalType": "address",
          "name": "from",
          "type": "address"
        },
        {
          "indexed": true,
          "internalType": "address",
          "name": "to",
          "type": "address"
        },
        {
          "indexed": true,
          "internalType": "uint256",
          "name": "tokenId",
          "type": "uint256"
        }
      ],
      "name": "Transfer",
      "type": "event"
    },
    {
      "anonymous": false,
      "inputs": [
        {
          "indexed": false,
          "internalType": "address",
          "name": "account",
          "type": "address"
        }
      ],
      "name": "Unpaused",
      "type": "event"
    },
    {
      "anonymous": false,
      "inputs": [
        {
          "indexed": true,
          "internalType": "uint256",
          "name": "depositId",
          "type": "uint256"
        },
        {
          "indexed": true,
          "internalType": "address",
          "name": "account",
          "type": "address"
        },
        {
          "indexed": false,
          "internalType": "uint256",
          "name": "principal",
          "type": "uint256"
        },
        {
          "indexed": false,
          "internalType": "uint256",
          "name": "interest",
          "type": "uint256"
        },
        {
          "indexed": false,
          "internalType": "uint256",
          "name": "penalty",
          "type": "uint256"
        },
        {
          "indexed": false,
          "internalType": "bool",
          "name": "isEarly",
          "type": "bool"
        }
      ],
      "name": "Withdrawn",
      "type": "event"
    },
    {
      "inputs": [],
      "name": "AUTO_RENEW_GRACE_PERIOD",
      "outputs": [
        {
          "internalType": "uint256",
          "name": "",
          "type": "uint256"
        }
      ],
      "stateMutability": "view",
      "type": "function"
    },
    {
      "inputs": [],
      "name": "BPS_DENOMINATOR",
      "outputs": [
        {
          "internalType": "uint16",
          "name": "",
          "type": "uint16"
        }
      ],
      "stateMutability": "view",
      "type": "function"
    },
    {
      "inputs": [],
      "name": "YEAR_SECONDS",
      "outputs": [
        {
          "internalType": "uint256",
          "name": "",
          "type": "uint256"
        }
      ],
      "stateMutability": "view",
      "type": "function"
    },
    {
      "inputs": [
        {
          "internalType": "address",
          "name": "to",
          "type": "address"
        },
        {
          "internalType": "uint256",
          "name": "tokenId",
          "type": "uint256"
        }
      ],
      "name": "approve",
      "outputs": [],
      "stateMutability": "nonpayable",
      "type": "function"
    },
    {
      "inputs": [
        {
          "internalType": "uint256",
          "name": "depositId",
          "type": "uint256"
        }
      ],
      "name": "autoRenewDeposit",
      "outputs": [],
      "stateMutability": "nonpayable",
      "type": "function"
    },
    {
      "inputs": [
        {
          "internalType": "address",
          "name": "owner",
          "type": "address"
        }
      ],
      "name": "balanceOf",
      "outputs": [
        {
          "internalType": "uint256",
          "name": "",
          "type": "uint256"
        }
      ],
      "stateMutability": "view",
      "type": "function"
    },
    {
      "inputs": [
        {
          "internalType": "uint64",
          "name": "tenorDays",
          "type": "uint64"
        },
        {
          "internalType": "uint16",
          "name": "aprBps",
          "type": "uint16"
        },
        {
          "internalType": "uint256",
          "name": "minDeposit",
          "type": "uint256"
        },
        {
          "internalType": "uint256",
          "name": "maxDeposit",
          "type": "uint256"
        },
        {
          "internalType": "uint16",
          "name": "earlyWithdrawPenaltyBps",
          "type": "uint16"
        },
        {
          "internalType": "bool",
          "name": "enabled",
          "type": "bool"
        }
      ],
      "name": "createPlan",
      "outputs": [
        {
          "internalType": "uint256",
          "name": "planId",
          "type": "uint256"
        }
      ],
      "stateMutability": "nonpayable",
      "type": "function"
    },
    {
      "inputs": [
        {
          "internalType": "uint256",
          "name": "depositId",
          "type": "uint256"
        }
      ],
      "name": "deposits",
      "outputs": [
        {
          "internalType": "uint256",
          "name": "planId",
          "type": "uint256"
        },
        {
          "internalType": "uint256",
          "name": "principal",
          "type": "uint256"
        },
        {
          "internalType": "uint64",
          "name": "startAt",
          "type": "uint64"
        },
        {
          "internalType": "uint64",
          "name": "maturityAt",
          "type": "uint64"
        },
        {
          "internalType": "uint16",
          "name": "aprBpsAtOpen",
          "type": "uint16"
        },
        {
          "internalType": "uint16",
          "name": "penaltyBpsAtOpen",
          "type": "uint16"
        },
        {
          "internalType": "enum SavingCore.DepositStatus",
          "name": "status",
          "type": "uint8"
        }
      ],
      "stateMutability": "view",
      "type": "function"
    },
    {
      "inputs": [
        {
          "internalType": "uint256",
          "name": "planId",
          "type": "uint256"
        }
      ],
      "name": "disablePlan",
      "outputs": [],
      "stateMutability": "nonpayable",
      "type": "function"
    },
    {
      "inputs": [
        {
          "internalType": "uint256",
          "name": "depositId",
          "type": "uint256"
        }
      ],
      "name": "earlyWithdraw",
      "outputs": [],
      "stateMutability": "nonpayable",
      "type": "function"
    },
    {
      "inputs": [
        {
          "internalType": "uint256",
          "name": "planId",
          "type": "uint256"
        }
      ],
      "name": "enablePlan",
      "outputs": [],
      "stateMutability": "nonpayable",
      "type": "function"
    },
    {
      "inputs": [
        {
          "internalType": "uint256",
          "name": "tokenId",
          "type": "uint256"
        }
      ],
      "name": "getApproved",
      "outputs": [
        {
          "internalType": "address",
          "name": "",
          "type": "address"
        }
      ],
      "stateMutability": "view",
      "type": "function"
    },
    {
      "inputs": [
        {
          "internalType": "address",
          "name": "owner",
          "type": "address"
        },
        {
          "internalType": "address",
          "name": "operator",
          "type": "address"
        }
      ],
      "name": "isApprovedForAll",
      "outputs": [
        {
          "internalType": "bool",
          "name": "",
          "type": "bool"
        }
      ],
      "stateMutability": "view",
      "type": "function"
    },
    {
      "inputs": [],
      "name": "name",
      "outputs": [
        {
          "internalType": "string",
          "name": "",
          "type": "string"
        }
      ],
      "stateMutability": "view",
      "type": "function"
    },
    {
      "inputs": [],
      "name": "nextDepositId",
      "outputs": [
        {
          "internalType": "uint256",
          "name": "",
          "type": "uint256"
        }
      ],
      "stateMutability": "view",
      "type": "function"
    },
    {
      "inputs": [],
      "name": "nextPlanId",
      "outputs": [
        {
          "internalType": "uint256",
          "name": "",
          "type": "uint256"
        }
      ],
      "stateMutability": "view",
      "type": "function"
    },
    {
      "inputs": [
        {
          "internalType": "uint256",
          "name": "planId",
          "type": "uint256"
        },
        {
          "internalType": "uint256",
          "name": "amount",
          "type": "uint256"
        }
      ],
      "name": "openDeposit",
      "outputs": [],
      "stateMutability": "nonpayable",
      "type": "function"
    },
    {
      "inputs": [],
      "name": "owner",
      "outputs": [
        {
          "internalType": "address",
          "name": "",
          "type": "address"
        }
      ],
      "stateMutability": "view",
      "type": "function"
    },
    {
      "inputs": [
        {
          "internalType": "uint256",
          "name": "tokenId",
          "type": "uint256"
        }
      ],
      "name": "ownerOf",
      "outputs": [
        {
          "internalType": "address",
          "name": "",
          "type": "address"
        }
      ],
      "stateMutability": "view",
      "type": "function"
    },
    {
      "inputs": [],
      "name": "pause",
      "outputs": [],
      "stateMutability": "nonpayable",
      "type": "function"
    },
    {
      "inputs": [],
      "name": "paused",
      "outputs": [
        {
          "internalType": "bool",
          "name": "",
          "type": "bool"
        }
      ],
      "stateMutability": "view",
      "type": "function"
    },
    {
      "inputs": [
        {
          "internalType": "uint256",
          "name": "depositId",
          "type": "uint256"
        },
        {
          "internalType": "uint256",
          "name": "newPlanId",
          "type": "uint256"
        }
      ],
      "name": "renewDeposit",
      "outputs": [],
      "stateMutability": "nonpayable",
      "type": "function"
    },
    {
      "inputs": [],
      "name": "renounceOwnership",
      "outputs": [],
      "stateMutability": "nonpayable",
      "type": "function"
    },
    {
      "inputs": [
        {
          "internalType": "address",
          "name": "from",
          "type": "address"
        },
        {
          "internalType": "address",
          "name": "to",
          "type": "address"
        },
        {
          "internalType": "uint256",
          "name": "tokenId",
          "type": "uint256"
        }
      ],
      "name": "safeTransferFrom",
      "outputs": [],
      "stateMutability": "nonpayable",
      "type": "function"
    },
    {
      "inputs": [
        {
          "internalType": "address",
          "name": "from",
          "type": "address"
        },
        {
          "internalType": "address",
          "name": "to",
          "type": "address"
        },
        {
          "internalType": "uint256",
          "name": "tokenId",
          "type": "uint256"
        },
        {
          "internalType": "bytes",
          "name": "data",
          "type": "bytes"
        }
      ],
      "name": "safeTransferFrom",
      "outputs": [],
      "stateMutability": "nonpayable",
      "type": "function"
    },
    {
      "inputs": [
        {
          "internalType": "uint256",
          "name": "planId",
          "type": "uint256"
        }
      ],
      "name": "savingPlans",
      "outputs": [
        {
          "internalType": "uint256",
          "name": "minDeposit",
          "type": "uint256"
        },
        {
          "internalType": "uint256",
          "name": "maxDeposit",
          "type": "uint256"
        },
        {
          "internalType": "uint64",
          "name": "tenorDays",
          "type": "uint64"
        },
        {
          "internalType": "uint16",
          "name": "aprBps",
          "type": "uint16"
        },
        {
          "internalType": "uint16",
          "name": "earlyWithdrawPenaltyBps",
          "type": "uint16"
        },
        {
          "internalType": "bool",
          "name": "enabled",
          "type": "bool"
        }
      ],
      "stateMutability": "view",
      "type": "function"
    },
    {
      "inputs": [
        {
          "internalType": "address",
          "name": "operator",
          "type": "address"
        },
        {
          "internalType": "bool",
          "name": "approved",
          "type": "bool"
        }
      ],
      "name": "setApprovalForAll",
      "outputs": [],
      "stateMutability": "nonpayable",
      "type": "function"
    },
    {
      "inputs": [
        {
          "internalType": "bytes4",
          "name": "interfaceId",
          "type": "bytes4"
        }
      ],
      "name": "supportsInterface",
      "outputs": [
        {
          "internalType": "bool",
          "name": "",
          "type": "bool"
        }
      ],
      "stateMutability": "view",
      "type": "function"
    },
    {
      "inputs": [],
      "name": "symbol",
      "outputs": [
        {
          "internalType": "string",
          "name": "",
          "type": "string"
        }
      ],
      "stateMutability": "view",
      "type": "function"
    },
    {
      "inputs": [],
      "name": "token",
      "outputs": [
        {
          "internalType": "contract IERC20",
          "name": "",
          "type": "address"
        }
      ],
      "stateMutability": "view",
      "type": "function"
    },
    {
      "inputs": [
        {
          "internalType": "uint256",
          "name": "tokenId",
          "type": "uint256"
        }
      ],
      "name": "tokenURI",
      "outputs": [
        {
          "internalType": "string",
          "name": "",
          "type": "string"
        }
      ],
      "stateMutability": "view",
      "type": "function"
    },
    {
      "inputs": [
        {
          "internalType": "address",
          "name": "from",
          "type": "address"
        },
        {
          "internalType": "address",
          "name": "to",
          "type": "address"
        },
        {
          "internalType": "uint256",
          "name": "tokenId",
          "type": "uint256"
        }
      ],
      "name": "transferFrom",
      "outputs": [],
      "stateMutability": "nonpayable",
      "type": "function"
    },
    {
      "inputs": [
        {
          "internalType": "address",
          "name": "newOwner",
          "type": "address"
        }
      ],
      "name": "transferOwnership",
      "outputs": [],
      "stateMutability": "nonpayable",
      "type": "function"
    },
    {
      "inputs": [],
      "name": "unpause",
      "outputs": [],
      "stateMutability": "nonpayable",
      "type": "function"
    },
    {
      "inputs": [
        {
          "internalType": "uint256",
          "name": "planId",
          "type": "uint256"
        },
        {
          "internalType": "uint16",
          "name": "newAprBps",
          "type": "uint16"
        }
      ],
      "name": "updatePlan",
      "outputs": [],
      "stateMutability": "nonpayable",
      "type": "function"
    },
    {
      "inputs": [],
      "name": "vaultManager",
      "outputs": [
        {
          "internalType": "contract IVaultManager",
          "name": "",
          "type": "address"
        }
      ],
      "stateMutability": "view",
      "type": "function"
    },
    {
      "inputs": [
        {
          "internalType": "uint256",
          "name": "depositId",
          "type": "uint256"
        }
      ],
      "name": "withdrawAtMaturity",
      "outputs": [],
      "stateMutability": "nonpayable",
      "type": "function"
    }
  ],
  "transactionHash": "0xce206da5c01b955babe379676a5b4ddd9392dd1e7a3dafea0f3efdee495f5ad6",
  "args": [
    "0x3Cb2AE0859d0B2aFe20d5f16Bf9e2E35A1cb2Cb8",
    "0x8b7FbAca6606610BD953EE65e77911d69573BC81"
  ],
  "numDeployments": 3,
  "solcInputHash": "6b83e6568c6101785eeefdaf16ebb125",
  "bytecode": "0x60c06040523461042a57612c016040813803918261001c8161042e565b93849283398101031261042a5761003e602061003783610453565b9201610453565b610048604061042e565b91601383527f4465466920536176696e67204465706f73697400000000000000000000000000602084015261007d604061042e565b60038152621114d160ea1b602082015283519092906001600160401b03811161033e575f54600181811c91168015610420575b602082101461032057601f81116103be575b50602094601f821160011461035d579481929394955f92610352575b50508160011b915f199060031b1c1916175f555b82516001600160401b03811161033e57600154600181811c91168015610334575b602082101461032057601f81116102bd575b506020601f821160011461025a57819293945f9261024f575b50508160011b915f199060031b1c1916176001555b331561023c5760068054336001600160a01b0319821681179092556040519391906001600160a01b03167f8be0079c531659141344cd1fd0a4f28419497f9722a3daafe3b4186f6b6457e05f80a36001600160a01b03168015801561022b575b61021c576080526001600160a01b031660a0526127999081610468823960805181818161028d0152818161071c01528181610d8f015281816113e90152611465015260a051818181610752015281816109a80152818161104b015281816113b301526118000152f35b63e6c4247b60e01b5f5260045ffd5b506001600160a01b038216156101b3565b631e4fbdf760e01b5f525f60045260245ffd5b015190505f8061013e565b601f1982169060015f52805f20915f5b8181106102a55750958360019596971061028d575b505050811b01600155610153565b01515f1960f88460031b161c191690555f808061027f565b9192602060018192868b01518155019401920161026a565b60015f527fb10e2d527612073b26eecdfd717e6a320cf44b4afac2b0732d9fcbe2b7fa0cf6601f830160051c81019160208410610316575b601f0160051c01905b81811061030b5750610125565b5f81556001016102fe565b90915081906102f5565b634e487b7160e01b5f52602260045260245ffd5b90607f1690610113565b634e487b7160e01b5f52604160045260245ffd5b015190505f806100de565b601f198216955f8052805f20915f5b8881106103a65750836001959697981061038e575b505050811b015f556100f2565b01515f1960f88460031b161c191690555f8080610381565b9192602060018192868501518155019401920161036c565b5f80527f290decd9548b62a8d60345a988386fc84ba6bc95484008f6362f93160ef3e563601f830160051c81019160208410610416575b601f0160051c01905b81811061040b57506100c2565b5f81556001016103fe565b90915081906103f5565b90607f16906100b0565b5f80fd5b6040519190601f01601f191682016001600160401b0381118382101761033e57604052565b51906001600160a01b038216820361042a5756fe6080806040526004361015610012575f80fd5b5f905f3560e01c90816301ffc9a714611bcd5750806306fdde0314611adc578063081812fc14611a9f57806308cff7e2146119f5578063095ea7b3146119095780630a55ba551461167d57806323b872dd146116655780633f4ba83a146115de57806342842e0e146115ae5780635c975abb146115885780635f8d26b21461156a5780636352211e1461153a5780636933af62146114c65780636b5b9696146112805780636fc4e2d9146111c557806370a082311461115a578063715018a6146110ff5780638070a4bd146110e15780638456cb591461106f5780638a4adf241461102b5780638da5cb5b146110045780638ebc356a14610fe657806395d89b4114610ed95780639cacb6a414610c8b578063a22cb46514610bb8578063b02c43d014610b16578063b330db2814610af7578063b88d4fde14610a5c578063b9855d1d1461084f578063c87b56dd146107f4578063d68b39521461063f578063e1a4521814610622578063e985e9c5146105cf578063f2fde38b1461052f578063f55f404f146102b1578063fc0c546a1461026d5763fc1633e9146101b5575f80fd5b3461026a57604036600319011261026a576004356101d1611d62565b6101d9611fa7565b61ffff811690612710821161025b577f790357788cb8795a3307f9069e79049cdebe64f06c7a948c8730e0e22b1269069160ff604092610246600261021d88611fe7565b0191829069ffff000000000000000082549160401b169069ffff00000000000000001916179055565b5460601c16825191825215156020820152a280f35b600484633b61151160e11b8152fd5b80fd5b503461026a578060031936011261026a5760206040516001600160a01b037f0000000000000000000000000000000000000000000000000000000000000000168152f35b503461026a5760c036600319011261026a5760043567ffffffffffffffff811680910361052b576102e0611d62565b916044356064356084359361ffff85168095036105275760a435958615158097036105275761030d611fa7565b81156104ff5761ffff169561271087116104f05761271086116104c857821515806104bf575b6104975760075495600187016007556040519360c085019585871067ffffffffffffffff8811176104835760409687528086526020808701838152878901878152606089018d815260808a0187815260a08b018981528e8e52600986529c8c90209a518b55925160018b0155905160029099018054915169ffff00000000000000009b1b9a909a1667ffffffffffffffff90991669ffffffffffffffffffff19909116179790971788559989987fdae0d8f0c9968159752fe505ab8979687ccc301a0228950636c1ee0e31590c0d9860c098909190516bffff0000000000000000000083549160501b16906bffff0000000000000000000019161782555115156cff00000000000000000000000082549160601b16906cff00000000000000000000000019161790556040519586528a86015260408501526060840152608083015260a0820152a2604051908152f35b634e487b7160e01b5f52604160045260245ffd5b6004857ff9064283000000000000000000000000000000000000000000000000000000008152fd5b50828411610333565b6004857f458eae5b000000000000000000000000000000000000000000000000000000008152fd5b600485633b61151160e11b8152fd5b6004857f82d46425000000000000000000000000000000000000000000000000000000008152fd5b5f80fd5b5080fd5b503461026a57602036600319011261026a576001600160a01b03610551611ca8565b610559611fa7565b1680156105a3576001600160a01b03600654826001600160a01b0319821617600655167f8be0079c531659141344cd1fd0a4f28419497f9722a3daafe3b4186f6b6457e05f80a380f35b6024827f1e4fbdf700000000000000000000000000000000000000000000000000000000815280600452fd5b503461026a57604036600319011261026a576001600160a01b0360406105f3611ca8565b92826105fd611cbe565b9416815260056020522091165f52602052602060ff60405f2054166040519015158152f35b503461026a578060031936011261026a5760206040516127108152f35b503461026a57602036600319011261026a576004359061065d612031565b61066682612068565b9161067081611f74565b6001600160a01b03339116036107e557600283019067ffffffffffffffff825460401c1642106107d65783610740916106ae600186970154926120fb565b937402000000000000000000000000000000000000000060ff60a01b198254161790556106da81612508565b604051908282528460208301528560408301528560608301527faa89df3586dea99a6ff4ea198a4e29eff11ad007f8b23a206cbe92329e1459d760803393a3337f00000000000000000000000000000000000000000000000000000000000000006125a8565b806107485750f35b6001600160a01b037f000000000000000000000000000000000000000000000000000000000000000016803b156107d257604051630dbb11df60e11b8152336004820152602481019290925290919081908390604490829084905af180156107c5576107b2579050f35b6107bb91611d24565b805f1261026a5780f35b50604051903d90823e3d90fd5b5050fd5b60048363111c440960e01b8152fd5b60048263c74ecfa160e01b8152fd5b503461026a57602036600319011261026a57610811600435611f74565b5080604051610821602082611d24565b525061084b604051610834602082611d24565b5f8152604051918291602083526020830190611c84565b0390f35b503461026a57602036600319011261026a576004359061086d612031565b61087682612068565b916002830180549367ffffffffffffffff8560401c16926203f4808401808511610a48574210610a205784956108ab82611f74565b906001840154936108bb816120fb565b966108c68887611d73565b9067ffffffffffffffff84166108db91611f67565b6108e49061214a565b9390925497805460ff60a01b1916740500000000000000000000000000000000000000001790558060901c61ffff169060801c61ffff169061092a918585858c8a61219d565b956040519788526020880152876040880152606087015267ffffffffffffffff16608086015267ffffffffffffffff1660a085015260c08401600190526001600160a01b03169260e07f5037bdc32de9dfc6ddfa61d3eb09fb262f53f9ee85255474c76bb939fdddc2a591a48061099e5750f35b6001600160a01b037f000000000000000000000000000000000000000000000000000000000000000016803b156107d257604051630dbb11df60e11b8152306004820152602481019290925282908290604490829084905af18015610a1557610a045750f35b81610a0e91611d24565b61026a5780f35b6040513d84823e3d90fd5b6004857f2850e4fb000000000000000000000000000000000000000000000000000000008152fd5b602486634e487b7160e01b81526011600452fd5b503461026a57608036600319011261026a57610a76611ca8565b610a7e611cbe565b6044356064359167ffffffffffffffff8311610af35736602384011215610af35782600401359385610aaf86611d46565b94610abd6040519687611d24565b868652366024888301011161052b5786610af0976024602093018389013786010152610aea838383611d93565b3361263f565b80f35b8480fd5b503461026a578060031936011261026a5760206040516301e133808152f35b503461026a57602036600319011261026a576004358152600a6020526040812080549061ffff6002600183015492015460ff8160a01c1692604051948552602085015267ffffffffffffffff8116604085015267ffffffffffffffff8160401c166060850152818160801c16608085015260901c1660a08301526006811015610ba45760e0925060c0820152f35b602483634e487b7160e01b81526021600452fd5b503461026a57604036600319011261026a57610bd2611ca8565b60243590811515809203610c87573315610c74576001600160a01b0316908115610c4857338352600560205260408320825f5260205260405f2060ff1981541660ff83161790556040519081527f17307eab39ab6107e8899845ad3d59bd9653f200f220920489ca2b5937696c3160203392a380f35b602483837f5b08ba18000000000000000000000000000000000000000000000000000000008252600452fd5b60248363a9fbf51f60e01b815280600452fd5b8280fd5b503461026a57610c9a36611cd4565b90610ca3612031565b610cac81611fe7565b6002810180549160ff8360601c1615610eca578415610ea25780548015159081610e98575b50610e7057600101548015159081610e66575b50610e3e5767ffffffffffffffff821662015180810290808204620151801490151715610a4857610d3c67ffffffffffffffff610d2361ffff9361214a565b92909584808260501c169160401c1684888b8b3361219d565b9354918160405196898852166020870152166040850152818160401c16606085015260501c1660808301527f7f6b5a10f69a18a69c78e0c6a8ba11bbc341354056fb614e6a58e1656f2cf2f960a03393a47f000000000000000000000000000000000000000000000000000000000000000090604051907f23b872dd000000000000000000000000000000000000000000000000000000008452336004523060245260445260208360648180865af1906001845114821615610e1e575b5015610e03575080f35b635274afe760e01b82526001600160a01b0316600452602490fd5b6001821516610e365750813b15153d1516165f610df9565b3d84823e3d90fd5b6004857fea5d71ed000000000000000000000000000000000000000000000000000000008152fd5b905084115f610ce4565b6004867f2fcd1a0f000000000000000000000000000000000000000000000000000000008152fd5b905085105f610cd1565b6004867f2c5211c6000000000000000000000000000000000000000000000000000000008152fd5b60048663327352ed60e01b8152fd5b503461026a578060031936011261026a576040519080600154908160011c91600181168015610fdc575b602084108114610fc857838652908115610fa15750600114610f44575b61084b84610f3081860382611d24565b604051918291602083526020830190611c84565b600181527fb10e2d527612073b26eecdfd717e6a320cf44b4afac2b0732d9fcbe2b7fa0cf6939250905b808210610f8757509091508101602001610f3082610f20565b919260018160209254838588010152019101909291610f6e565b60ff191660208087019190915292151560051b85019092019250610f309150839050610f20565b602483634e487b7160e01b81526022600452fd5b92607f1692610f03565b503461026a578060031936011261026a5760206040516203f4808152f35b503461026a578060031936011261026a5760206001600160a01b0360065416604051908152f35b503461026a578060031936011261026a5760206040516001600160a01b037f0000000000000000000000000000000000000000000000000000000000000000168152f35b503461026a578060031936011261026a57611088611fa7565b611090612031565b7401000000000000000000000000000000000000000060ff60a01b1960065416176006557f62e78cea01bee320cd4e420270b5ea74000d11b0c9f74754ebdbfc544b05a2586020604051338152a180f35b503461026a578060031936011261026a576020600854604051908152f35b503461026a578060031936011261026a57611118611fa7565b806001600160a01b036006546001600160a01b03198116600655167f8be0079c531659141344cd1fd0a4f28419497f9722a3daafe3b4186f6b6457e08280a380f35b503461026a57602036600319011261026a576001600160a01b0361117c611ca8565b168015611199578160409160209352600383522054604051908152f35b6024827f89c62b6400000000000000000000000000000000000000000000000000000000815280600452fd5b503461026a57602036600319011261026a576004356111e2611fa7565b60026111ed82611fe7565b01805460ff8160601c16611258576cff00000000000000000000000019166c0100000000000000000000000017908190556040805191811c61ffff168252600160208301527f790357788cb8795a3307f9069e79049cdebe64f06c7a948c8730e0e22b12690691a280f35b6004847ff9c614b3000000000000000000000000000000000000000000000000000000008152fd5b503461026a57602036600319011261026a5760043561129d612031565b6112a681612068565b6112af82611f74565b6001600160a01b03339116036114b757600281019081549067ffffffffffffffff8260401c1642101561148f576112f561ffff60016127109301549360901c1683611d80565b04926113018483611f67565b927403000000000000000000000000000000000000000060ff60a01b1982541617905561132d81612508565b604051918252846020830152836040830152600160608301527faa89df3586dea99a6ff4ea198a4e29eff11ad007f8b23a206cbe92329e1459d760803393a38061145e575b508061137c575080f35b604051907fb3f006740000000000000000000000000000000000000000000000000000000082526020826004816001600160a01b037f0000000000000000000000000000000000000000000000000000000000000000165afa801561145357839061140d575b610af092507f00000000000000000000000000000000000000000000000000000000000000006125a8565b50906020813d60201161144b575b8161142860209383611d24565b81010312610c875751906001600160a01b0382168203610c8757610af0916113e2565b3d915061141b565b6040513d85823e3d90fd5b61148990337f00000000000000000000000000000000000000000000000000000000000000006125a8565b5f611372565b6004857fb453c220000000000000000000000000000000000000000000000000000000008152fd5b60048363c74ecfa160e01b8152fd5b503461026a57602036600319011261026a57604060c091600435815260096020522060ff8154916002600182015491015490604051938452602084015267ffffffffffffffff8116604084015261ffff8160401c16606084015261ffff8160501c16608084015260601c16151560a0820152f35b503461026a57602036600319011261026a576020611559600435611f74565b6001600160a01b0360405191168152f35b503461026a578060031936011261026a576020600754604051908152f35b503461026a578060031936011261026a57602060ff60065460a01c166040519015158152f35b503461026a57610af06115c036611cea565b90604051926115d0602085611d24565b858452610aea838383611d93565b503461026a578060031936011261026a576115f7611fa7565b60065460ff8160a01c161561163d5760ff60a01b19166006557f5db9ee0a495bf2e6ff9c91a7834c1ba4fdd244a5e8aa4e537bd38aeae4b073aa6020604051338152a180f35b6004827f8dfc202b000000000000000000000000000000000000000000000000000000008152fd5b503461026a57610af061167736611cea565b91611d93565b50346105275761168c36611cd4565b611694612031565b61169d82612068565b6116a683611f74565b926001600160a01b038416923384036118fa57600283019067ffffffffffffffff825460401c1642106118eb576116dc81611fe7565b90600282019687549760ff8960601c16156118dc576116ff6001880154976120fb565b9861170a8a89611d73565b9480549081151591826118d2575b5081156118b2575b5061188a5767ffffffffffffffff169162015180830292808404620151801490151715611876577f5037bdc32de9dfc6ddfa61d3eb09fb262f53f9ee85255474c76bb939fdddc2a59560e0956117c367ffffffffffffffff9593611784879561214a565b9690947404000000000000000000000000000000000000000060ff60a01b1982541617905554908685858b61ffff808760501c169660401c169461219d565b9960405196875260208701528b604087015260608601521660808401521660a08201525f60c0820152a4806117f6575080f35b6001600160a01b037f000000000000000000000000000000000000000000000000000000000000000016803b1561052757604051630dbb11df60e11b815230600482015260248101929092525f908290604490829084905af1801561186b5761185d575080f35b61186991505f90611d24565b005b6040513d5f823e3d90fd5b634e487b7160e01b5f52601160045260245ffd5b7f9d4fa9e7000000000000000000000000000000000000000000000000000000005f5260045ffd5b600101548015159150816118c8575b505f611720565b905085115f6118c1565b871091505f611718565b63327352ed60e01b5f5260045ffd5b63111c440960e01b5f5260045ffd5b63c74ecfa160e01b5f5260045ffd5b3461052757604036600319011261052757611922611ca8565b60243561192e81611f74565b331515806119e2575b806119af575b61199c5781906001600160a01b0380851691167f8c5be1e5ebec7d5bd14f71427d1e84f3dd0314c0f7b2291e5b200ac8c7c3b9255f80a45f5260046020526001600160a01b0360405f2091166001600160a01b03198254161790555f80f35b63a9fbf51f60e01b5f523360045260245ffd5b506001600160a01b0381165f52600560205260405f206001600160a01b0333165f5260205260ff60405f2054161561193d565b50336001600160a01b0382161415611937565b3461052757602036600319011261052757600435611a11611fa7565b6002611a1c82611fe7565b0180549060ff8260601c1615611a77576cff00000000000000000000000019821690556040805191811c61ffff1682525f60208301527f790357788cb8795a3307f9069e79049cdebe64f06c7a948c8730e0e22b12690691a2005b7f412c89ec000000000000000000000000000000000000000000000000000000005f5260045ffd5b3461052757602036600319011261052757600435611abc81611f74565b505f52600460205260206001600160a01b0360405f205416604051908152f35b34610527575f366003190112610527576040515f5f548060011c90600181168015611bc3575b602083108114611baf57828552908115611b8b5750600114611b2f575b61084b83610f3081850382611d24565b5f8080527f290decd9548b62a8d60345a988386fc84ba6bc95484008f6362f93160ef3e563939250905b808210611b7157509091508101602001610f30611b1f565b919260018160209254838588010152019101909291611b59565b60ff191660208086019190915291151560051b84019091019150610f309050611b1f565b634e487b7160e01b5f52602260045260245ffd5b91607f1691611b02565b3461052757602036600319011261052757600435906001600160e01b0319821680920361052757817f80ac58cd0000000000000000000000000000000000000000000000000000000060209314908115611c5a575b8115611c30575b5015158152f35b7f01ffc9a70000000000000000000000000000000000000000000000000000000091501483611c29565b7f5b5e139f0000000000000000000000000000000000000000000000000000000081149150611c22565b805180835260209291819084018484015e5f828201840152601f01601f1916010190565b600435906001600160a01b038216820361052757565b602435906001600160a01b038216820361052757565b6040906003190112610527576004359060243590565b6060906003190112610527576004356001600160a01b038116810361052757906024356001600160a01b0381168103610527579060443590565b90601f8019910116810190811067ffffffffffffffff82111761048357604052565b67ffffffffffffffff811161048357601f01601f191660200190565b6024359061ffff8216820361052757565b9190820180921161187657565b8181029291811591840414171561187657565b91906001600160a01b03168015611f5457815f5260026020526001600160a01b0360405f20541692823315159283611e9f575b6001600160a01b03935085611e68575b805f52600360205260405f2060018154019055815f52600260205260405f20816001600160a01b0319825416179055857fddf252ad1be2c89b69c2b068fc378daa952ba7f163c4a11628f55a4df523b3ef5f80a416808303611e3757505050565b7f64283d7b000000000000000000000000000000000000000000000000000000005f5260045260245260445260645ffd5b611e87825f52600460205260405f206001600160a01b03198154169055565b855f52600360205260405f205f198154019055611dd6565b9192905080611efd575b15611eb657828291611dc6565b8284611ece57637e27328960e01b5f5260045260245ffd5b7f177e802f000000000000000000000000000000000000000000000000000000005f523360045260245260445ffd5b503384148015611f2b575b80611ea95750825f526004602052336001600160a01b0360405f20541614611ea9565b50835f52600560205260405f206001600160a01b0333165f5260205260ff60405f205416611f08565b633250574960e11b5f525f60045260245ffd5b9190820391821161187657565b805f5260026020526001600160a01b0360405f205416908115611f95575090565b637e27328960e01b5f5260045260245ffd5b6001600160a01b03600654163303611fbb57565b7f118cdaa7000000000000000000000000000000000000000000000000000000005f523360045260245ffd5b5f52600960205260405f209067ffffffffffffffff6002830154161561200957565b7fabb34a7c000000000000000000000000000000000000000000000000000000005f5260045ffd5b60ff60065460a01c1661204057565b7fd93c0665000000000000000000000000000000000000000000000000000000005f5260045ffd5b5f52600a60205260405f209060ff600283015460a01c1660068110156120e75780156120bf575f190161209757565b7f6ca34c6b000000000000000000000000000000000000000000000000000000005f5260045ffd5b7f411321ed000000000000000000000000000000000000000000000000000000005f5260045ffd5b634e487b7160e01b5f52602160045260245ffd5b61214664496cebb80091612141600282015461ffff600161213367ffffffffffffffff841667ffffffffffffffff8560401c16611f67565b9401549160801c1690611d80565b611d80565b0490565b6121549042611d73565b9067ffffffffffffffff82116121755767ffffffffffffffff804216921690565b7fa4f3107c000000000000000000000000000000000000000000000000000000005f5260045ffd5b949192939695909660085497600189016008556040519060e0820182811067ffffffffffffffff8211176104835767ffffffffffffffff92839260029260405281526020810197885282604082019916895282606082019516855261ffff608082019716875261ffff60a082019616865260c0810197600189528c5f52600a60205260405f2091518255516001820155019651161667ffffffffffffffff1986541617855551917fffffffffffffffffffffffff000000000000000000000000ffffffffffffffff6fffffffffffffffff000000000000000073ffff00000000000000000000000000000000000071ffff000000000000000000000000000000008854945160801b16945160901b169460401b16911617171782555160068110156120e75760ff60a01b1974ff000000000000000000000000000000000000000083549260a01b16911617905560206040516122f98282611d24565b5f81526001600160a01b038316928315611f5457855f52600283526001600160a01b0360405f20541680151590816124d2575b855f526003855260405f2060018154019055875f526002855260405f20866001600160a01b03198254161790558786827fddf252ad1be2c89b69c2b068fc378daa952ba7f163c4a11628f55a4df523b3ef5f80a4506124a6573b61238f57505050565b816123ce9160409694969593955180938192630a85bd0160e11b83523360048401525f6024840152876044840152608060648401526084830190611c84565b03815f895af15f9181612466575b50612433575050503d5f1461242b573d906123f682611d46565b916124046040519384611d24565b82523d5f8284013e5b815191826124285783633250574960e11b5f5260045260245ffd5b01fd5b60609061240d565b630a85bd0160e11b9193506001600160e01b03199094929416036124545750565b633250574960e11b5f5260045260245ffd5b9091508481813d831161249f575b61247e8183611d24565b8101031261052757516001600160e01b03198116810361052757905f6123dc565b503d612474565b7f73c6ac6e000000000000000000000000000000000000000000000000000000005f525f60045260245ffd5b6124f1885f52600460205260405f206001600160a01b03198154169055565b805f526003855260405f205f19815401905561232c565b805f5260026020526001600160a01b0360405f2054168015908115612571575b825f52600260205260405f206001600160a01b03198154169055825f827fddf252ad1be2c89b69c2b068fc378daa952ba7f163c4a11628f55a4df523b3ef8280a450611f955750565b612590835f52600460205260405f206001600160a01b03198154169055565b805f52600360205260405f205f198154019055612528565b916001600160a01b03604051927fa9059cbb000000000000000000000000000000000000000000000000000000005f521660045260245260205f60448180865af19060015f511482161561261e575b604052156126025750565b6001600160a01b0390635274afe760e01b5f521660045260245ffd5b90600181151661263657823b15153d151616906125f7565b503d5f823e3d90fd5b93909293823b612651575b5050505050565b6126986001600160a01b0392836020951696846040519788968796630a85bd0160e11b88521660048701521660248501526044840152608060648401526084830190611c84565b03815f865af15f918161271e575b506126fb57503d156126f4573d6126bc81611d46565b906126ca6040519283611d24565b81523d5f602083013e5b805190816126ef5782633250574960e11b5f5260045260245ffd5b602001fd5b60606126d4565b6001600160e01b0319630a85bd0160e11b91160361245457505f8080808061264a565b9091506020813d60201161275b575b8161273a60209383611d24565b8101031261052757516001600160e01b03198116810361052757905f6126a6565b3d915061272d56fea26469706673582212205e13b510db8edd305dc1a31713d050cfc40f94a8134b5e40f94b0ac8e68a4e7264736f6c634300081c0033",
  "devdoc": {
    "details": "Deposit and withdrawal logic is intentionally not implemented yet.",
    "errors": {
      "AlreadyMatured()": [
        {
          "details": "Reverts when an early withdrawal is attempted after maturity."
        }
      ],
      "AmountAboveMaximum()": [
        {
          "details": "Reverts when a deposit amount is above the selected plan maximum."
        }
      ],
      "AmountBelowMinimum()": [
        {
          "details": "Reverts when a deposit amount is below the selected plan minimum."
        }
      ],
      "DepositNotActive()": [
        {
          "details": "Reverts when a deposit is not active."
        }
      ],
      "DepositNotFound()": [
        {
          "details": "Reverts when a deposit id does not exist."
        }
      ],
      "ERC721IncorrectOwner(address,uint256,address)": [
        {
          "details": "Indicates an error related to the ownership over a particular token. Used in transfers.",
          "params": {
            "owner": "Address of the current owner of a token.",
            "sender": "Address whose tokens are being transferred.",
            "tokenId": "Identifier number of a token."
          }
        }
      ],
      "ERC721InsufficientApproval(address,uint256)": [
        {
          "details": "Indicates a failure with the `operator`’s approval. Used in transfers.",
          "params": {
            "operator": "Address that may be allowed to operate on tokens without being their owner.",
            "tokenId": "Identifier number of a token."
          }
        }
      ],
      "ERC721InvalidApprover(address)": [
        {
          "details": "Indicates a failure with the `approver` of a token to be approved. Used in approvals.",
          "params": {
            "approver": "Address initiating an approval operation."
          }
        }
      ],
      "ERC721InvalidOperator(address)": [
        {
          "details": "Indicates a failure with the `operator` to be approved. Used in approvals.",
          "params": {
            "operator": "Address that may be allowed to operate on tokens without being their owner."
          }
        }
      ],
      "ERC721InvalidOwner(address)": [
        {
          "details": "Indicates that an address can't be an owner. For example, `address(0)` is a forbidden owner in ERC-721. Used in balance queries.",
          "params": {
            "owner": "Address of the current owner of a token."
          }
        }
      ],
      "ERC721InvalidReceiver(address)": [
        {
          "details": "Indicates a failure with the token `receiver`. Used in transfers.",
          "params": {
            "receiver": "Address to which tokens are being transferred."
          }
        }
      ],
      "ERC721InvalidSender(address)": [
        {
          "details": "Indicates a failure with the token `sender`. Used in transfers.",
          "params": {
            "sender": "Address whose tokens are being transferred."
          }
        }
      ],
      "ERC721NonexistentToken(uint256)": [
        {
          "details": "Indicates a `tokenId` whose `owner` is the zero address.",
          "params": {
            "tokenId": "Identifier number of a token."
          }
        }
      ],
      "EnforcedPause()": [
        {
          "details": "The operation failed because the contract is paused."
        }
      ],
      "ExpectedPause()": [
        {
          "details": "The operation failed because the contract is not paused."
        }
      ],
      "GracePeriodNotEnded()": [
        {
          "details": "Reverts when auto-renewal is attempted before the grace period ends."
        }
      ],
      "InvalidAddress()": [
        {
          "details": "Reverts when a constructor address is zero."
        }
      ],
      "InvalidAmount()": [
        {
          "details": "Reverts when a deposit amount boundary is zero or invalid."
        }
      ],
      "InvalidApr()": [
        {
          "details": "Reverts when APR exceeds the basis-points denominator."
        }
      ],
      "InvalidPenalty()": [
        {
          "details": "Reverts when early withdrawal penalty exceeds the basis-points denominator."
        }
      ],
      "InvalidPlanRange()": [
        {
          "details": "Reverts when max deposit is lower than min deposit."
        }
      ],
      "InvalidTenor()": [
        {
          "details": "Reverts when a tenor value is zero."
        }
      ],
      "MaturityOverflow()": [
        {
          "details": "Reverts when a maturity timestamp cannot fit in deposit storage."
        }
      ],
      "NewPrincipalOutOfRange()": [
        {
          "details": "Reverts when compounded renewal principal does not fit the target plan limits."
        }
      ],
      "NotDepositOwner()": [
        {
          "details": "Reverts when caller is not the owner of a deposit NFT."
        }
      ],
      "NotMatured()": [
        {
          "details": "Reverts when a deposit has not reached maturity."
        }
      ],
      "OwnableInvalidOwner(address)": [
        {
          "details": "The owner is not a valid owner account. (eg. `address(0)`)"
        }
      ],
      "OwnableUnauthorizedAccount(address)": [
        {
          "details": "The caller account is not authorized to perform an operation."
        }
      ],
      "PlanAlreadyDisabled()": [
        {
          "details": "Reverts when disabling an already disabled plan."
        }
      ],
      "PlanAlreadyEnabled()": [
        {
          "details": "Reverts when enabling an already enabled plan."
        }
      ],
      "PlanNotEnabled()": [
        {
          "details": "Reverts when an operation requires an enabled plan."
        }
      ],
      "PlanNotFound()": [
        {
          "details": "Reverts when a plan id does not exist."
        }
      ],
      "SafeERC20FailedOperation(address)": [
        {
          "details": "An operation with an ERC-20 token failed."
        }
      ]
    },
    "events": {
      "Approval(address,address,uint256)": {
        "details": "Emitted when `owner` enables `approved` to manage the `tokenId` token."
      },
      "ApprovalForAll(address,address,bool)": {
        "details": "Emitted when `owner` enables or disables (`approved`) `operator` to manage all of its assets."
      },
      "DepositOpened(uint256,address,uint256,uint256,uint64,uint64,uint16,uint16)": {
        "params": {
          "account": "User that opened and received the deposit NFT.",
          "aprBpsAtOpen": "APR snapshot taken when the deposit opened.",
          "depositId": "ERC721 token id representing the deposit position.",
          "maturityAt": "Timestamp when the deposit reaches maturity.",
          "penaltyBpsAtOpen": "Early withdrawal penalty snapshot taken when the deposit opened.",
          "planId": "Saving plan selected by the user.",
          "principal": "Principal amount transferred into SavingCore.",
          "startAt": "Timestamp when the deposit starts."
        }
      },
      "Paused(address)": {
        "details": "Emitted when the pause is triggered by `account`."
      },
      "PlanCreated(uint256,uint64,uint16,uint256,uint256,uint16,bool)": {
        "params": {
          "aprBps": "Annual percentage rate in basis points.",
          "earlyWithdrawPenaltyBps": "Early withdrawal penalty in basis points.",
          "enabled": "Whether the plan starts enabled.",
          "maxDeposit": "Maximum principal amount accepted for this plan.",
          "minDeposit": "Minimum principal amount accepted for this plan.",
          "planId": "Newly assigned plan id.",
          "tenorDays": "Lock duration in days."
        }
      },
      "PlanUpdated(uint256,uint16,bool)": {
        "params": {
          "aprBps": "Current APR in basis points after the update.",
          "enabled": "Current enabled state after the update.",
          "planId": "Updated plan id."
        }
      },
      "Renewed(uint256,uint256,address,uint256,uint256,uint256,uint256,uint64,uint64,bool)": {
        "params": {
          "account": "Owner receiving the renewed deposit NFT.",
          "interest": "Interest compounded into the new deposit.",
          "isAuto": "Whether renewal was triggered by the permissionless auto-renew path.",
          "maturityAt": "Timestamp when the renewed deposit reaches maturity.",
          "newDepositId": "Newly minted deposit NFT id.",
          "newPlanId": "Plan id used for the new deposit.",
          "newPrincipal": "New principal amount after compounding.",
          "oldDepositId": "Previous deposit NFT id that remains as historical proof.",
          "oldPrincipal": "Previous deposit principal before compounding.",
          "startAt": "Timestamp when the renewed deposit starts."
        }
      },
      "Transfer(address,address,uint256)": {
        "details": "Emitted when `tokenId` token is transferred from `from` to `to`."
      },
      "Unpaused(address)": {
        "details": "Emitted when the pause is lifted by `account`."
      },
      "Withdrawn(uint256,address,uint256,uint256,uint256,bool)": {
        "params": {
          "account": "User that closed the deposit.",
          "depositId": "ERC721 token id of the withdrawn deposit position.",
          "interest": "Interest amount paid from VaultManager, if any.",
          "isEarly": "Whether the withdrawal happened before maturity.",
          "penalty": "Early withdrawal penalty amount, if any.",
          "principal": "Original principal amount closed."
        }
      }
    },
    "kind": "dev",
    "methods": {
      "approve(address,uint256)": {
        "details": "Gives permission to `to` to transfer `tokenId` token to another account. The approval is cleared when the token is transferred. Only a single account can be approved at a time, so approving the zero address clears previous approvals. Requirements: - The caller must own the token or be an approved operator. - `tokenId` must exist. Emits an {Approval} event."
      },
      "autoRenewDeposit(uint256)": {
        "details": "The renewed deposit preserves the original plan id, tenor, APR snapshot, and penalty snapshot.",
        "params": {
          "depositId": "ERC721 token id representing the matured deposit position."
        }
      },
      "balanceOf(address)": {
        "details": "Returns the number of tokens in ``owner``'s account."
      },
      "createPlan(uint64,uint16,uint256,uint256,uint16,bool)": {
        "params": {
          "aprBps": "Annual percentage rate in basis points.",
          "earlyWithdrawPenaltyBps": "Early withdrawal penalty in basis points.",
          "enabled": "Whether the plan should accept deposits once deposit logic is added.",
          "maxDeposit": "Maximum principal amount accepted for this plan.",
          "minDeposit": "Minimum principal amount accepted for this plan.",
          "tenorDays": "Lock duration in days."
        },
        "returns": {
          "planId": "Newly assigned plan id."
        }
      },
      "disablePlan(uint256)": {
        "params": {
          "planId": "Saving plan id to disable."
        }
      },
      "earlyWithdraw(uint256)": {
        "details": "No interest is paid for early withdrawals. The closed deposit NFT is burned.",
        "params": {
          "depositId": "ERC721 token id representing the deposit position."
        }
      },
      "enablePlan(uint256)": {
        "params": {
          "planId": "Saving plan id to enable."
        }
      },
      "getApproved(uint256)": {
        "details": "Returns the account approved for `tokenId` token. Requirements: - `tokenId` must exist."
      },
      "isApprovedForAll(address,address)": {
        "details": "Returns if the `operator` is allowed to manage all of the assets of `owner`. See {setApprovalForAll}"
      },
      "name()": {
        "details": "Returns the token collection name."
      },
      "openDeposit(uint256,uint256)": {
        "details": "The selected plan APR and penalty are snapshotted so later admin updates do not affect this deposit.",
        "params": {
          "amount": "Principal amount to lock in this contract.",
          "planId": "Saving plan id selected by the depositor."
        }
      },
      "owner()": {
        "details": "Returns the address of the current owner."
      },
      "ownerOf(uint256)": {
        "details": "Returns the owner of the `tokenId` token. Requirements: - `tokenId` must exist."
      },
      "pause()": {
        "details": "Plan administration remains available while paused."
      },
      "paused()": {
        "details": "Returns true if the contract is paused, and false otherwise."
      },
      "renewDeposit(uint256,uint256)": {
        "details": "The old NFT is kept and marked `ManualRenewed`; a new active NFT is minted to the owner.",
        "params": {
          "depositId": "ERC721 token id representing the matured deposit position.",
          "newPlanId": "Enabled saving plan id for the renewed deposit."
        }
      },
      "renounceOwnership()": {
        "details": "Leaves the contract without owner. It will not be possible to call `onlyOwner` functions. Can only be called by the current owner. NOTE: Renouncing ownership will leave the contract without an owner, thereby disabling any functionality that is only available to the owner."
      },
      "safeTransferFrom(address,address,uint256)": {
        "details": "Safely transfers `tokenId` token from `from` to `to`, checking first that contract recipients are aware of the ERC-721 protocol to prevent tokens from being forever locked. Requirements: - `from` cannot be the zero address. - `to` cannot be the zero address. - `tokenId` token must exist and be owned by `from`. - If the caller is not `from`, it must have been allowed to move this token by either {approve} or   {setApprovalForAll}. - If `to` refers to a smart contract, it must implement {IERC721Receiver-onERC721Received}, which is called upon   a safe transfer. Emits a {Transfer} event."
      },
      "safeTransferFrom(address,address,uint256,bytes)": {
        "details": "Safely transfers `tokenId` token from `from` to `to`. Requirements: - `from` cannot be the zero address. - `to` cannot be the zero address. - `tokenId` token must exist and be owned by `from`. - If the caller is not `from`, it must be approved to move this token by either {approve} or {setApprovalForAll}. - If `to` refers to a smart contract, it must implement {IERC721Receiver-onERC721Received}, which is called upon   a safe transfer. Emits a {Transfer} event."
      },
      "setApprovalForAll(address,bool)": {
        "details": "Approve or remove `operator` as an operator for the caller. Operators can call {transferFrom} or {safeTransferFrom} for any token owned by the caller. Requirements: - The `operator` cannot be the address zero. Emits an {ApprovalForAll} event."
      },
      "supportsInterface(bytes4)": {
        "details": "Returns true if this contract implements the interface defined by `interfaceId`. See the corresponding https://eips.ethereum.org/EIPS/eip-165#how-interfaces-are-identified[ERC section] to learn more about how these ids are created. This function call must use less than 30 000 gas."
      },
      "symbol()": {
        "details": "Returns the token collection symbol."
      },
      "tokenURI(uint256)": {
        "details": "Returns the Uniform Resource Identifier (URI) for `tokenId` token."
      },
      "transferFrom(address,address,uint256)": {
        "details": "Transfers `tokenId` token from `from` to `to`. WARNING: Note that the caller is responsible to confirm that the recipient is capable of receiving ERC-721 or else they may be permanently lost. Usage of {safeTransferFrom} prevents loss, though the caller must understand this adds an external call which potentially creates a reentrancy vulnerability. Requirements: - `from` cannot be the zero address. - `to` cannot be the zero address. - `tokenId` token must be owned by `from`. - If the caller is not `from`, it must be approved to move this token by either {approve} or {setApprovalForAll}. Emits a {Transfer} event."
      },
      "transferOwnership(address)": {
        "details": "Transfers ownership of the contract to a new account (`newOwner`). Can only be called by the current owner."
      },
      "updatePlan(uint256,uint16)": {
        "params": {
          "newAprBps": "New annual percentage rate in basis points.",
          "planId": "Saving plan id to update."
        }
      },
      "withdrawAtMaturity(uint256)": {
        "details": "Principal is paid by this contract; interest is paid by VaultManager.",
        "params": {
          "depositId": "ERC721 token id representing the deposit position."
        }
      }
    },
    "title": "SavingCore",
    "version": 1
  },
  "userdoc": {
    "events": {
      "DepositOpened(uint256,address,uint256,uint256,uint64,uint64,uint16,uint16)": {
        "notice": "Emitted when a user opens a term deposit."
      },
      "PlanCreated(uint256,uint64,uint16,uint256,uint256,uint16,bool)": {
        "notice": "Emitted when a saving plan is created."
      },
      "PlanUpdated(uint256,uint16,bool)": {
        "notice": "Emitted when mutable saving plan fields are updated."
      },
      "Renewed(uint256,uint256,address,uint256,uint256,uint256,uint256,uint64,uint64,bool)": {
        "notice": "Emitted when an active matured deposit is renewed into a new deposit NFT."
      },
      "Withdrawn(uint256,address,uint256,uint256,uint256,bool)": {
        "notice": "Emitted when a deposit is withdrawn."
      }
    },
    "kind": "user",
    "methods": {
      "AUTO_RENEW_GRACE_PERIOD()": {
        "notice": "Delay after maturity before any caller can trigger auto-renewal."
      },
      "BPS_DENOMINATOR()": {
        "notice": "Basis-points denominator used for APR and penalty values."
      },
      "YEAR_SECONDS()": {
        "notice": "Number of seconds used for simple-interest APR calculations."
      },
      "autoRenewDeposit(uint256)": {
        "notice": "Permissionlessly auto-renews a matured deposit after the grace period and compounds earned interest."
      },
      "constructor": {
        "notice": "Initializes the deposit-position NFT metadata and owner."
      },
      "createPlan(uint64,uint16,uint256,uint256,uint16,bool)": {
        "notice": "Creates a new term-deposit plan."
      },
      "deposits(uint256)": {
        "notice": "Deposit position metadata by future ERC721 token id."
      },
      "disablePlan(uint256)": {
        "notice": "Disables an existing saving plan so future deposits cannot use it."
      },
      "earlyWithdraw(uint256)": {
        "notice": "Withdraws an active deposit before maturity and routes the penalty to the vault fee receiver."
      },
      "enablePlan(uint256)": {
        "notice": "Enables an existing saving plan for future deposits."
      },
      "nextDepositId()": {
        "notice": "Next deposit NFT id to assign when deposit logic is added."
      },
      "nextPlanId()": {
        "notice": "Next saving plan id to assign."
      },
      "openDeposit(uint256,uint256)": {
        "notice": "Opens a new term deposit and mints an ERC721 position NFT to the caller."
      },
      "pause()": {
        "notice": "Pauses deposits, withdrawals, and renewal operations during an emergency."
      },
      "renewDeposit(uint256,uint256)": {
        "notice": "Manually renews a matured deposit into a new enabled plan and compounds earned interest."
      },
      "savingPlans(uint256)": {
        "notice": "Saving plan configuration by plan id."
      },
      "token()": {
        "notice": "ERC20 token accepted for term deposits, expected to be USDC or MockUSDC."
      },
      "unpause()": {
        "notice": "Unpauses deposits, withdrawals, and renewal operations after an emergency is resolved."
      },
      "updatePlan(uint256,uint16)": {
        "notice": "Updates only the APR of an existing saving plan."
      },
      "vaultManager()": {
        "notice": "Vault contract that holds and pays interest liquidity."
      },
      "withdrawAtMaturity(uint256)": {
        "notice": "Withdraws a matured deposit, returning principal and paying interest."
      }
    },
    "notice": "Base contract for term-deposit plans represented by future ERC721 deposit position NFTs.",
    "version": 1
  },
  "storageLayout": {
    "storage": [
      {
        "astId": 1481,
        "contract": "contracts/SavingCore.sol:SavingCore",
        "label": "_name",
        "offset": 0,
        "slot": "0",
        "type": "t_string_storage"
      },
      {
        "astId": 1483,
        "contract": "contracts/SavingCore.sol:SavingCore",
        "label": "_symbol",
        "offset": 0,
        "slot": "1",
        "type": "t_string_storage"
      },
      {
        "astId": 1487,
        "contract": "contracts/SavingCore.sol:SavingCore",
        "label": "_owners",
        "offset": 0,
        "slot": "2",
        "type": "t_mapping(t_uint256,t_address)"
      },
      {
        "astId": 1491,
        "contract": "contracts/SavingCore.sol:SavingCore",
        "label": "_balances",
        "offset": 0,
        "slot": "3",
        "type": "t_mapping(t_address,t_uint256)"
      },
      {
        "astId": 1495,
        "contract": "contracts/SavingCore.sol:SavingCore",
        "label": "_tokenApprovals",
        "offset": 0,
        "slot": "4",
        "type": "t_mapping(t_uint256,t_address)"
      },
      {
        "astId": 1501,
        "contract": "contracts/SavingCore.sol:SavingCore",
        "label": "_operatorApprovals",
        "offset": 0,
        "slot": "5",
        "type": "t_mapping(t_address,t_mapping(t_address,t_bool))"
      },
      {
        "astId": 8,
        "contract": "contracts/SavingCore.sol:SavingCore",
        "label": "_owner",
        "offset": 0,
        "slot": "6",
        "type": "t_address"
      },
      {
        "astId": 3552,
        "contract": "contracts/SavingCore.sol:SavingCore",
        "label": "_paused",
        "offset": 20,
        "slot": "6",
        "type": "t_bool"
      },
      {
        "astId": 10088,
        "contract": "contracts/SavingCore.sol:SavingCore",
        "label": "nextPlanId",
        "offset": 0,
        "slot": "7",
        "type": "t_uint256"
      },
      {
        "astId": 10091,
        "contract": "contracts/SavingCore.sol:SavingCore",
        "label": "nextDepositId",
        "offset": 0,
        "slot": "8",
        "type": "t_uint256"
      },
      {
        "astId": 10097,
        "contract": "contracts/SavingCore.sol:SavingCore",
        "label": "savingPlans",
        "offset": 0,
        "slot": "9",
        "type": "t_mapping(t_uint256,t_struct(SavingPlan)10068_storage)"
      },
      {
        "astId": 10103,
        "contract": "contracts/SavingCore.sol:SavingCore",
        "label": "deposits",
        "offset": 0,
        "slot": "10",
        "type": "t_mapping(t_uint256,t_struct(DepositInfo)10085_storage)"
      }
    ],
    "types": {
      "t_address": {
        "encoding": "inplace",
        "label": "address",
        "numberOfBytes": "20"
      },
      "t_bool": {
        "encoding": "inplace",
        "label": "bool",
        "numberOfBytes": "1"
      },
      "t_enum(DepositStatus)10054": {
        "encoding": "inplace",
        "label": "enum SavingCore.DepositStatus",
        "numberOfBytes": "1"
      },
      "t_mapping(t_address,t_bool)": {
        "encoding": "mapping",
        "key": "t_address",
        "label": "mapping(address => bool)",
        "numberOfBytes": "32",
        "value": "t_bool"
      },
      "t_mapping(t_address,t_mapping(t_address,t_bool))": {
        "encoding": "mapping",
        "key": "t_address",
        "label": "mapping(address => mapping(address => bool))",
        "numberOfBytes": "32",
        "value": "t_mapping(t_address,t_bool)"
      },
      "t_mapping(t_address,t_uint256)": {
        "encoding": "mapping",
        "key": "t_address",
        "label": "mapping(address => uint256)",
        "numberOfBytes": "32",
        "value": "t_uint256"
      },
      "t_mapping(t_uint256,t_address)": {
        "encoding": "mapping",
        "key": "t_uint256",
        "label": "mapping(uint256 => address)",
        "numberOfBytes": "32",
        "value": "t_address"
      },
      "t_mapping(t_uint256,t_struct(DepositInfo)10085_storage)": {
        "encoding": "mapping",
        "key": "t_uint256",
        "label": "mapping(uint256 => struct SavingCore.DepositInfo)",
        "numberOfBytes": "32",
        "value": "t_struct(DepositInfo)10085_storage"
      },
      "t_mapping(t_uint256,t_struct(SavingPlan)10068_storage)": {
        "encoding": "mapping",
        "key": "t_uint256",
        "label": "mapping(uint256 => struct SavingCore.SavingPlan)",
        "numberOfBytes": "32",
        "value": "t_struct(SavingPlan)10068_storage"
      },
      "t_string_storage": {
        "encoding": "bytes",
        "label": "string",
        "numberOfBytes": "32"
      },
      "t_struct(DepositInfo)10085_storage": {
        "encoding": "inplace",
        "label": "struct SavingCore.DepositInfo",
        "members": [
          {
            "astId": 10071,
            "contract": "contracts/SavingCore.sol:SavingCore",
            "label": "planId",
            "offset": 0,
            "slot": "0",
            "type": "t_uint256"
          },
          {
            "astId": 10073,
            "contract": "contracts/SavingCore.sol:SavingCore",
            "label": "principal",
            "offset": 0,
            "slot": "1",
            "type": "t_uint256"
          },
          {
            "astId": 10075,
            "contract": "contracts/SavingCore.sol:SavingCore",
            "label": "startAt",
            "offset": 0,
            "slot": "2",
            "type": "t_uint64"
          },
          {
            "astId": 10077,
            "contract": "contracts/SavingCore.sol:SavingCore",
            "label": "maturityAt",
            "offset": 8,
            "slot": "2",
            "type": "t_uint64"
          },
          {
            "astId": 10079,
            "contract": "contracts/SavingCore.sol:SavingCore",
            "label": "aprBpsAtOpen",
            "offset": 16,
            "slot": "2",
            "type": "t_uint16"
          },
          {
            "astId": 10081,
            "contract": "contracts/SavingCore.sol:SavingCore",
            "label": "penaltyBpsAtOpen",
            "offset": 18,
            "slot": "2",
            "type": "t_uint16"
          },
          {
            "astId": 10084,
            "contract": "contracts/SavingCore.sol:SavingCore",
            "label": "status",
            "offset": 20,
            "slot": "2",
            "type": "t_enum(DepositStatus)10054"
          }
        ],
        "numberOfBytes": "96"
      },
      "t_struct(SavingPlan)10068_storage": {
        "encoding": "inplace",
        "label": "struct SavingCore.SavingPlan",
        "members": [
          {
            "astId": 10057,
            "contract": "contracts/SavingCore.sol:SavingCore",
            "label": "minDeposit",
            "offset": 0,
            "slot": "0",
            "type": "t_uint256"
          },
          {
            "astId": 10059,
            "contract": "contracts/SavingCore.sol:SavingCore",
            "label": "maxDeposit",
            "offset": 0,
            "slot": "1",
            "type": "t_uint256"
          },
          {
            "astId": 10061,
            "contract": "contracts/SavingCore.sol:SavingCore",
            "label": "tenorDays",
            "offset": 0,
            "slot": "2",
            "type": "t_uint64"
          },
          {
            "astId": 10063,
            "contract": "contracts/SavingCore.sol:SavingCore",
            "label": "aprBps",
            "offset": 8,
            "slot": "2",
            "type": "t_uint16"
          },
          {
            "astId": 10065,
            "contract": "contracts/SavingCore.sol:SavingCore",
            "label": "earlyWithdrawPenaltyBps",
            "offset": 10,
            "slot": "2",
            "type": "t_uint16"
          },
          {
            "astId": 10067,
            "contract": "contracts/SavingCore.sol:SavingCore",
            "label": "enabled",
            "offset": 12,
            "slot": "2",
            "type": "t_bool"
          }
        ],
        "numberOfBytes": "96"
      },
      "t_uint16": {
        "encoding": "inplace",
        "label": "uint16",
        "numberOfBytes": "2"
      },
      "t_uint256": {
        "encoding": "inplace",
        "label": "uint256",
        "numberOfBytes": "32"
      },
      "t_uint64": {
        "encoding": "inplace",
        "label": "uint64",
        "numberOfBytes": "8"
      }
    }
  }
}