{
  "address": "0x9c29749B2972C328c2F8c636cF0dfC35A17E2828",
  "abi": [
    {
      "inputs": [
        {
          "internalType": "address",
          "name": "_token",
          "type": "address"
        },
        {
          "internalType": "address",
          "name": "_vaultManager",
          "type": "address"
        }
      ],
      "stateMutability": "nonpayable",
      "type": "constructor"
    },
    {
      "inputs": [],
      "name": "AlreadyMatured",
      "type": "error"
    },
    {
      "inputs": [],
      "name": "AmountAboveMaximum",
      "type": "error"
    },
    {
      "inputs": [],
      "name": "AmountBelowMinimum",
      "type": "error"
    },
    {
      "inputs": [],
      "name": "DepositNotActive",
      "type": "error"
    },
    {
      "inputs": [],
      "name": "DepositNotFound",
      "type": "error"
    },
    {
      "inputs": [
        {
          "internalType": "address",
          "name": "sender",
          "type": "address"
        },
        {
          "internalType": "uint256",
          "name": "tokenId",
          "type": "uint256"
        },
        {
          "internalType": "address",
          "name": "owner",
          "type": "address"
        }
      ],
      "name": "ERC721IncorrectOwner",
      "type": "error"
    },
    {
      "inputs": [
        {
          "internalType": "address",
          "name": "operator",
          "type": "address"
        },
        {
          "internalType": "uint256",
          "name": "tokenId",
          "type": "uint256"
        }
      ],
      "name": "ERC721InsufficientApproval",
      "type": "error"
    },
    {
      "inputs": [
        {
          "internalType": "address",
          "name": "approver",
          "type": "address"
        }
      ],
      "name": "ERC721InvalidApprover",
      "type": "error"
    },
    {
      "inputs": [
        {
          "internalType": "address",
          "name": "operator",
          "type": "address"
        }
      ],
      "name": "ERC721InvalidOperator",
      "type": "error"
    },
    {
      "inputs": [
        {
          "internalType": "address",
          "name": "owner",
          "type": "address"
        }
      ],
      "name": "ERC721InvalidOwner",
      "type": "error"
    },
    {
      "inputs": [
        {
          "internalType": "address",
          "name": "receiver",
          "type": "address"
        }
      ],
      "name": "ERC721InvalidReceiver",
      "type": "error"
    },
    {
      "inputs": [
        {
          "internalType": "address",
          "name": "sender",
          "type": "address"
        }
      ],
      "name": "ERC721InvalidSender",
      "type": "error"
    },
    {
      "inputs": [
        {
          "internalType": "uint256",
          "name": "tokenId",
          "type": "uint256"
        }
      ],
      "name": "ERC721NonexistentToken",
      "type": "error"
    },
    {
      "inputs": [],
      "name": "EnforcedPause",
      "type": "error"
    },
    {
      "inputs": [],
      "name": "ExpectedPause",
      "type": "error"
    },
    {
      "inputs": [],
      "name": "GracePeriodNotEnded",
      "type": "error"
    },
    {
      "inputs": [],
      "name": "InterestUnavailable",
      "type": "error"
    },
    {
      "inputs": [],
      "name": "InvalidAddress",
      "type": "error"
    },
    {
      "inputs": [],
      "name": "InvalidAmount",
      "type": "error"
    },
    {
      "inputs": [],
      "name": "InvalidApr",
      "type": "error"
    },
    {
      "inputs": [],
      "name": "InvalidPenalty",
      "type": "error"
    },
    {
      "inputs": [],
      "name": "InvalidPlanRange",
      "type": "error"
    },
    {
      "inputs": [],
      "name": "InvalidTenor",
      "type": "error"
    },
    {
      "inputs": [],
      "name": "MaturityOverflow",
      "type": "error"
    },
    {
      "inputs": [],
      "name": "MetadataLocked",
      "type": "error"
    },
    {
      "inputs": [],
      "name": "NewPrincipalOutOfRange",
      "type": "error"
    },
    {
      "inputs": [],
      "name": "NoUnpaidInterest",
      "type": "error"
    },
    {
      "inputs": [],
      "name": "NotDepositOwner",
      "type": "error"
    },
    {
      "inputs": [],
      "name": "NotInterestClaimant",
      "type": "error"
    },
    {
      "inputs": [],
      "name": "NotMatured",
      "type": "error"
    },
    {
      "inputs": [
        {
          "internalType": "address",
          "name": "owner",
          "type": "address"
        }
      ],
      "name": "OwnableInvalidOwner",
      "type": "error"
    },
    {
      "inputs": [
        {
          "internalType": "address",
          "name": "account",
          "type": "address"
        }
      ],
      "name": "OwnableUnauthorizedAccount",
      "type": "error"
    },
    {
      "inputs": [],
      "name": "PlanAlreadyDisabled",
      "type": "error"
    },
    {
      "inputs": [],
      "name": "PlanAlreadyEnabled",
      "type": "error"
    },
    {
      "inputs": [],
      "name": "PlanNotEnabled",
      "type": "error"
    },
    {
      "inputs": [],
      "name": "PlanNotFound",
      "type": "error"
    },
    {
      "inputs": [
        {
          "internalType": "address",
          "name": "token",
          "type": "address"
        }
      ],
      "name": "SafeERC20FailedOperation",
      "type": "error"
    },
    {
      "inputs": [],
      "name": "UnauthorizedTransfer",
      "type": "error"
    },
    {
      "anonymous": false,
      "inputs": [
        {
          "indexed": true,
          "internalType": "address",
          "name": "owner",
          "type": "address"
        },
        {
          "indexed": true,
          "internalType": "address",
          "name": "approved",
          "type": "address"
        },
        {
          "indexed": true,
          "internalType": "uint256",
          "name": "tokenId",
          "type": "uint256"
        }
      ],
      "name": "Approval",
      "type": "event"
    },
    {
      "anonymous": false,
      "inputs": [
        {
          "indexed": true,
          "internalType": "address",
          "name": "owner",
          "type": "address"
        },
        {
          "indexed": true,
          "internalType": "address",
          "name": "operator",
          "type": "address"
        },
        {
          "indexed": false,
          "internalType": "bool",
          "name": "approved",
          "type": "bool"
        }
      ],
      "name": "ApprovalForAll",
      "type": "event"
    },
    {
      "anonymous": false,
      "inputs": [
        {
          "indexed": true,
          "internalType": "address",
          "name": "oldMarketplace",
          "type": "address"
        },
        {
          "indexed": true,
          "internalType": "address",
          "name": "newMarketplace",
          "type": "address"
        }
      ],
      "name": "DepositMarketplaceUpdated",
      "type": "event"
    },
    {
      "anonymous": false,
      "inputs": [
        {
          "indexed": true,
          "internalType": "uint256",
          "name": "depositId",
          "type": "uint256"
        },
        {
          "indexed": true,
          "internalType": "address",
          "name": "account",
          "type": "address"
        },
        {
          "indexed": true,
          "internalType": "uint256",
          "name": "planId",
          "type": "uint256"
        },
        {
          "indexed": false,
          "internalType": "uint256",
          "name": "principal",
          "type": "uint256"
        },
        {
          "indexed": false,
          "internalType": "uint64",
          "name": "startAt",
          "type": "uint64"
        },
        {
          "indexed": false,
          "internalType": "uint64",
          "name": "maturityAt",
          "type": "uint64"
        },
        {
          "indexed": false,
          "internalType": "uint16",
          "name": "aprBpsAtOpen",
          "type": "uint16"
        },
        {
          "indexed": false,
          "internalType": "uint16",
          "name": "penaltyBpsAtOpen",
          "type": "uint16"
        }
      ],
      "name": "DepositOpened",
      "type": "event"
    },
    {
      "anonymous": false,
      "inputs": [
        {
          "indexed": true,
          "internalType": "uint256",
          "name": "depositId",
          "type": "uint256"
        },
        {
          "indexed": true,
          "internalType": "address",
          "name": "claimant",
          "type": "address"
        },
        {
          "indexed": false,
          "internalType": "uint256",
          "name": "amount",
          "type": "uint256"
        }
      ],
      "name": "InterestClaimed",
      "type": "event"
    },
    {
      "anonymous": false,
      "inputs": [
        {
          "indexed": true,
          "internalType": "uint256",
          "name": "depositId",
          "type": "uint256"
        },
        {
          "indexed": true,
          "internalType": "address",
          "name": "claimant",
          "type": "address"
        },
        {
          "indexed": false,
          "internalType": "uint256",
          "name": "amount",
          "type": "uint256"
        }
      ],
      "name": "InterestDeferred",
      "type": "event"
    },
    {
      "anonymous": false,
      "inputs": [
        {
          "indexed": false,
          "internalType": "string",
          "name": "oldImageURI",
          "type": "string"
        },
        {
          "indexed": false,
          "internalType": "string",
          "name": "newImageURI",
          "type": "string"
        }
      ],
      "name": "MetadataImageURIUpdated",
      "type": "event"
    },
    {
      "anonymous": false,
      "inputs": [],
      "name": "MetadataPermanentlyLocked",
      "type": "event"
    },
    {
      "anonymous": false,
      "inputs": [
        {
          "indexed": true,
          "internalType": "address",
          "name": "previousOwner",
          "type": "address"
        },
        {
          "indexed": true,
          "internalType": "address",
          "name": "newOwner",
          "type": "address"
        }
      ],
      "name": "OwnershipTransferred",
      "type": "event"
    },
    {
      "anonymous": false,
      "inputs": [
        {
          "indexed": false,
          "internalType": "address",
          "name": "account",
          "type": "address"
        }
      ],
      "name": "Paused",
      "type": "event"
    },
    {
      "anonymous": false,
      "inputs": [
        {
          "indexed": true,
          "internalType": "uint256",
          "name": "planId",
          "type": "uint256"
        },
        {
          "indexed": false,
          "internalType": "uint64",
          "name": "tenorDays",
          "type": "uint64"
        },
        {
          "indexed": false,
          "internalType": "uint16",
          "name": "aprBps",
          "type": "uint16"
        },
        {
          "indexed": false,
          "internalType": "uint256",
          "name": "minDeposit",
          "type": "uint256"
        },
        {
          "indexed": false,
          "internalType": "uint256",
          "name": "maxDeposit",
          "type": "uint256"
        },
        {
          "indexed": false,
          "internalType": "uint16",
          "name": "earlyWithdrawPenaltyBps",
          "type": "uint16"
        },
        {
          "indexed": false,
          "internalType": "bool",
          "name": "enabled",
          "type": "bool"
        }
      ],
      "name": "PlanCreated",
      "type": "event"
    },
    {
      "anonymous": false,
      "inputs": [
        {
          "indexed": true,
          "internalType": "uint256",
          "name": "planId",
          "type": "uint256"
        },
        {
          "indexed": false,
          "internalType": "uint16",
          "name": "aprBps",
          "type": "uint16"
        },
        {
          "indexed": false,
          "internalType": "bool",
          "name": "enabled",
          "type": "bool"
        }
      ],
      "name": "PlanUpdated",
      "type": "event"
    },
    {
      "anonymous": false,
      "inputs": [
        {
          "indexed": true,
          "internalType": "uint256",
          "name": "oldDepositId",
          "type": "uint256"
        },
        {
          "indexed": true,
          "internalType": "uint256",
          "name": "newDepositId",
          "type": "uint256"
        },
        {
          "indexed": true,
          "internalType": "address",
          "name": "account",
          "type": "address"
        },
        {
          "indexed": false,
          "internalType": "uint256",
          "name": "newPlanId",
          "type": "uint256"
        },
        {
          "indexed": false,
          "internalType": "uint256",
          "name": "oldPrincipal",
          "type": "uint256"
        },
        {
          "indexed": false,
          "internalType": "uint256",
          "name": "interest",
          "type": "uint256"
        },
        {
          "indexed": false,
          "internalType": "uint256",
          "name": "newPrincipal",
          "type": "uint256"
        },
        {
          "indexed": false,
          "internalType": "uint64",
          "name": "startAt",
          "type": "uint64"
        },
        {
          "indexed": false,
          "internalType": "uint64",
          "name": "maturityAt",
          "type": "uint64"
        },
        {
          "indexed": false,
          "internalType": "bool",
          "name": "isAuto",
          "type": "bool"
        }
      ],
      "name": "Renewed",
      "type": "event"
    },
    {
      "anonymous": false,
      "inputs": [
        {
          "indexed": true,
          "internalType": "address",
          "name": "from",
          "type": "address"
        },
        {
          "indexed": true,
          "internalType": "address",
          "name": "to",
          "type": "address"
        },
        {
          "indexed": true,
          "internalType": "uint256",
          "name": "tokenId",
          "type": "uint256"
        }
      ],
      "name": "Transfer",
      "type": "event"
    },
    {
      "anonymous": false,
      "inputs": [
        {
          "indexed": false,
          "internalType": "address",
          "name": "account",
          "type": "address"
        }
      ],
      "name": "Unpaused",
      "type": "event"
    },
    {
      "anonymous": false,
      "inputs": [
        {
          "indexed": true,
          "internalType": "uint256",
          "name": "depositId",
          "type": "uint256"
        },
        {
          "indexed": true,
          "internalType": "address",
          "name": "account",
          "type": "address"
        },
        {
          "indexed": false,
          "internalType": "uint256",
          "name": "principal",
          "type": "uint256"
        },
        {
          "indexed": false,
          "internalType": "uint256",
          "name": "interest",
          "type": "uint256"
        },
        {
          "indexed": false,
          "internalType": "uint256",
          "name": "penalty",
          "type": "uint256"
        },
        {
          "indexed": false,
          "internalType": "bool",
          "name": "isEarly",
          "type": "bool"
        }
      ],
      "name": "Withdrawn",
      "type": "event"
    },
    {
      "inputs": [],
      "name": "AUTO_RENEW_GRACE_PERIOD",
      "outputs": [
        {
          "internalType": "uint256",
          "name": "",
          "type": "uint256"
        }
      ],
      "stateMutability": "view",
      "type": "function"
    },
    {
      "inputs": [],
      "name": "BPS_DENOMINATOR",
      "outputs": [
        {
          "internalType": "uint16",
          "name": "",
          "type": "uint16"
        }
      ],
      "stateMutability": "view",
      "type": "function"
    },
    {
      "inputs": [],
      "name": "YEAR_SECONDS",
      "outputs": [
        {
          "internalType": "uint256",
          "name": "",
          "type": "uint256"
        }
      ],
      "stateMutability": "view",
      "type": "function"
    },
    {
      "inputs": [
        {
          "internalType": "address",
          "name": "to",
          "type": "address"
        },
        {
          "internalType": "uint256",
          "name": "tokenId",
          "type": "uint256"
        }
      ],
      "name": "approve",
      "outputs": [],
      "stateMutability": "nonpayable",
      "type": "function"
    },
    {
      "inputs": [
        {
          "internalType": "uint256",
          "name": "depositId",
          "type": "uint256"
        }
      ],
      "name": "autoRenewDeposit",
      "outputs": [],
      "stateMutability": "nonpayable",
      "type": "function"
    },
    {
      "inputs": [
        {
          "internalType": "address",
          "name": "owner",
          "type": "address"
        }
      ],
      "name": "balanceOf",
      "outputs": [
        {
          "internalType": "uint256",
          "name": "",
          "type": "uint256"
        }
      ],
      "stateMutability": "view",
      "type": "function"
    },
    {
      "inputs": [
        {
          "internalType": "uint256",
          "name": "depositId",
          "type": "uint256"
        }
      ],
      "name": "claimInterest",
      "outputs": [],
      "stateMutability": "nonpayable",
      "type": "function"
    },
    {
      "inputs": [
        {
          "internalType": "uint64",
          "name": "tenorDays",
          "type": "uint64"
        },
        {
          "internalType": "uint16",
          "name": "aprBps",
          "type": "uint16"
        },
        {
          "internalType": "uint256",
          "name": "minDeposit",
          "type": "uint256"
        },
        {
          "internalType": "uint256",
          "name": "maxDeposit",
          "type": "uint256"
        },
        {
          "internalType": "uint16",
          "name": "earlyWithdrawPenaltyBps",
          "type": "uint16"
        },
        {
          "internalType": "bool",
          "name": "enabled",
          "type": "bool"
        }
      ],
      "name": "createPlan",
      "outputs": [
        {
          "internalType": "uint256",
          "name": "planId",
          "type": "uint256"
        }
      ],
      "stateMutability": "nonpayable",
      "type": "function"
    },
    {
      "inputs": [],
      "name": "depositMarketplace",
      "outputs": [
        {
          "internalType": "address",
          "name": "",
          "type": "address"
        }
      ],
      "stateMutability": "view",
      "type": "function"
    },
    {
      "inputs": [
        {
          "internalType": "uint256",
          "name": "depositId",
          "type": "uint256"
        }
      ],
      "name": "deposits",
      "outputs": [
        {
          "internalType": "uint256",
          "name": "planId",
          "type": "uint256"
        },
        {
          "internalType": "uint256",
          "name": "principal",
          "type": "uint256"
        },
        {
          "internalType": "uint64",
          "name": "startAt",
          "type": "uint64"
        },
        {
          "internalType": "uint64",
          "name": "maturityAt",
          "type": "uint64"
        },
        {
          "internalType": "uint16",
          "name": "aprBpsAtOpen",
          "type": "uint16"
        },
        {
          "internalType": "uint16",
          "name": "penaltyBpsAtOpen",
          "type": "uint16"
        },
        {
          "internalType": "enum SavingCore.DepositStatus",
          "name": "status",
          "type": "uint8"
        }
      ],
      "stateMutability": "view",
      "type": "function"
    },
    {
      "inputs": [
        {
          "internalType": "uint256",
          "name": "planId",
          "type": "uint256"
        }
      ],
      "name": "disablePlan",
      "outputs": [],
      "stateMutability": "nonpayable",
      "type": "function"
    },
    {
      "inputs": [
        {
          "internalType": "uint256",
          "name": "depositId",
          "type": "uint256"
        }
      ],
      "name": "earlyWithdraw",
      "outputs": [],
      "stateMutability": "nonpayable",
      "type": "function"
    },
    {
      "inputs": [
        {
          "internalType": "uint256",
          "name": "planId",
          "type": "uint256"
        }
      ],
      "name": "enablePlan",
      "outputs": [],
      "stateMutability": "nonpayable",
      "type": "function"
    },
    {
      "inputs": [
        {
          "internalType": "uint256",
          "name": "tokenId",
          "type": "uint256"
        }
      ],
      "name": "getApproved",
      "outputs": [
        {
          "internalType": "address",
          "name": "",
          "type": "address"
        }
      ],
      "stateMutability": "view",
      "type": "function"
    },
    {
      "inputs": [
        {
          "internalType": "uint256",
          "name": "depositId",
          "type": "uint256"
        }
      ],
      "name": "interestClaimant",
      "outputs": [
        {
          "internalType": "address",
          "name": "claimant",
          "type": "address"
        }
      ],
      "stateMutability": "view",
      "type": "function"
    },
    {
      "inputs": [
        {
          "internalType": "address",
          "name": "owner",
          "type": "address"
        },
        {
          "internalType": "address",
          "name": "operator",
          "type": "address"
        }
      ],
      "name": "isApprovedForAll",
      "outputs": [
        {
          "internalType": "bool",
          "name": "",
          "type": "bool"
        }
      ],
      "stateMutability": "view",
      "type": "function"
    },
    {
      "inputs": [],
      "name": "lockMetadata",
      "outputs": [],
      "stateMutability": "nonpayable",
      "type": "function"
    },
    {
      "inputs": [],
      "name": "metadataImageURI",
      "outputs": [
        {
          "internalType": "string",
          "name": "",
          "type": "string"
        }
      ],
      "stateMutability": "view",
      "type": "function"
    },
    {
      "inputs": [],
      "name": "metadataLocked",
      "outputs": [
        {
          "internalType": "bool",
          "name": "",
          "type": "bool"
        }
      ],
      "stateMutability": "view",
      "type": "function"
    },
    {
      "inputs": [],
      "name": "name",
      "outputs": [
        {
          "internalType": "string",
          "name": "",
          "type": "string"
        }
      ],
      "stateMutability": "view",
      "type": "function"
    },
    {
      "inputs": [],
      "name": "nextDepositId",
      "outputs": [
        {
          "internalType": "uint256",
          "name": "",
          "type": "uint256"
        }
      ],
      "stateMutability": "view",
      "type": "function"
    },
    {
      "inputs": [],
      "name": "nextPlanId",
      "outputs": [
        {
          "internalType": "uint256",
          "name": "",
          "type": "uint256"
        }
      ],
      "stateMutability": "view",
      "type": "function"
    },
    {
      "inputs": [
        {
          "internalType": "uint256",
          "name": "planId",
          "type": "uint256"
        },
        {
          "internalType": "uint256",
          "name": "amount",
          "type": "uint256"
        }
      ],
      "name": "openDeposit",
      "outputs": [],
      "stateMutability": "nonpayable",
      "type": "function"
    },
    {
      "inputs": [],
      "name": "owner",
      "outputs": [
        {
          "internalType": "address",
          "name": "",
          "type": "address"
        }
      ],
      "stateMutability": "view",
      "type": "function"
    },
    {
      "inputs": [
        {
          "internalType": "uint256",
          "name": "tokenId",
          "type": "uint256"
        }
      ],
      "name": "ownerOf",
      "outputs": [
        {
          "internalType": "address",
          "name": "",
          "type": "address"
        }
      ],
      "stateMutability": "view",
      "type": "function"
    },
    {
      "inputs": [],
      "name": "pause",
      "outputs": [],
      "stateMutability": "nonpayable",
      "type": "function"
    },
    {
      "inputs": [],
      "name": "paused",
      "outputs": [
        {
          "internalType": "bool",
          "name": "",
          "type": "bool"
        }
      ],
      "stateMutability": "view",
      "type": "function"
    },
    {
      "inputs": [
        {
          "internalType": "uint256",
          "name": "depositId",
          "type": "uint256"
        }
      ],
      "name": "previewMaturitySettlement",
      "outputs": [
        {
          "internalType": "uint256",
          "name": "principal",
          "type": "uint256"
        },
        {
          "internalType": "uint256",
          "name": "interest",
          "type": "uint256"
        },
        {
          "internalType": "bool",
          "name": "canPayInterest",
          "type": "bool"
        }
      ],
      "stateMutability": "view",
      "type": "function"
    },
    {
      "inputs": [
        {
          "internalType": "uint256",
          "name": "depositId",
          "type": "uint256"
        },
        {
          "internalType": "uint256",
          "name": "newPlanId",
          "type": "uint256"
        }
      ],
      "name": "renewDeposit",
      "outputs": [],
      "stateMutability": "nonpayable",
      "type": "function"
    },
    {
      "inputs": [],
      "name": "renounceOwnership",
      "outputs": [],
      "stateMutability": "nonpayable",
      "type": "function"
    },
    {
      "inputs": [
        {
          "internalType": "address",
          "name": "from",
          "type": "address"
        },
        {
          "internalType": "address",
          "name": "to",
          "type": "address"
        },
        {
          "internalType": "uint256",
          "name": "tokenId",
          "type": "uint256"
        }
      ],
      "name": "safeTransferFrom",
      "outputs": [],
      "stateMutability": "nonpayable",
      "type": "function"
    },
    {
      "inputs": [
        {
          "internalType": "address",
          "name": "from",
          "type": "address"
        },
        {
          "internalType": "address",
          "name": "to",
          "type": "address"
        },
        {
          "internalType": "uint256",
          "name": "tokenId",
          "type": "uint256"
        },
        {
          "internalType": "bytes",
          "name": "data",
          "type": "bytes"
        }
      ],
      "name": "safeTransferFrom",
      "outputs": [],
      "stateMutability": "nonpayable",
      "type": "function"
    },
    {
      "inputs": [
        {
          "internalType": "uint256",
          "name": "planId",
          "type": "uint256"
        }
      ],
      "name": "savingPlans",
      "outputs": [
        {
          "internalType": "uint256",
          "name": "minDeposit",
          "type": "uint256"
        },
        {
          "internalType": "uint256",
          "name": "maxDeposit",
          "type": "uint256"
        },
        {
          "internalType": "uint64",
          "name": "tenorDays",
          "type": "uint64"
        },
        {
          "internalType": "uint16",
          "name": "aprBps",
          "type": "uint16"
        },
        {
          "internalType": "uint16",
          "name": "earlyWithdrawPenaltyBps",
          "type": "uint16"
        },
        {
          "internalType": "bool",
          "name": "enabled",
          "type": "bool"
        }
      ],
      "stateMutability": "view",
      "type": "function"
    },
    {
      "inputs": [
        {
          "internalType": "address",
          "name": "operator",
          "type": "address"
        },
        {
          "internalType": "bool",
          "name": "approved",
          "type": "bool"
        }
      ],
      "name": "setApprovalForAll",
      "outputs": [],
      "stateMutability": "nonpayable",
      "type": "function"
    },
    {
      "inputs": [
        {
          "internalType": "address",
          "name": "newMarketplace",
          "type": "address"
        }
      ],
      "name": "setDepositMarketplace",
      "outputs": [],
      "stateMutability": "nonpayable",
      "type": "function"
    },
    {
      "inputs": [
        {
          "internalType": "string",
          "name": "newImageURI",
          "type": "string"
        }
      ],
      "name": "setMetadataImageURI",
      "outputs": [],
      "stateMutability": "nonpayable",
      "type": "function"
    },
    {
      "inputs": [
        {
          "internalType": "bytes4",
          "name": "interfaceId",
          "type": "bytes4"
        }
      ],
      "name": "supportsInterface",
      "outputs": [
        {
          "internalType": "bool",
          "name": "",
          "type": "bool"
        }
      ],
      "stateMutability": "view",
      "type": "function"
    },
    {
      "inputs": [],
      "name": "symbol",
      "outputs": [
        {
          "internalType": "string",
          "name": "",
          "type": "string"
        }
      ],
      "stateMutability": "view",
      "type": "function"
    },
    {
      "inputs": [],
      "name": "token",
      "outputs": [
        {
          "internalType": "contract IERC20",
          "name": "",
          "type": "address"
        }
      ],
      "stateMutability": "view",
      "type": "function"
    },
    {
      "inputs": [
        {
          "internalType": "uint256",
          "name": "tokenId",
          "type": "uint256"
        }
      ],
      "name": "tokenURI",
      "outputs": [
        {
          "internalType": "string",
          "name": "",
          "type": "string"
        }
      ],
      "stateMutability": "view",
      "type": "function"
    },
    {
      "inputs": [
        {
          "internalType": "address",
          "name": "from",
          "type": "address"
        },
        {
          "internalType": "address",
          "name": "to",
          "type": "address"
        },
        {
          "internalType": "uint256",
          "name": "tokenId",
          "type": "uint256"
        }
      ],
      "name": "transferFrom",
      "outputs": [],
      "stateMutability": "nonpayable",
      "type": "function"
    },
    {
      "inputs": [
        {
          "internalType": "address",
          "name": "newOwner",
          "type": "address"
        }
      ],
      "name": "transferOwnership",
      "outputs": [],
      "stateMutability": "nonpayable",
      "type": "function"
    },
    {
      "inputs": [
        {
          "internalType": "uint256",
          "name": "depositId",
          "type": "uint256"
        }
      ],
      "name": "unpaidInterest",
      "outputs": [
        {
          "internalType": "uint256",
          "name": "amount",
          "type": "uint256"
        }
      ],
      "stateMutability": "view",
      "type": "function"
    },
    {
      "inputs": [],
      "name": "unpause",
      "outputs": [],
      "stateMutability": "nonpayable",
      "type": "function"
    },
    {
      "inputs": [
        {
          "internalType": "uint256",
          "name": "planId",
          "type": "uint256"
        },
        {
          "internalType": "uint16",
          "name": "newAprBps",
          "type": "uint16"
        }
      ],
      "name": "updatePlan",
      "outputs": [],
      "stateMutability": "nonpayable",
      "type": "function"
    },
    {
      "inputs": [],
      "name": "vaultManager",
      "outputs": [
        {
          "internalType": "contract IVaultManager",
          "name": "",
          "type": "address"
        }
      ],
      "stateMutability": "view",
      "type": "function"
    },
    {
      "inputs": [
        {
          "internalType": "uint256",
          "name": "depositId",
          "type": "uint256"
        }
      ],
      "name": "withdrawAtMaturity",
      "outputs": [],
      "stateMutability": "nonpayable",
      "type": "function"
    }
  ],
  "transactionHash": "0x523bce936640eb3cadb357d371df2017827c20c1c546f43b688d632b0e72e1a8",
  "args": [
    "0x3Cb2AE0859d0B2aFe20d5f16Bf9e2E35A1cb2Cb8",
    "0x68749ba818599EB6eE66fEA1Aa526C60411C78aF"
  ],
  "numDeployments": 7,
  "solcInputHash": "28a30569fa5d3a9c240dfbe56a7f05c3",
  "bytecode": "0x60c060405234610446576142da6040813803918261001c8161044a565b9384928339810103126104465761003e60206100378361046f565b920161046f565b610048604061044a565b91601383527f4465466920536176696e67204465706f73697400000000000000000000000000602084015261007d604061044a565b60038152621114d160ea1b602082015283519092906001600160401b03811161035a575f54600181811c9116801561043c575b602082101461033c57601f81116103da575b50602094601f8211600114610379579481929394955f9261036e575b50508160011b915f199060031b1c1916175f555b82516001600160401b03811161035a57600154600181811c91168015610350575b602082101461033c57601f81116102d9575b506020601f821160011461027657819293945f9261026b575b50508160011b915f199060031b1c1916176001555b33156102585760068054336001600160a01b0319821681179092556040519391906001600160a01b03167f8be0079c531659141344cd1fd0a4f28419497f9722a3daafe3b4186f6b6457e05f80a36001600160a01b031680158015610247575b610238576080526001600160a01b031660a052613e56908161048482396080518181816102fb015281816107530152818161169e01528181611ff80152612074015260a0518181816107c8015281816111df0152818161128e01528181611c6b01528181611fc2015281816122a7015281816124b4015281816127ed01526129000152f35b63e6c4247b60e01b5f5260045ffd5b506001600160a01b038216156101b3565b631e4fbdf760e01b5f525f60045260245ffd5b015190505f8061013e565b601f1982169060015f52805f20915f5b8181106102c1575095836001959697106102a9575b505050811b01600155610153565b01515f1960f88460031b161c191690555f808061029b565b9192602060018192868b015181550194019201610286565b60015f527fb10e2d527612073b26eecdfd717e6a320cf44b4afac2b0732d9fcbe2b7fa0cf6601f830160051c81019160208410610332575b601f0160051c01905b8181106103275750610125565b5f815560010161031a565b9091508190610311565b634e487b7160e01b5f52602260045260245ffd5b90607f1690610113565b634e487b7160e01b5f52604160045260245ffd5b015190505f806100de565b601f198216955f8052805f20915f5b8881106103c2575083600195969798106103aa575b505050811b015f556100f2565b01515f1960f88460031b161c191690555f808061039d565b91926020600181928685015181550194019201610388565b5f80527f290decd9548b62a8d60345a988386fc84ba6bc95484008f6362f93160ef3e563601f830160051c81019160208410610432575b601f0160051c01905b81811061042757506100c2565b5f815560010161041a565b9091508190610411565b90607f16906100b0565b5f80fd5b6040519190601f01601f191682016001600160401b0381118382101761035a57604052565b51906001600160a01b03821682036104465756fe6080806040526004361015610012575f80fd5b5f905f3560e01c90816301ffc9a714612c1d5750806306fdde0314612b56578063081812fc14612b1957806308cff7e214612a6f578063095ea7b3146129835780630a55ba551461262d57806323b872dd146126155780632eb375ea1461245d5780633d1f41c4146123c15780633f4ba83a1461233a57806342842e0e1461230a5780635b6db3b3146121fb5780635c975abb146121d55780635e94d45d146121ae5780635f8d26b2146121905780636352211e146121605780636933af62146120ec57806369d2ceb1146120c65780636b5b969614611e8f5780636fc4e2d914611dd457806370a0823114611d69578063715018a614611d0e5780638070a4bd14611cf05780638456cb5914611c8f5780638a4adf2414611c4b5780638da5cb5b14611c245780638ebc356a14611c065780638f5163b81461196d578063934390031461195157806395d89b411461186e57806395da59b41461183b578063989bdbb6146117e85780639cacb6a4146115a3578063a22cb465146114d0578063a742c51b146114a6578063b02c43d014611404578063b330db28146113e5578063b88d4fde1461134a578063b9855d1d14611043578063c87b56dd146108c7578063d68b395214610687578063e1a452181461066a578063e985e9c514610617578063f2fde38b14610577578063f55f404f1461031f578063fc0c546a146102db5763fc1633e914610223575f80fd5b346102d85760403660031901126102d85760043561023f612ed1565b61024761319b565b61ffff81169061271082116102c9577f790357788cb8795a3307f9069e79049cdebe64f06c7a948c8730e0e22b1269069160ff6040926102b4600261028b886131db565b0191829069ffff000000000000000082549160401b169069ffff00000000000000001916179055565b5460601c16825191825215156020820152a280f35b600484633b61151160e11b8152fd5b80fd5b50346102d857806003193601126102d85760206040516001600160a01b037f0000000000000000000000000000000000000000000000000000000000000000168152f35b50346102d85760c03660031901126102d8576004359067ffffffffffffffff82168092036102d85761034f612ed1565b91604435926064356084359061ffff82168092036105735760a4359283151580940361056f5761037d61319b565b84156105475761ffff169561271087116105385761271083116105105781151580610507575b6104df5760095496879660018801600955604051906103c182612dac565b838252602080830186815260408085018b815260608601878152608087018b815260a088018d81528f8852600b9096529583902096518755925160018701555160029095018054925169ffffffffffffffffffff1990931667ffffffffffffffff9096169590951791901b69ffff000000000000000016178355905182549060501b6bffff0000000000000000000016906bffff00000000000000000000191617825551151581549060601b6cff00000000000000000000000016906cff0000000000000000000000001916179055604051958652602086015260408501526060840152608083015260a082015260c07fdae0d8f0c9968159752fe505ab8979687ccc301a0228950636c1ee0e31590c0d91a2604051908152602090f35b6004867ff9064283000000000000000000000000000000000000000000000000000000008152fd5b508181116103a3565b6004867f458eae5b000000000000000000000000000000000000000000000000000000008152fd5b600486633b61151160e11b8152fd5b6004867f82d46425000000000000000000000000000000000000000000000000000000008152fd5b8580fd5b8480fd5b50346102d85760203660031901126102d8576001600160a01b03610599612cf8565b6105a161319b565b1680156105eb576001600160a01b03600654826001600160a01b0319821617600655167f8be0079c531659141344cd1fd0a4f28419497f9722a3daafe3b4186f6b6457e08380a380f35b6024827f1e4fbdf700000000000000000000000000000000000000000000000000000000815280600452fd5b50346102d85760403660031901126102d8576001600160a01b03604061063b612cf8565b9282610645612d0e565b9416815260056020522091165f52602052602060ff60405f2054166040519015158152f35b50346102d857806003193601126102d85760206040516127108152f35b50346102d85760203660031901126102d8576004356106a4613225565b6106ad8161325c565b90336001600160a01b036106c083613168565b16036108b85760028201805467ffffffffffffffff8160401c16938442106108a95764496cebb8009161071961ffff8061070d600161071e9601549967ffffffffffffffff861690612ee2565b9360801c161687612f14565b612f14565b0484917402000000000000000000000000000000000000000060ff60a01b1982541617905561074c836136f0565b61077784337f00000000000000000000000000000000000000000000000000000000000000006137d3565b806107be575b5060405192835260208301528260408301528260608301527faa89df3586dea99a6ff4ea198a4e29eff11ad007f8b23a206cbe92329e1459d760803393a380f35b6001600160a01b037f000000000000000000000000000000000000000000000000000000000000000016803b1561056f57604051630dbb11df60e11b81523360048201526024810183905290869081908390604490829084905af19182610894575b505061088d57828552600d602052806040862055828552600e602052604085206001600160a01b0333166001600160a01b0319825416179055604051908152827fbdeb895a2cb1ecb7752599547f72256ae8baa87d1f66623d727632691a8213d060203393a35b5f61077d565b9050610887565b8161089e91612ddc565b61056f57855f610820565b60048663111c440960e01b8152fd5b60048363c74ecfa160e01b8152fd5b50346102d85760203660031901126102d857602090600435906108e982613168565b50818152600c83526108fe604082209261398e565b600260018401549361098960056001610926620f424061091f818b0461398e565b9906613b12565b896040519a8b92818085019c8d815192839201905e840190601760f91b83830152805192839101602183015e01017f2055534443000000000000000000000000000000000000000000000000000000838201520301601a19810189520187612ddc565b015492602061ffff8560801c16610a4960016109aa6064808506940461398e565b92600a8110156110285781856109d96040516109c7604082612ddc565b838152600360fc1b838201529361398e565b81604051988995818088019a8051918291018c5e870190601760f91b83830152805192839101602183015e0101908382018c8152815193849201905e01017f2500000000000000000000000000000000000000000000000000000000000000815203601e19810185520183612ddc565b610a5f67ffffffffffffffff8760401c1661398e565b91604051610a6c81612dac565b6040978851610a7b8a82612ddc565b600481527f4e6f6e6500000000000000000000000000000000000000000000000000000000602082015282528851610ab38a82612ddc565b600681527f4163746976650000000000000000000000000000000000000000000000000000602082015260208301528851610aee8a82612ddc565b600981527f57697468647261776e00000000000000000000000000000000000000000000006020820152898301528851610b288a82612ddc565b600f81527f4561726c792057697468647261776e0000000000000000000000000000000000602082015260608301528851610b638a82612ddc565b600e81527f4d616e75616c2052656e65776564000000000000000000000000000000000000602082015260808301528851610b9e8a82612ddc565b600c81527f4175746f2052656e657765640000000000000000000000000000000000000000602082015260a0830152600660ff8260a01c16101561101457611fe090609b1c1601519360208851967f7b00000000000000000000000000000000000000000000000000000000000000828901527f226e616d65223a224465466920536176696e67204465706f73697420230000006021890152805191829101603e89015e8601987f222c226465736372697074696f6e223a22536f756c626f756e64204465466920603e8b01527f7465726d2d6465706f7369742063657274696669636174652e205472616e7366605e8b01527f657261626c65206f6e6c79207468726f75676820746865206f6666696369616c607e8b01527f206d61726b6574706c6163652e222c0000000000000000000000000000000000609e8b01527f22696d616765223a22000000000000000000000000000000000000000000000060ad8b01528799600854610d1181612d74565b9060018116908115610ff15750600114610f98575b505097602387602f6020603d9981610f949f819f9b889f9c610f829f9b9c610f379d610f329c856033947f222c2261747472696275746573223a5b000000000000000000000000000000008998527f7b2274726169745f74797065223a225072696e636970616c222c2276616c756560108301527f223a22000000000000000000000000000000000000000000000000000000000060308301525180928683015e019062089f4b60ea1b848301527f7b2274726169745f74797065223a22415052222c2276616c7565223a220000006036830152518092605383015e01019062089f4b60ea1b838301527f7b2274726169745f74797065223a224d617475726974792054696d657374616d898301527f70222c2276616c7565223a2200000000000000000000000000000000000000006043830152805192839101604f83015e01019062089f4b60ea1b848301527f7b2274726169745f74797065223a22537461747573222c2276616c7565223a226032830152805192839101605283015e010162089f4b60ea1b838201527f7b2274726169745f74797065223a225472616e7366657220506f6c696379222c60268201527f2276616c7565223a224d61726b6574706c616365206f6e6c79227d000000000060468201527f5d7d0000000000000000000000000000000000000000000000000000000000006061820152030189810184520182612ddc565b613cd3565b9084519586927f646174613a6170706c69636174696f6e2f6a736f6e3b6261736536342c000000828501528051918291018585015e820190838201520301601f198101845283612ddc565b51918291602083526020830190612cd4565b0390f35b60088a52909a50887ff3f7a9fe364faab93b216da50a3214154f22a0a2b415b23a84c8169e8b636ee35b828210610fda57505090990160b60198602387610d26565b805460b6838f010152602090910190600101610fc2565b60ff191660b680850191909152821515909202909201019a506023905087610d26565b602488634e487b7160e01b81526021600452fd5b81856109d960405161103a8382612ddc565b8b81529361398e565b50346102d85760203660031901126102d85760043590611061613225565b61106a8261325c565b60028101805467ffffffffffffffff8160401c16926203f480840180851161133657421061130e5780549160ff60026110a2856131db565b015460601c16156112ff5760016110b888613168565b920154936110d961ffff8360801c169667ffffffffffffffff841690612ee2565b9464496cebb8006110f28761071961ffff8b1685612f14565b049687151596878061126a575b61125b579467ffffffffffffffff8a9b95817f5037bdc32de9dfc6ddfa61d3eb09fb262f53f9ee85255474c76bb939fdddc2a596611164878f9c9b8f6001600160a01b03998f8f929061119b9461115c60e09f9361ffff94612f07565b9788916132ef565b9b819a848e96939550507405000000000000000000000000000000000000000060ff60a01b1982541617905560901c16948d613342565b9b896040519e8f905050508d5260208d01528d60408d015260608c01521660808a01521660a0880152600160c08801521694a46111d55750f35b6001600160a01b037f000000000000000000000000000000000000000000000000000000000000000016803b1561125757604051630dbb11df60e11b8152306004820152602481019290925282908290604490829084905af1801561124c5761123b5750f35b8161124591612ddc565b6102d85780f35b6040513d84823e3d90fd5b5050fd5b60048a63178234e560e11b8152fd5b5060405163e3ff35d560e01b81528960048201526020816024816001600160a01b037f0000000000000000000000000000000000000000000000000000000000000000165afa9081156112f4578b916112c5575b50156110ff565b6112e7915060203d6020116112ed575b6112df8183612ddc565b810190612eef565b5f6112be565b503d6112d5565b6040513d8d823e3d90fd5b60048663327352ed60e01b8152fd5b6004857f2850e4fb000000000000000000000000000000000000000000000000000000008152fd5b602486634e487b7160e01b81526011600452fd5b50346102d85760803660031901126102d857611364612cf8565b61136c612d0e565b6044356064359167ffffffffffffffff83116105735736602384011215610573578260040135938561139d86612eb5565b946113ab6040519687612ddc565b86865236602488830101116113e157866113de9760246020930183890137860101526113d8838383612f27565b3361386a565b80f35b5080fd5b50346102d857806003193601126102d85760206040516301e133808152f35b50346102d85760203660031901126102d8576004358152600c6020526040812080549061ffff6002600183015492015460ff8160a01c1692604051948552602085015267ffffffffffffffff8116604085015267ffffffffffffffff8160401c166060850152818160801c16608085015260901c1660a083015260068110156114925760e0925060c0820152f35b602483634e487b7160e01b81526021600452fd5b50346102d85760203660031901126102d85760406020916004358152600d83522054604051908152f35b50346102d85760403660031901126102d8576114ea612cf8565b6024359081151580920361159f57331561158c576001600160a01b031690811561156057338352600560205260408320825f5260205260405f2060ff1981541660ff83161790556040519081527f17307eab39ab6107e8899845ad3d59bd9653f200f220920489ca2b5937696c3160203392a380f35b602483837f5b08ba18000000000000000000000000000000000000000000000000000000008252600452fd5b60248363a9fbf51f60e01b815280600452fd5b8280fd5b50346102d8576115b236612d24565b906115bb613225565b6115c4816131db565b60028101549060ff8260601c16156117d95783156117b157600181549101549080151590816117a7575b5061177f578015159081611775575b5061174d5767ffffffffffffffff811661ffff808360401c169260501c1690620151808102908082046201518014901517156113365761163c906132ef565b91909267ffffffffffffffff611657838386888b8b33613342565b938160405196898852166020870152166040850152606084015260808301527f7f6b5a10f69a18a69c78e0c6a8ba11bbc341354056fb614e6a58e1656f2cf2f960a03393a47f000000000000000000000000000000000000000000000000000000000000000090604051907f23b872dd000000000000000000000000000000000000000000000000000000008452336004523060245260445260208360648180865af190600184511482161561172d575b5015611712575080f35b635274afe760e01b82526001600160a01b0316600452602490fd5b60018215166117455750813b15153d1516165f611708565b3d84823e3d90fd5b6004847fea5d71ed000000000000000000000000000000000000000000000000000000008152fd5b905083115f6115fd565b6004857f2fcd1a0f000000000000000000000000000000000000000000000000000000008152fd5b905084105f6115ee565b6004857f2c5211c6000000000000000000000000000000000000000000000000000000008152fd5b60048563327352ed60e01b8152fd5b50346102d857806003193601126102d85761180161319b565b600160a01b60ff60a01b1960075416176007557f69b339d1863c69096a327381cd2db8c55d4bfb8036b387687b63d338b75ac4748180a180f35b50346102d85760203660031901126102d8576001600160a01b0360406020926004358152600e8452205416604051908152f35b50346102d857806003193601126102d85760405190806001549061189182612d74565b808552916001811690811561192a57506001146118cd575b610f94846118b981860382612ddc565b604051918291602083526020830190612cd4565b600181527fb10e2d527612073b26eecdfd717e6a320cf44b4afac2b0732d9fcbe2b7fa0cf6939250905b808210611910575090915081016020016118b9826118a9565b9192600181602092548385880101520191019092916118f7565b60ff191660208087019190915292151560051b850190920192506118b991508390506118a9565b50346102d857806003193601126102d857610f946118b9612dfe565b50346102d85760203660031901126102d85760043567ffffffffffffffff81116113e157366023820112156113e15780600401359067ffffffffffffffff821161159f57366024838301011161159f576119c561319b565b60ff60075460a01c16611bde576119da612dfe565b916119e6600854612d74565b601f8111611b3d575b5083601f8211600114611a8e5792611a5992826020937f0748cdbd573c525219dbc1fe0f2c2f3567322033e41ff14eb835ca41fd7f0995968891611a80575b508160011b905f198360031b1c1916176008555b806024604051968795604087526040870190612cd4565b938585038787015282855201858401378181018401879052601f01601f191601030190a180f35b60249150830101355f611a2e565b600885527ff3f7a9fe364faab93b216da50a3214154f22a0a2b415b23a84c8169e8b636ee390601f198316865b818110611b225750927f0748cdbd573c525219dbc1fe0f2c2f3567322033e41ff14eb835ca41fd7f09959592611a5995928260209610611b06575b5050600181811b01600855611a42565b8301602401355f19600384901b60f8161c191690555f80611af6565b91926020600181926024878a01013581550194019201611abb565b60088552601f820160051c7ff3f7a9fe364faab93b216da50a3214154f22a0a2b415b23a84c8169e8b636ee3019060208310611bb6575b601f0160051c7ff3f7a9fe364faab93b216da50a3214154f22a0a2b415b23a84c8169e8b636ee301905b818110611bab57506119ef565b858155600101611b9e565b7ff3f7a9fe364faab93b216da50a3214154f22a0a2b415b23a84c8169e8b636ee39150611b74565b6004837f27de4862000000000000000000000000000000000000000000000000000000008152fd5b50346102d857806003193601126102d85760206040516203f4808152f35b50346102d857806003193601126102d85760206001600160a01b0360065416604051908152f35b50346102d857806003193601126102d85760206040516001600160a01b037f0000000000000000000000000000000000000000000000000000000000000000168152f35b50346102d857806003193601126102d857611ca861319b565b611cb0613225565b600160a01b60ff60a01b1960065416176006557f62e78cea01bee320cd4e420270b5ea74000d11b0c9f74754ebdbfc544b05a2586020604051338152a180f35b50346102d857806003193601126102d8576020600a54604051908152f35b50346102d857806003193601126102d857611d2761319b565b806001600160a01b036006546001600160a01b03198116600655167f8be0079c531659141344cd1fd0a4f28419497f9722a3daafe3b4186f6b6457e08280a380f35b50346102d85760203660031901126102d8576001600160a01b03611d8b612cf8565b168015611da8578160409160209352600383522054604051908152f35b6024827f89c62b6400000000000000000000000000000000000000000000000000000000815280600452fd5b50346102d85760203660031901126102d857600435611df161319b565b6002611dfc826131db565b01805460ff8160601c16611e67576cff00000000000000000000000019166c0100000000000000000000000017908190556040805191811c61ffff168252600160208301527f790357788cb8795a3307f9069e79049cdebe64f06c7a948c8730e0e22b12690691a280f35b6004847ff9c614b3000000000000000000000000000000000000000000000000000000008152fd5b50346102d85760203660031901126102d857600435611eac613225565b611eb58161325c565b611ebe82613168565b6001600160a01b03339116036108b857600281019081549067ffffffffffffffff8260401c1642101561209e57611f0461ffff60016127109301549360901c1683612f14565b0492611f108483612ee2565b927403000000000000000000000000000000000000000060ff60a01b19825416179055611f3c816136f0565b604051918252846020830152836040830152600160608301527faa89df3586dea99a6ff4ea198a4e29eff11ad007f8b23a206cbe92329e1459d760803393a38061206d575b5080611f8b575080f35b604051907fb3f006740000000000000000000000000000000000000000000000000000000082526020826004816001600160a01b037f0000000000000000000000000000000000000000000000000000000000000000165afa801561206257839061201c575b6113de92507f00000000000000000000000000000000000000000000000000000000000000006137d3565b50906020813d60201161205a575b8161203760209383612ddc565b8101031261159f5751906001600160a01b038216820361159f576113de91611ff1565b3d915061202a565b6040513d85823e3d90fd5b61209890337f00000000000000000000000000000000000000000000000000000000000000006137d3565b5f611f81565b6004857fb453c220000000000000000000000000000000000000000000000000000000008152fd5b50346102d857806003193601126102d857602060ff60075460a01c166040519015158152f35b50346102d85760203660031901126102d857604060c0916004358152600b6020522060ff8154916002600182015491015490604051938452602084015267ffffffffffffffff8116604084015261ffff8160401c16606084015261ffff8160501c16608084015260601c16151560a0820152f35b50346102d85760203660031901126102d857602061217f600435613168565b6001600160a01b0360405191168152f35b50346102d857806003193601126102d8576020600954604051908152f35b50346102d857806003193601126102d85760206001600160a01b0360075416604051908152f35b50346102d857806003193601126102d857602060ff60065460a01c166040519015158152f35b50346102d85760203660031901126102d85761221860043561325c565b64496cebb80061225f6002600184015493015461071961ffff8061225367ffffffffffffffff851667ffffffffffffffff8660401c16612ee2565b9360801c161685612f14565b048015908115612282575b60609350604051928352602083015215156040820152f35b905060405163e3ff35d560e01b81528160048201526020816024816001600160a01b037f0000000000000000000000000000000000000000000000000000000000000000165afa9081156122ff57606094916122e0575b509061226a565b6122f9915060203d6020116112ed576112df8183612ddc565b5f6122d9565b6040513d86823e3d90fd5b50346102d8576113de61231c36612d3a565b906040519261232c602085612ddc565b8584526113d8838383612f27565b50346102d857806003193601126102d85761235361319b565b60065460ff8160a01c16156123995760ff60a01b19166006557f5db9ee0a495bf2e6ff9c91a7834c1ba4fdd244a5e8aa4e537bd38aeae4b073aa6020604051338152a180f35b6004827f8dfc202b000000000000000000000000000000000000000000000000000000008152fd5b50346102d85760203660031901126102d8576001600160a01b036123e3612cf8565b6123eb61319b565b168015612435576001600160a01b03600754826001600160a01b0319821617600755167f471cd05a632b9e46968d60a591cc7cf73a0cfb14da46c193b1009388de401b1b8380a380f35b6004827fe6c4247b000000000000000000000000000000000000000000000000000000008152fd5b50346102d85760203660031901126102d8576004359061247b613225565b818152600d602052604081205480156125ed57828252600e6020526001600160a01b0360408320541633036125c5576001600160a01b037f00000000000000000000000000000000000000000000000000000000000000001660405163e3ff35d560e01b8152826004820152602081602481855afa9081156122ff5784916125a6575b5015612597578383948452600d602052836040812055808452600e602052604084206001600160a01b03198154169055604051908382527f5bd56c18bcf5c328fa6875f4ee4b28fe6f3188c3805a320276bc47aa87b4de0d60203393a3803b1561125757604051630dbb11df60e11b8152336004820152602481019290925282908290604490829084905af1801561124c5761123b5750f35b60048363178234e560e11b8152fd5b6125bf915060203d6020116112ed576112df8183612ddc565b5f6124fe565b6004827f9c8d604e000000000000000000000000000000000000000000000000000000008152fd5b6004827f0fcd484f000000000000000000000000000000000000000000000000000000008152fd5b50346102d8576113de61262736612d3a565b91612f27565b50346128635761263c36612d24565b90612645613225565b61264e8161325c565b9061265881613168565b926001600160a01b03841691338303612974576002840180549567ffffffffffffffff8760401c169384421061296557612691816131db565b91600283019889549860ff8a60601c16156129565764496cebb8009161071961ffff806126d160016126dd9601549c67ffffffffffffffff861690612ee2565b9360801c16168a612f14565b04988915159889806128dc575b6128cd576126f88b89612f07565b9480549081151591826128c3575b5081156128a3575b5061287b5767ffffffffffffffff169162015180830292808404620151801490151715612867577f5037bdc32de9dfc6ddfa61d3eb09fb262f53f9ee85255474c76bb939fdddc2a59560e0956127b167ffffffffffffffff959361277287956132ef565b9690947404000000000000000000000000000000000000000060ff60a01b1982541617905554908685858b61ffff808760501c169660401c1694613342565b9960405196875260208701528c604087015260608601521660808401521660a08201525f60c0820152a46127e3575080f35b6001600160a01b037f000000000000000000000000000000000000000000000000000000000000000016803b1561286357604051630dbb11df60e11b815230600482015260248101929092525f908290604490829084905af180156128585761284a575080f35b61285691505f90612ddc565b005b6040513d5f823e3d90fd5b5f80fd5b634e487b7160e01b5f52601160045260245ffd5b7f9d4fa9e7000000000000000000000000000000000000000000000000000000005f5260045ffd5b600101548015159150816128b9575b505f61270e565b905085115f6128b2565b871091505f612706565b63178234e560e11b5f5260045ffd5b5060405163e3ff35d560e01b81528b60048201526020816024816001600160a01b037f0000000000000000000000000000000000000000000000000000000000000000165afa908115612858575f91612937575b50156126ea565b612950915060203d6020116112ed576112df8183612ddc565b5f612930565b63327352ed60e01b5f5260045ffd5b63111c440960e01b5f5260045ffd5b63c74ecfa160e01b5f5260045ffd5b346128635760403660031901126128635761299c612cf8565b6024356129a881613168565b33151580612a5c575b80612a29575b612a165781906001600160a01b0380851691167f8c5be1e5ebec7d5bd14f71427d1e84f3dd0314c0f7b2291e5b200ac8c7c3b9255f80a45f5260046020526001600160a01b0360405f2091166001600160a01b03198254161790555f80f35b63a9fbf51f60e01b5f523360045260245ffd5b506001600160a01b0381165f52600560205260405f206001600160a01b0333165f5260205260ff60405f205416156129b7565b50336001600160a01b03821614156129b1565b3461286357602036600319011261286357600435612a8b61319b565b6002612a96826131db565b0180549060ff8260601c1615612af1576cff00000000000000000000000019821690556040805191811c61ffff1682525f60208301527f790357788cb8795a3307f9069e79049cdebe64f06c7a948c8730e0e22b12690691a2005b7f412c89ec000000000000000000000000000000000000000000000000000000005f5260045ffd5b3461286357602036600319011261286357600435612b3681613168565b505f52600460205260206001600160a01b0360405f205416604051908152f35b34612863575f366003190112612863576040515f5f54612b7581612d74565b8084529060018116908115612bf95750600114612b9d575b610f94836118b981850382612ddc565b5f8080527f290decd9548b62a8d60345a988386fc84ba6bc95484008f6362f93160ef3e563939250905b808210612bdf575090915081016020016118b9612b8d565b919260018160209254838588010152019101909291612bc7565b60ff191660208086019190915291151560051b840190910191506118b99050612b8d565b3461286357602036600319011261286357600435906001600160e01b0319821680920361286357817f80ac58cd0000000000000000000000000000000000000000000000000000000060209314908115612caa575b8115612c80575b5015158152f35b7f01ffc9a70000000000000000000000000000000000000000000000000000000091501483612c79565b7f5b5e139f0000000000000000000000000000000000000000000000000000000081149150612c72565b805180835260209291819084018484015e5f828201840152601f01601f1916010190565b600435906001600160a01b038216820361286357565b602435906001600160a01b038216820361286357565b6040906003190112612863576004359060243590565b6060906003190112612863576004356001600160a01b038116810361286357906024356001600160a01b0381168103612863579060443590565b90600182811c92168015612da2575b6020831014612d8e57565b634e487b7160e01b5f52602260045260245ffd5b91607f1691612d83565b60c0810190811067ffffffffffffffff821117612dc857604052565b634e487b7160e01b5f52604160045260245ffd5b90601f8019910116810190811067ffffffffffffffff821117612dc857604052565b604051905f8260085491612e1183612d74565b8083529260018116908115612e965750600114612e37575b612e3592500383612ddc565b565b5060085f90815290917ff3f7a9fe364faab93b216da50a3214154f22a0a2b415b23a84c8169e8b636ee35b818310612e7a575050906020612e3592820101612e29565b6020919350806001915483858901015201910190918492612e62565b60209250612e3594915060ff191682840152151560051b820101612e29565b67ffffffffffffffff8111612dc857601f01601f191660200190565b6024359061ffff8216820361286357565b9190820391821161286757565b90816020910312612863575180151581036128635790565b9190820180921161286757565b8181029291811591840414171561286757565b91906001600160a01b0316801561315557815f5260026020526001600160a01b0360405f20541615158061314d575b80613138575b61311057815f5260026020526001600160a01b0360405f2054169282331515928361305b575b6001600160a01b03935085613024575b805f52600360205260405f2060018154019055815f52600260205260405f20816001600160a01b0319825416179055857fddf252ad1be2c89b69c2b068fc378daa952ba7f163c4a11628f55a4df523b3ef5f80a416808303612ff357505050565b7f64283d7b000000000000000000000000000000000000000000000000000000005f5260045260245260445260645ffd5b613043825f52600460205260405f206001600160a01b03198154169055565b855f52600360205260405f205f198154019055612f92565b91929050806130b9575b1561307257828291612f82565b828461308a57637e27328960e01b5f5260045260245ffd5b7f177e802f000000000000000000000000000000000000000000000000000000005f523360045260245260445ffd5b5033841480156130e7575b806130655750825f526004602052336001600160a01b0360405f20541614613065565b50835f52600560205260405f206001600160a01b0333165f5260205260ff60405f2054166130c4565b7f9737d53c000000000000000000000000000000000000000000000000000000005f5260045ffd5b506001600160a01b0360075416331415612f5c565b506001612f56565b633250574960e11b5f525f60045260245ffd5b805f5260026020526001600160a01b0360405f205416908115613189575090565b637e27328960e01b5f5260045260245ffd5b6001600160a01b036006541633036131af57565b7f118cdaa7000000000000000000000000000000000000000000000000000000005f523360045260245ffd5b5f52600b60205260405f209067ffffffffffffffff600283015416156131fd57565b7fabb34a7c000000000000000000000000000000000000000000000000000000005f5260045ffd5b60ff60065460a01c1661323457565b7fd93c0665000000000000000000000000000000000000000000000000000000005f5260045ffd5b5f52600c60205260405f209060ff600283015460a01c1660068110156132db5780156132b3575f190161328b57565b7f6ca34c6b000000000000000000000000000000000000000000000000000000005f5260045ffd5b7f411321ed000000000000000000000000000000000000000000000000000000005f5260045ffd5b634e487b7160e01b5f52602160045260245ffd5b6132f99042612f07565b9067ffffffffffffffff821161331a5767ffffffffffffffff804216921690565b7fa4f3107c000000000000000000000000000000000000000000000000000000005f5260045ffd5b9491929396959096600a549760018901600a556040519060e0820182811067ffffffffffffffff821117612dc85767ffffffffffffffff92839260029260405281526020810197885282604082019916895282606082019516855261ffff608082019716875261ffff60a082019616865260c0810197600189528c5f52600c60205260405f2091518255516001820155019651161667ffffffffffffffff1986541617855551917fffffffffffffffffffffffff000000000000000000000000ffffffffffffffff6fffffffffffffffff000000000000000073ffff00000000000000000000000000000000000071ffff000000000000000000000000000000008854945160801b16945160901b169460401b16911617171782555160068110156132db5760ff60a01b1974ff000000000000000000000000000000000000000083549260a01b169116179055602060405161349e8282612ddc565b5f81526001600160a01b03831692831561315557855f52600283526001600160a01b0360405f2054161515806136e8575b806136d4575b61311057855f52600283526001600160a01b0360405f205416801515908161369e575b855f526003855260405f2060018154019055875f526002855260405f20866001600160a01b03198254161790558786827fddf252ad1be2c89b69c2b068fc378daa952ba7f163c4a11628f55a4df523b3ef5f80a450613672573b61355b57505050565b8161359a9160409694969593955180938192630a85bd0160e11b83523360048401525f6024840152876044840152608060648401526084830190612cd4565b03815f895af15f9181613632575b506135ff575050503d5f146135f7573d906135c282612eb5565b916135d06040519384612ddc565b82523d5f8284013e5b815191826135f45783633250574960e11b5f5260045260245ffd5b01fd5b6060906135d9565b630a85bd0160e11b9193506001600160e01b03199094929416036136205750565b633250574960e11b5f5260045260245ffd5b9091508481813d831161366b575b61364a8183612ddc565b8101031261286357516001600160e01b03198116810361286357905f6135a8565b503d613640565b7f73c6ac6e000000000000000000000000000000000000000000000000000000005f525f60045260245ffd5b6136bd885f52600460205260405f206001600160a01b03198154169055565b805f526003855260405f205f1981540190556134f8565b506001600160a01b036007541615156134d5565b5060016134cf565b805f5260026020526001600160a01b0360405f2054161515806137cc575b806137b8575b61311057805f5260026020526001600160a01b0360405f2054168015908115613781575b825f52600260205260405f206001600160a01b03198154169055825f827fddf252ad1be2c89b69c2b068fc378daa952ba7f163c4a11628f55a4df523b3ef8280a4506131895750565b6137a0835f52600460205260405f206001600160a01b03198154169055565b805f52600360205260405f205f198154019055613738565b506001600160a01b03600754161515613714565b505f61370e565b916001600160a01b03604051927fa9059cbb000000000000000000000000000000000000000000000000000000005f521660045260245260205f60448180865af19060015f5114821615613849575b6040521561382d5750565b6001600160a01b0390635274afe760e01b5f521660045260245ffd5b90600181151661386157823b15153d15161690613822565b503d5f823e3d90fd5b93909293823b61387c575b5050505050565b6138c36001600160a01b0392836020951696846040519788968796630a85bd0160e11b88521660048701521660248501526044840152608060648401526084830190612cd4565b03815f865af15f9181613949575b5061392657503d1561391f573d6138e781612eb5565b906138f56040519283612ddc565b81523d5f602083013e5b8051908161391a5782633250574960e11b5f5260045260245ffd5b602001fd5b60606138ff565b6001600160e01b0319630a85bd0160e11b91160361362057505f80808080613875565b9091506020813d602011613986575b8161396560209383612ddc565b8101031261286357516001600160e01b03198116810361286357905f6138d1565b3d9150613958565b805f917a184f03e93ff9f4daa797ed6e38ed64bf6a1f010000000000000000821015613aea575b806d04ee2d6d415b85acef8100000000600a921015613acf575b662386f26fc10000811015613abb575b6305f5e100811015613aaa575b612710811015613a9b575b6064811015613a8d575b1015613a82575b600a60216001840193613a1a85612eb5565b94613a286040519687612ddc565b808652613a37601f1991612eb5565b013660208701378401015b5f1901917f30313233343536373839616263646566000000000000000000000000000000008282061a8353048015613a7d57600a9091613a42565b505090565b600190910190613a08565b606460029104930192613a01565b612710600491049301926139f7565b6305f5e100600891049301926139ec565b662386f26fc10000601091049301926139df565b6d04ee2d6d415b85acef8100000000602091049301926139cf565b50604091507a184f03e93ff9f4daa797ed6e38ed64bf6a1f01000000000000000081046139b5565b613b1b8161398e565b90620186a0811015613ccf5790816127106020931015613c99576103e8811015613c47576064811015613bf557600a1115613ba4576025613ba1916040519384917f3030303030000000000000000000000000000000000000000000000000000000828401528051918291018484015e81015f838201520301601f198101835282612ddc565b90565b6024613ba1916040519384917f3030303000000000000000000000000000000000000000000000000000000000828401528051918291018484015e81015f838201520301601f198101835282612ddc565b506023613ba1916040519384917f3030300000000000000000000000000000000000000000000000000000000000828401528051918291018484015e81015f838201520301601f198101835282612ddc565b506022613ba1916040519384917f3030000000000000000000000000000000000000000000000000000000000000828401528051918291018484015e81015f838201520301601f198101835282612ddc565b506021613ba191604051938491600360fc1b828401528051918291018484015e81015f838201520301601f198101835282612ddc565b5090565b90815115613e0a578151600281018091116128675760039004908160021b917f3fffffffffffffffffffffffffffffffffffffffffffffffffffffffffffffff81160361286757604051917f4142434445464748494a4b4c4d4e4f505152535455565758595a616263646566601f527f6768696a6b6c6d6e6f707172737475767778797a303132333435363738392b2f603f52602083018480518101602081018051915f82525b808910613dce5750602095969750906003929152510680600114613db957600214613dac575b50808452830101604052565b603d905f1901535f613da0565b50603d90815f1982015360011901535f613da0565b939760036004910198603f8a51818160121c165183538181600c1c16516001840153818160061c16516002840153165160038201530193613d7a565b9050604051613e1a602082612ddc565b5f81529056fea2646970667358221220ce089ec8b5ef9eeb67fdc5f2e4320a5ca7e71f9930cc584512e8550d14b0454264736f6c634300081c0033",
  "devdoc": {
    "details": "Deposit and withdrawal logic is intentionally not implemented yet.",
    "errors": {
      "AlreadyMatured()": [
        {
          "details": "Reverts when an early withdrawal is attempted after maturity."
        }
      ],
      "AmountAboveMaximum()": [
        {
          "details": "Reverts when a deposit amount is above the selected plan maximum."
        }
      ],
      "AmountBelowMinimum()": [
        {
          "details": "Reverts when a deposit amount is below the selected plan minimum."
        }
      ],
      "DepositNotActive()": [
        {
          "details": "Reverts when a deposit is not active."
        }
      ],
      "DepositNotFound()": [
        {
          "details": "Reverts when a deposit id does not exist."
        }
      ],
      "ERC721IncorrectOwner(address,uint256,address)": [
        {
          "details": "Indicates an error related to the ownership over a particular token. Used in transfers.",
          "params": {
            "owner": "Address of the current owner of a token.",
            "sender": "Address whose tokens are being transferred.",
            "tokenId": "Identifier number of a token."
          }
        }
      ],
      "ERC721InsufficientApproval(address,uint256)": [
        {
          "details": "Indicates a failure with the `operator`’s approval. Used in transfers.",
          "params": {
            "operator": "Address that may be allowed to operate on tokens without being their owner.",
            "tokenId": "Identifier number of a token."
          }
        }
      ],
      "ERC721InvalidApprover(address)": [
        {
          "details": "Indicates a failure with the `approver` of a token to be approved. Used in approvals.",
          "params": {
            "approver": "Address initiating an approval operation."
          }
        }
      ],
      "ERC721InvalidOperator(address)": [
        {
          "details": "Indicates a failure with the `operator` to be approved. Used in approvals.",
          "params": {
            "operator": "Address that may be allowed to operate on tokens without being their owner."
          }
        }
      ],
      "ERC721InvalidOwner(address)": [
        {
          "details": "Indicates that an address can't be an owner. For example, `address(0)` is a forbidden owner in ERC-721. Used in balance queries.",
          "params": {
            "owner": "Address of the current owner of a token."
          }
        }
      ],
      "ERC721InvalidReceiver(address)": [
        {
          "details": "Indicates a failure with the token `receiver`. Used in transfers.",
          "params": {
            "receiver": "Address to which tokens are being transferred."
          }
        }
      ],
      "ERC721InvalidSender(address)": [
        {
          "details": "Indicates a failure with the token `sender`. Used in transfers.",
          "params": {
            "sender": "Address whose tokens are being transferred."
          }
        }
      ],
      "ERC721NonexistentToken(uint256)": [
        {
          "details": "Indicates a `tokenId` whose `owner` is the zero address.",
          "params": {
            "tokenId": "Identifier number of a token."
          }
        }
      ],
      "EnforcedPause()": [
        {
          "details": "The operation failed because the contract is paused."
        }
      ],
      "ExpectedPause()": [
        {
          "details": "The operation failed because the contract is not paused."
        }
      ],
      "GracePeriodNotEnded()": [
        {
          "details": "Reverts when auto-renewal is attempted before the grace period ends."
        }
      ],
      "InterestUnavailable()": [
        {
          "details": "Reverts when a renewal needs interest liquidity that the vault cannot currently pay."
        }
      ],
      "InvalidAddress()": [
        {
          "details": "Reverts when a constructor address is zero."
        }
      ],
      "InvalidAmount()": [
        {
          "details": "Reverts when a deposit amount boundary is zero or invalid."
        }
      ],
      "InvalidApr()": [
        {
          "details": "Reverts when APR exceeds the basis-points denominator."
        }
      ],
      "InvalidPenalty()": [
        {
          "details": "Reverts when early withdrawal penalty exceeds the basis-points denominator."
        }
      ],
      "InvalidPlanRange()": [
        {
          "details": "Reverts when max deposit is lower than min deposit."
        }
      ],
      "InvalidTenor()": [
        {
          "details": "Reverts when a tenor value is zero."
        }
      ],
      "MaturityOverflow()": [
        {
          "details": "Reverts when a maturity timestamp cannot fit in deposit storage."
        }
      ],
      "MetadataLocked()": [
        {
          "details": "Reverts when trying to update metadata after it has been permanently locked."
        }
      ],
      "NewPrincipalOutOfRange()": [
        {
          "details": "Reverts when compounded renewal principal does not fit the target plan limits."
        }
      ],
      "NoUnpaidInterest()": [
        {
          "details": "Reverts when a deposit has no unpaid interest to claim."
        }
      ],
      "NotDepositOwner()": [
        {
          "details": "Reverts when caller is not the owner of a deposit NFT."
        }
      ],
      "NotInterestClaimant()": [
        {
          "details": "Reverts when a caller is not the stored deferred-interest claimant."
        }
      ],
      "NotMatured()": [
        {
          "details": "Reverts when a deposit has not reached maturity."
        }
      ],
      "OwnableInvalidOwner(address)": [
        {
          "details": "The owner is not a valid owner account. (eg. `address(0)`)"
        }
      ],
      "OwnableUnauthorizedAccount(address)": [
        {
          "details": "The caller account is not authorized to perform an operation."
        }
      ],
      "PlanAlreadyDisabled()": [
        {
          "details": "Reverts when disabling an already disabled plan."
        }
      ],
      "PlanAlreadyEnabled()": [
        {
          "details": "Reverts when enabling an already enabled plan."
        }
      ],
      "PlanNotEnabled()": [
        {
          "details": "Reverts when an operation requires an enabled plan."
        }
      ],
      "PlanNotFound()": [
        {
          "details": "Reverts when a plan id does not exist."
        }
      ],
      "SafeERC20FailedOperation(address)": [
        {
          "details": "An operation with an ERC-20 token failed."
        }
      ],
      "UnauthorizedTransfer()": [
        {
          "details": "Reverts when a deposit NFT transfer is not initiated by the authorized marketplace."
        }
      ]
    },
    "events": {
      "Approval(address,address,uint256)": {
        "details": "Emitted when `owner` enables `approved` to manage the `tokenId` token."
      },
      "ApprovalForAll(address,address,bool)": {
        "details": "Emitted when `owner` enables or disables (`approved`) `operator` to manage all of its assets."
      },
      "DepositMarketplaceUpdated(address,address)": {
        "params": {
          "newMarketplace": "New marketplace address.",
          "oldMarketplace": "Previous marketplace address."
        }
      },
      "DepositOpened(uint256,address,uint256,uint256,uint64,uint64,uint16,uint16)": {
        "params": {
          "account": "User that opened and received the deposit NFT.",
          "aprBpsAtOpen": "APR snapshot taken when the deposit opened.",
          "depositId": "ERC721 token id representing the deposit position.",
          "maturityAt": "Timestamp when the deposit reaches maturity.",
          "penaltyBpsAtOpen": "Early withdrawal penalty snapshot taken when the deposit opened.",
          "planId": "Saving plan selected by the user.",
          "principal": "Principal amount transferred into SavingCore.",
          "startAt": "Timestamp when the deposit starts."
        }
      },
      "InterestClaimed(uint256,address,uint256)": {
        "params": {
          "amount": "Interest amount paid from VaultManager.",
          "claimant": "Account that received the interest.",
          "depositId": "Closed deposit id whose deferred interest was claimed."
        }
      },
      "InterestDeferred(uint256,address,uint256)": {
        "params": {
          "amount": "Interest amount recorded for later payment.",
          "claimant": "Account allowed to claim the deferred interest.",
          "depositId": "Closed deposit id with deferred interest."
        }
      },
      "MetadataImageURIUpdated(string,string)": {
        "params": {
          "newImageURI": "New image URI.",
          "oldImageURI": "Previous image URI."
        }
      },
      "Paused(address)": {
        "details": "Emitted when the pause is triggered by `account`."
      },
      "PlanCreated(uint256,uint64,uint16,uint256,uint256,uint16,bool)": {
        "params": {
          "aprBps": "Annual percentage rate in basis points.",
          "earlyWithdrawPenaltyBps": "Early withdrawal penalty in basis points.",
          "enabled": "Whether the plan starts enabled.",
          "maxDeposit": "Maximum principal amount accepted for this plan.",
          "minDeposit": "Minimum principal amount accepted for this plan.",
          "planId": "Newly assigned plan id.",
          "tenorDays": "Lock duration in days."
        }
      },
      "PlanUpdated(uint256,uint16,bool)": {
        "params": {
          "aprBps": "Current APR in basis points after the update.",
          "enabled": "Current enabled state after the update.",
          "planId": "Updated plan id."
        }
      },
      "Renewed(uint256,uint256,address,uint256,uint256,uint256,uint256,uint64,uint64,bool)": {
        "params": {
          "account": "Owner receiving the renewed deposit NFT.",
          "interest": "Interest compounded into the new deposit.",
          "isAuto": "Whether renewal was triggered by the permissionless auto-renew path.",
          "maturityAt": "Timestamp when the renewed deposit reaches maturity.",
          "newDepositId": "Newly minted deposit NFT id.",
          "newPlanId": "Plan id used for the new deposit.",
          "newPrincipal": "New principal amount after compounding.",
          "oldDepositId": "Previous deposit NFT id that remains as historical proof.",
          "oldPrincipal": "Previous deposit principal before compounding.",
          "startAt": "Timestamp when the renewed deposit starts."
        }
      },
      "Transfer(address,address,uint256)": {
        "details": "Emitted when `tokenId` token is transferred from `from` to `to`."
      },
      "Unpaused(address)": {
        "details": "Emitted when the pause is lifted by `account`."
      },
      "Withdrawn(uint256,address,uint256,uint256,uint256,bool)": {
        "params": {
          "account": "User that closed the deposit.",
          "depositId": "ERC721 token id of the withdrawn deposit position.",
          "interest": "Interest amount paid from VaultManager, if any.",
          "isEarly": "Whether the withdrawal happened before maturity.",
          "penalty": "Early withdrawal penalty amount, if any.",
          "principal": "Original principal amount closed."
        }
      }
    },
    "kind": "dev",
    "methods": {
      "approve(address,uint256)": {
        "details": "Gives permission to `to` to transfer `tokenId` token to another account. The approval is cleared when the token is transferred. Only a single account can be approved at a time, so approving the zero address clears previous approvals. Requirements: - The caller must own the token or be an approved operator. - `tokenId` must exist. Emits an {Approval} event."
      },
      "autoRenewDeposit(uint256)": {
        "details": "The renewed deposit preserves the original plan id, tenor, APR snapshot, and penalty snapshot.",
        "params": {
          "depositId": "ERC721 token id representing the matured deposit position."
        }
      },
      "balanceOf(address)": {
        "details": "Returns the number of tokens in ``owner``'s account."
      },
      "claimInterest(uint256)": {
        "params": {
          "depositId": "Closed deposit id with recorded unpaid interest."
        }
      },
      "createPlan(uint64,uint16,uint256,uint256,uint16,bool)": {
        "params": {
          "aprBps": "Annual percentage rate in basis points.",
          "earlyWithdrawPenaltyBps": "Early withdrawal penalty in basis points.",
          "enabled": "Whether the plan should accept deposits once deposit logic is added.",
          "maxDeposit": "Maximum principal amount accepted for this plan.",
          "minDeposit": "Minimum principal amount accepted for this plan.",
          "tenorDays": "Lock duration in days."
        },
        "returns": {
          "planId": "Newly assigned plan id."
        }
      },
      "disablePlan(uint256)": {
        "params": {
          "planId": "Saving plan id to disable."
        }
      },
      "earlyWithdraw(uint256)": {
        "details": "No interest is paid for early withdrawals. The closed deposit NFT is burned.",
        "params": {
          "depositId": "ERC721 token id representing the deposit position."
        }
      },
      "enablePlan(uint256)": {
        "params": {
          "planId": "Saving plan id to enable."
        }
      },
      "getApproved(uint256)": {
        "details": "Returns the account approved for `tokenId` token. Requirements: - `tokenId` must exist."
      },
      "isApprovedForAll(address,address)": {
        "details": "Returns if the `operator` is allowed to manage all of the assets of `owner`. See {setApprovalForAll}"
      },
      "name()": {
        "details": "Returns the token collection name."
      },
      "openDeposit(uint256,uint256)": {
        "details": "The selected plan APR and penalty are snapshotted so later admin updates do not affect this deposit.",
        "params": {
          "amount": "Principal amount to lock in this contract.",
          "planId": "Saving plan id selected by the depositor."
        }
      },
      "owner()": {
        "details": "Returns the address of the current owner."
      },
      "ownerOf(uint256)": {
        "details": "Returns the owner of the `tokenId` token. Requirements: - `tokenId` must exist."
      },
      "pause()": {
        "details": "Plan administration remains available while paused."
      },
      "paused()": {
        "details": "Returns true if the contract is paused, and false otherwise."
      },
      "previewMaturitySettlement(uint256)": {
        "params": {
          "depositId": "Deposit NFT id to preview."
        },
        "returns": {
          "canPayInterest": "Whether the vault can currently pay the full interest amount.",
          "interest": "Interest owed for the term.",
          "principal": "Principal that will be returned at maturity."
        }
      },
      "renewDeposit(uint256,uint256)": {
        "details": "The old NFT is kept and marked `ManualRenewed`; a new active NFT is minted to the owner.",
        "params": {
          "depositId": "ERC721 token id representing the matured deposit position.",
          "newPlanId": "Enabled saving plan id for the renewed deposit."
        }
      },
      "renounceOwnership()": {
        "details": "Leaves the contract without owner. It will not be possible to call `onlyOwner` functions. Can only be called by the current owner. NOTE: Renouncing ownership will leave the contract without an owner, thereby disabling any functionality that is only available to the owner."
      },
      "safeTransferFrom(address,address,uint256)": {
        "details": "Safely transfers `tokenId` token from `from` to `to`, checking first that contract recipients are aware of the ERC-721 protocol to prevent tokens from being forever locked. Requirements: - `from` cannot be the zero address. - `to` cannot be the zero address. - `tokenId` token must exist and be owned by `from`. - If the caller is not `from`, it must have been allowed to move this token by either {approve} or   {setApprovalForAll}. - If `to` refers to a smart contract, it must implement {IERC721Receiver-onERC721Received}, which is called upon   a safe transfer. Emits a {Transfer} event."
      },
      "safeTransferFrom(address,address,uint256,bytes)": {
        "details": "Safely transfers `tokenId` token from `from` to `to`. Requirements: - `from` cannot be the zero address. - `to` cannot be the zero address. - `tokenId` token must exist and be owned by `from`. - If the caller is not `from`, it must be approved to move this token by either {approve} or {setApprovalForAll}. - If `to` refers to a smart contract, it must implement {IERC721Receiver-onERC721Received}, which is called upon   a safe transfer. Emits a {Transfer} event."
      },
      "setApprovalForAll(address,bool)": {
        "details": "Approve or remove `operator` as an operator for the caller. Operators can call {transferFrom} or {safeTransferFrom} for any token owned by the caller. Requirements: - The `operator` cannot be the address zero. Emits an {ApprovalForAll} event."
      },
      "setDepositMarketplace(address)": {
        "params": {
          "newMarketplace": "Marketplace address authorized to execute deposit NFT transfers."
        }
      },
      "setMetadataImageURI(string)": {
        "params": {
          "newImageURI": "Image URI such as `ipfs://CID/deposit-certificate.png`."
        }
      },
      "supportsInterface(bytes4)": {
        "details": "Returns true if this contract implements the interface defined by `interfaceId`. See the corresponding https://eips.ethereum.org/EIPS/eip-165#how-interfaces-are-identified[ERC section] to learn more about how these ids are created. This function call must use less than 30 000 gas."
      },
      "symbol()": {
        "details": "Returns the token collection symbol."
      },
      "tokenURI(uint256)": {
        "params": {
          "tokenId": "Deposit NFT id."
        }
      },
      "transferFrom(address,address,uint256)": {
        "details": "Transfers `tokenId` token from `from` to `to`. WARNING: Note that the caller is responsible to confirm that the recipient is capable of receiving ERC-721 or else they may be permanently lost. Usage of {safeTransferFrom} prevents loss, though the caller must understand this adds an external call which potentially creates a reentrancy vulnerability. Requirements: - `from` cannot be the zero address. - `to` cannot be the zero address. - `tokenId` token must be owned by `from`. - If the caller is not `from`, it must be approved to move this token by either {approve} or {setApprovalForAll}. Emits a {Transfer} event."
      },
      "transferOwnership(address)": {
        "details": "Transfers ownership of the contract to a new account (`newOwner`). Can only be called by the current owner."
      },
      "updatePlan(uint256,uint16)": {
        "params": {
          "newAprBps": "New annual percentage rate in basis points.",
          "planId": "Saving plan id to update."
        }
      },
      "withdrawAtMaturity(uint256)": {
        "details": "If VaultManager cannot pay the full interest, the unpaid interest is recorded as a later claim.",
        "params": {
          "depositId": "ERC721 token id representing the deposit position."
        }
      }
    },
    "title": "SavingCore",
    "version": 1
  },
  "userdoc": {
    "events": {
      "DepositMarketplaceUpdated(address,address)": {
        "notice": "Emitted when the authorized deposit marketplace is updated."
      },
      "DepositOpened(uint256,address,uint256,uint256,uint64,uint64,uint16,uint16)": {
        "notice": "Emitted when a user opens a term deposit."
      },
      "InterestClaimed(uint256,address,uint256)": {
        "notice": "Emitted when deferred maturity interest is claimed from the vault."
      },
      "InterestDeferred(uint256,address,uint256)": {
        "notice": "Emitted when maturity interest could not be paid and was recorded as a later claim."
      },
      "MetadataImageURIUpdated(string,string)": {
        "notice": "Emitted when the metadata image URI is updated."
      },
      "MetadataPermanentlyLocked()": {
        "notice": "Emitted when token metadata URI updates are permanently disabled."
      },
      "PlanCreated(uint256,uint64,uint16,uint256,uint256,uint16,bool)": {
        "notice": "Emitted when a saving plan is created."
      },
      "PlanUpdated(uint256,uint16,bool)": {
        "notice": "Emitted when mutable saving plan fields are updated."
      },
      "Renewed(uint256,uint256,address,uint256,uint256,uint256,uint256,uint64,uint64,bool)": {
        "notice": "Emitted when an active matured deposit is renewed into a new deposit NFT."
      },
      "Withdrawn(uint256,address,uint256,uint256,uint256,bool)": {
        "notice": "Emitted when a deposit is withdrawn."
      }
    },
    "kind": "user",
    "methods": {
      "AUTO_RENEW_GRACE_PERIOD()": {
        "notice": "Delay after maturity before any caller can trigger auto-renewal."
      },
      "BPS_DENOMINATOR()": {
        "notice": "Basis-points denominator used for APR and penalty values."
      },
      "YEAR_SECONDS()": {
        "notice": "Number of seconds used for simple-interest APR calculations."
      },
      "autoRenewDeposit(uint256)": {
        "notice": "Permissionlessly auto-renews a matured deposit after the grace period and compounds earned interest."
      },
      "claimInterest(uint256)": {
        "notice": "Claims deferred maturity interest after the vault has enough liquidity."
      },
      "constructor": {
        "notice": "Initializes the deposit-position NFT metadata and owner."
      },
      "createPlan(uint64,uint16,uint256,uint256,uint16,bool)": {
        "notice": "Creates a new term-deposit plan."
      },
      "depositMarketplace()": {
        "notice": "Marketplace contract authorized to transfer active deposit NFTs between accounts."
      },
      "deposits(uint256)": {
        "notice": "Deposit position metadata by future ERC721 token id."
      },
      "disablePlan(uint256)": {
        "notice": "Disables an existing saving plan so future deposits cannot use it."
      },
      "earlyWithdraw(uint256)": {
        "notice": "Withdraws an active deposit before maturity and routes the penalty to the vault fee receiver."
      },
      "enablePlan(uint256)": {
        "notice": "Enables an existing saving plan for future deposits."
      },
      "interestClaimant(uint256)": {
        "notice": "Account allowed to claim deferred interest after the deposit NFT is burned."
      },
      "lockMetadata()": {
        "notice": "Permanently prevents future metadata image URI updates."
      },
      "metadataImageURI()": {
        "notice": "IPFS image URI used in dynamically generated deposit NFT metadata."
      },
      "metadataLocked()": {
        "notice": "Whether token metadata URI updates have been permanently disabled."
      },
      "nextDepositId()": {
        "notice": "Next deposit NFT id to assign when deposit logic is added."
      },
      "nextPlanId()": {
        "notice": "Next saving plan id to assign."
      },
      "openDeposit(uint256,uint256)": {
        "notice": "Opens a new term deposit and mints an ERC721 position NFT to the caller."
      },
      "pause()": {
        "notice": "Pauses deposits, withdrawals, and renewal operations during an emergency."
      },
      "previewMaturitySettlement(uint256)": {
        "notice": "Previews the principal, interest, and current vault funding status for an active deposit."
      },
      "renewDeposit(uint256,uint256)": {
        "notice": "Manually renews a matured deposit into a new enabled plan and compounds earned interest."
      },
      "savingPlans(uint256)": {
        "notice": "Saving plan configuration by plan id."
      },
      "setDepositMarketplace(address)": {
        "notice": "Sets the only marketplace contract allowed to transfer deposit NFTs between accounts."
      },
      "setMetadataImageURI(string)": {
        "notice": "Sets the IPFS image URI used in dynamically generated NFT metadata."
      },
      "token()": {
        "notice": "ERC20 token accepted for term deposits, expected to be USDC or MockUSDC."
      },
      "tokenURI(uint256)": {
        "notice": "Returns Base64-encoded JSON metadata generated from current deposit state."
      },
      "unpaidInterest(uint256)": {
        "notice": "Unpaid maturity interest by closed deposit id when the vault could not pay immediately."
      },
      "unpause()": {
        "notice": "Unpauses deposits, withdrawals, and renewal operations after an emergency is resolved."
      },
      "updatePlan(uint256,uint16)": {
        "notice": "Updates only the APR of an existing saving plan."
      },
      "vaultManager()": {
        "notice": "Vault contract that holds and pays interest liquidity."
      },
      "withdrawAtMaturity(uint256)": {
        "notice": "Withdraws a matured deposit, always returning principal and paying interest when vault liquidity allows."
      }
    },
    "notice": "Base contract for term-deposit plans represented by future ERC721 deposit position NFTs.",
    "version": 1
  },
  "storageLayout": {
    "storage": [
      {
        "astId": 1481,
        "contract": "contracts/SavingCore.sol:SavingCore",
        "label": "_name",
        "offset": 0,
        "slot": "0",
        "type": "t_string_storage"
      },
      {
        "astId": 1483,
        "contract": "contracts/SavingCore.sol:SavingCore",
        "label": "_symbol",
        "offset": 0,
        "slot": "1",
        "type": "t_string_storage"
      },
      {
        "astId": 1487,
        "contract": "contracts/SavingCore.sol:SavingCore",
        "label": "_owners",
        "offset": 0,
        "slot": "2",
        "type": "t_mapping(t_uint256,t_address)"
      },
      {
        "astId": 1491,
        "contract": "contracts/SavingCore.sol:SavingCore",
        "label": "_balances",
        "offset": 0,
        "slot": "3",
        "type": "t_mapping(t_address,t_uint256)"
      },
      {
        "astId": 1495,
        "contract": "contracts/SavingCore.sol:SavingCore",
        "label": "_tokenApprovals",
        "offset": 0,
        "slot": "4",
        "type": "t_mapping(t_uint256,t_address)"
      },
      {
        "astId": 1501,
        "contract": "contracts/SavingCore.sol:SavingCore",
        "label": "_operatorApprovals",
        "offset": 0,
        "slot": "5",
        "type": "t_mapping(t_address,t_mapping(t_address,t_bool))"
      },
      {
        "astId": 8,
        "contract": "contracts/SavingCore.sol:SavingCore",
        "label": "_owner",
        "offset": 0,
        "slot": "6",
        "type": "t_address"
      },
      {
        "astId": 3734,
        "contract": "contracts/SavingCore.sol:SavingCore",
        "label": "_paused",
        "offset": 20,
        "slot": "6",
        "type": "t_bool"
      },
      {
        "astId": 10342,
        "contract": "contracts/SavingCore.sol:SavingCore",
        "label": "depositMarketplace",
        "offset": 0,
        "slot": "7",
        "type": "t_address"
      },
      {
        "astId": 10345,
        "contract": "contracts/SavingCore.sol:SavingCore",
        "label": "metadataLocked",
        "offset": 20,
        "slot": "7",
        "type": "t_bool"
      },
      {
        "astId": 10348,
        "contract": "contracts/SavingCore.sol:SavingCore",
        "label": "metadataImageURI",
        "offset": 0,
        "slot": "8",
        "type": "t_string_storage"
      },
      {
        "astId": 10390,
        "contract": "contracts/SavingCore.sol:SavingCore",
        "label": "nextPlanId",
        "offset": 0,
        "slot": "9",
        "type": "t_uint256"
      },
      {
        "astId": 10393,
        "contract": "contracts/SavingCore.sol:SavingCore",
        "label": "nextDepositId",
        "offset": 0,
        "slot": "10",
        "type": "t_uint256"
      },
      {
        "astId": 10399,
        "contract": "contracts/SavingCore.sol:SavingCore",
        "label": "savingPlans",
        "offset": 0,
        "slot": "11",
        "type": "t_mapping(t_uint256,t_struct(SavingPlan)10370_storage)"
      },
      {
        "astId": 10405,
        "contract": "contracts/SavingCore.sol:SavingCore",
        "label": "deposits",
        "offset": 0,
        "slot": "12",
        "type": "t_mapping(t_uint256,t_struct(DepositInfo)10387_storage)"
      },
      {
        "astId": 10410,
        "contract": "contracts/SavingCore.sol:SavingCore",
        "label": "unpaidInterest",
        "offset": 0,
        "slot": "13",
        "type": "t_mapping(t_uint256,t_uint256)"
      },
      {
        "astId": 10415,
        "contract": "contracts/SavingCore.sol:SavingCore",
        "label": "interestClaimant",
        "offset": 0,
        "slot": "14",
        "type": "t_mapping(t_uint256,t_address)"
      }
    ],
    "types": {
      "t_address": {
        "encoding": "inplace",
        "label": "address",
        "numberOfBytes": "20"
      },
      "t_bool": {
        "encoding": "inplace",
        "label": "bool",
        "numberOfBytes": "1"
      },
      "t_enum(DepositStatus)10356": {
        "encoding": "inplace",
        "label": "enum SavingCore.DepositStatus",
        "numberOfBytes": "1"
      },
      "t_mapping(t_address,t_bool)": {
        "encoding": "mapping",
        "key": "t_address",
        "label": "mapping(address => bool)",
        "numberOfBytes": "32",
        "value": "t_bool"
      },
      "t_mapping(t_address,t_mapping(t_address,t_bool))": {
        "encoding": "mapping",
        "key": "t_address",
        "label": "mapping(address => mapping(address => bool))",
        "numberOfBytes": "32",
        "value": "t_mapping(t_address,t_bool)"
      },
      "t_mapping(t_address,t_uint256)": {
        "encoding": "mapping",
        "key": "t_address",
        "label": "mapping(address => uint256)",
        "numberOfBytes": "32",
        "value": "t_uint256"
      },
      "t_mapping(t_uint256,t_address)": {
        "encoding": "mapping",
        "key": "t_uint256",
        "label": "mapping(uint256 => address)",
        "numberOfBytes": "32",
        "value": "t_address"
      },
      "t_mapping(t_uint256,t_struct(DepositInfo)10387_storage)": {
        "encoding": "mapping",
        "key": "t_uint256",
        "label": "mapping(uint256 => struct SavingCore.DepositInfo)",
        "numberOfBytes": "32",
        "value": "t_struct(DepositInfo)10387_storage"
      },
      "t_mapping(t_uint256,t_struct(SavingPlan)10370_storage)": {
        "encoding": "mapping",
        "key": "t_uint256",
        "label": "mapping(uint256 => struct SavingCore.SavingPlan)",
        "numberOfBytes": "32",
        "value": "t_struct(SavingPlan)10370_storage"
      },
      "t_mapping(t_uint256,t_uint256)": {
        "encoding": "mapping",
        "key": "t_uint256",
        "label": "mapping(uint256 => uint256)",
        "numberOfBytes": "32",
        "value": "t_uint256"
      },
      "t_string_storage": {
        "encoding": "bytes",
        "label": "string",
        "numberOfBytes": "32"
      },
      "t_struct(DepositInfo)10387_storage": {
        "encoding": "inplace",
        "label": "struct SavingCore.DepositInfo",
        "members": [
          {
            "astId": 10373,
            "contract": "contracts/SavingCore.sol:SavingCore",
            "label": "planId",
            "offset": 0,
            "slot": "0",
            "type": "t_uint256"
          },
          {
            "astId": 10375,
            "contract": "contracts/SavingCore.sol:SavingCore",
            "label": "principal",
            "offset": 0,
            "slot": "1",
            "type": "t_uint256"
          },
          {
            "astId": 10377,
            "contract": "contracts/SavingCore.sol:SavingCore",
            "label": "startAt",
            "offset": 0,
            "slot": "2",
            "type": "t_uint64"
          },
          {
            "astId": 10379,
            "contract": "contracts/SavingCore.sol:SavingCore",
            "label": "maturityAt",
            "offset": 8,
            "slot": "2",
            "type": "t_uint64"
          },
          {
            "astId": 10381,
            "contract": "contracts/SavingCore.sol:SavingCore",
            "label": "aprBpsAtOpen",
            "offset": 16,
            "slot": "2",
            "type": "t_uint16"
          },
          {
            "astId": 10383,
            "contract": "contracts/SavingCore.sol:SavingCore",
            "label": "penaltyBpsAtOpen",
            "offset": 18,
            "slot": "2",
            "type": "t_uint16"
          },
          {
            "astId": 10386,
            "contract": "contracts/SavingCore.sol:SavingCore",
            "label": "status",
            "offset": 20,
            "slot": "2",
            "type": "t_enum(DepositStatus)10356"
          }
        ],
        "numberOfBytes": "96"
      },
      "t_struct(SavingPlan)10370_storage": {
        "encoding": "inplace",
        "label": "struct SavingCore.SavingPlan",
        "members": [
          {
            "astId": 10359,
            "contract": "contracts/SavingCore.sol:SavingCore",
            "label": "minDeposit",
            "offset": 0,
            "slot": "0",
            "type": "t_uint256"
          },
          {
            "astId": 10361,
            "contract": "contracts/SavingCore.sol:SavingCore",
            "label": "maxDeposit",
            "offset": 0,
            "slot": "1",
            "type": "t_uint256"
          },
          {
            "astId": 10363,
            "contract": "contracts/SavingCore.sol:SavingCore",
            "label": "tenorDays",
            "offset": 0,
            "slot": "2",
            "type": "t_uint64"
          },
          {
            "astId": 10365,
            "contract": "contracts/SavingCore.sol:SavingCore",
            "label": "aprBps",
            "offset": 8,
            "slot": "2",
            "type": "t_uint16"
          },
          {
            "astId": 10367,
            "contract": "contracts/SavingCore.sol:SavingCore",
            "label": "earlyWithdrawPenaltyBps",
            "offset": 10,
            "slot": "2",
            "type": "t_uint16"
          },
          {
            "astId": 10369,
            "contract": "contracts/SavingCore.sol:SavingCore",
            "label": "enabled",
            "offset": 12,
            "slot": "2",
            "type": "t_bool"
          }
        ],
        "numberOfBytes": "96"
      },
      "t_uint16": {
        "encoding": "inplace",
        "label": "uint16",
        "numberOfBytes": "2"
      },
      "t_uint256": {
        "encoding": "inplace",
        "label": "uint256",
        "numberOfBytes": "32"
      },
      "t_uint64": {
        "encoding": "inplace",
        "label": "uint64",
        "numberOfBytes": "8"
      }
    }
  }
}