{
  "address": "0x8b7FbAca6606610BD953EE65e77911d69573BC81",
  "abi": [
    {
      "inputs": [
        {
          "internalType": "address",
          "name": "_token",
          "type": "address"
        },
        {
          "internalType": "address",
          "name": "_initialFeeReceiver",
          "type": "address"
        }
      ],
      "stateMutability": "nonpayable",
      "type": "constructor"
    },
    {
      "inputs": [],
      "name": "EnforcedPause",
      "type": "error"
    },
    {
      "inputs": [],
      "name": "ExpectedPause",
      "type": "error"
    },
    {
      "inputs": [],
      "name": "InsufficientVaultBalance",
      "type": "error"
    },
    {
      "inputs": [],
      "name": "InvalidAddress",
      "type": "error"
    },
    {
      "inputs": [],
      "name": "NotSavingCore",
      "type": "error"
    },
    {
      "inputs": [
        {
          "internalType": "address",
          "name": "owner",
          "type": "address"
        }
      ],
      "name": "OwnableInvalidOwner",
      "type": "error"
    },
    {
      "inputs": [
        {
          "internalType": "address",
          "name": "account",
          "type": "address"
        }
      ],
      "name": "OwnableUnauthorizedAccount",
      "type": "error"
    },
    {
      "inputs": [
        {
          "internalType": "address",
          "name": "token",
          "type": "address"
        }
      ],
      "name": "SafeERC20FailedOperation",
      "type": "error"
    },
    {
      "inputs": [],
      "name": "ZeroAmount",
      "type": "error"
    },
    {
      "anonymous": false,
      "inputs": [
        {
          "indexed": true,
          "internalType": "address",
          "name": "oldReceiver",
          "type": "address"
        },
        {
          "indexed": true,
          "internalType": "address",
          "name": "newReceiver",
          "type": "address"
        }
      ],
      "name": "FeeReceiverUpdated",
      "type": "event"
    },
    {
      "anonymous": false,
      "inputs": [
        {
          "indexed": true,
          "internalType": "address",
          "name": "recipient",
          "type": "address"
        },
        {
          "indexed": false,
          "internalType": "uint256",
          "name": "amount",
          "type": "uint256"
        }
      ],
      "name": "InterestPaid",
      "type": "event"
    },
    {
      "anonymous": false,
      "inputs": [
        {
          "indexed": true,
          "internalType": "address",
          "name": "previousOwner",
          "type": "address"
        },
        {
          "indexed": true,
          "internalType": "address",
          "name": "newOwner",
          "type": "address"
        }
      ],
      "name": "OwnershipTransferred",
      "type": "event"
    },
    {
      "anonymous": false,
      "inputs": [
        {
          "indexed": false,
          "internalType": "address",
          "name": "account",
          "type": "address"
        }
      ],
      "name": "Paused",
      "type": "event"
    },
    {
      "anonymous": false,
      "inputs": [
        {
          "indexed": true,
          "internalType": "address",
          "name": "oldSavingCore",
          "type": "address"
        },
        {
          "indexed": true,
          "internalType": "address",
          "name": "newSavingCore",
          "type": "address"
        }
      ],
      "name": "SavingCoreUpdated",
      "type": "event"
    },
    {
      "anonymous": false,
      "inputs": [
        {
          "indexed": false,
          "internalType": "address",
          "name": "account",
          "type": "address"
        }
      ],
      "name": "Unpaused",
      "type": "event"
    },
    {
      "anonymous": false,
      "inputs": [
        {
          "indexed": true,
          "internalType": "address",
          "name": "funder",
          "type": "address"
        },
        {
          "indexed": false,
          "internalType": "uint256",
          "name": "amount",
          "type": "uint256"
        }
      ],
      "name": "VaultFunded",
      "type": "event"
    },
    {
      "anonymous": false,
      "inputs": [
        {
          "indexed": true,
          "internalType": "address",
          "name": "recipient",
          "type": "address"
        },
        {
          "indexed": false,
          "internalType": "uint256",
          "name": "amount",
          "type": "uint256"
        }
      ],
      "name": "VaultWithdrawn",
      "type": "event"
    },
    {
      "inputs": [],
      "name": "feeReceiver",
      "outputs": [
        {
          "internalType": "address",
          "name": "",
          "type": "address"
        }
      ],
      "stateMutability": "view",
      "type": "function"
    },
    {
      "inputs": [
        {
          "internalType": "uint256",
          "name": "amount",
          "type": "uint256"
        }
      ],
      "name": "fundVault",
      "outputs": [],
      "stateMutability": "nonpayable",
      "type": "function"
    },
    {
      "inputs": [],
      "name": "owner",
      "outputs": [
        {
          "internalType": "address",
          "name": "",
          "type": "address"
        }
      ],
      "stateMutability": "view",
      "type": "function"
    },
    {
      "inputs": [],
      "name": "pause",
      "outputs": [],
      "stateMutability": "nonpayable",
      "type": "function"
    },
    {
      "inputs": [],
      "name": "paused",
      "outputs": [
        {
          "internalType": "bool",
          "name": "",
          "type": "bool"
        }
      ],
      "stateMutability": "view",
      "type": "function"
    },
    {
      "inputs": [
        {
          "internalType": "address",
          "name": "to",
          "type": "address"
        },
        {
          "internalType": "uint256",
          "name": "amount",
          "type": "uint256"
        }
      ],
      "name": "payInterest",
      "outputs": [],
      "stateMutability": "nonpayable",
      "type": "function"
    },
    {
      "inputs": [],
      "name": "renounceOwnership",
      "outputs": [],
      "stateMutability": "nonpayable",
      "type": "function"
    },
    {
      "inputs": [],
      "name": "savingCore",
      "outputs": [
        {
          "internalType": "address",
          "name": "",
          "type": "address"
        }
      ],
      "stateMutability": "view",
      "type": "function"
    },
    {
      "inputs": [
        {
          "internalType": "address",
          "name": "newReceiver",
          "type": "address"
        }
      ],
      "name": "setFeeReceiver",
      "outputs": [],
      "stateMutability": "nonpayable",
      "type": "function"
    },
    {
      "inputs": [
        {
          "internalType": "address",
          "name": "newSavingCore",
          "type": "address"
        }
      ],
      "name": "setSavingCore",
      "outputs": [],
      "stateMutability": "nonpayable",
      "type": "function"
    },
    {
      "inputs": [],
      "name": "token",
      "outputs": [
        {
          "internalType": "contract IERC20",
          "name": "",
          "type": "address"
        }
      ],
      "stateMutability": "view",
      "type": "function"
    },
    {
      "inputs": [
        {
          "internalType": "address",
          "name": "newOwner",
          "type": "address"
        }
      ],
      "name": "transferOwnership",
      "outputs": [],
      "stateMutability": "nonpayable",
      "type": "function"
    },
    {
      "inputs": [],
      "name": "unpause",
      "outputs": [],
      "stateMutability": "nonpayable",
      "type": "function"
    },
    {
      "inputs": [
        {
          "internalType": "uint256",
          "name": "amount",
          "type": "uint256"
        }
      ],
      "name": "withdrawVault",
      "outputs": [],
      "stateMutability": "nonpayable",
      "type": "function"
    }
  ],
  "transactionHash": "0xbc6816191ca3eb1b1c7d6bd741b7513486d9a424f60d3f89e06af9b8f2100354",
  "args": [
    "0x3Cb2AE0859d0B2aFe20d5f16Bf9e2E35A1cb2Cb8",
    "0x546E9b7F0C604C266585955128e65766c6514809"
  ],
  "numDeployments": 2,
  "solcInputHash": "7c325feae9b5c40f2f1c2a7c62ffdd2f",
  "bytecode": "0x60a03461013557601f610b4f38819003918201601f19168301916001600160401b0383118484101761013957808492604094855283398101031261013557610052602061004b8361014d565b920161014d565b3315610122575f8054336001600160a01b0319821681178355604051949290916001600160a01b0316907f8be0079c531659141344cd1fd0a4f28419497f9722a3daafe3b4186f6b6457e09080a36001600160a01b031680158015610111575b61010257608052600180546001600160a01b0319166001600160a01b03929092169190911790556109ed9081610162823960805181818160d2015281816102760152818161042001526107790152f35b63e6c4247b60e01b5f5260045ffd5b506001600160a01b038216156100b2565b631e4fbdf760e01b5f525f60045260245ffd5b5f80fd5b634e487b7160e01b5f52604160045260245ffd5b51906001600160a01b03821682036101355756fe60806040526004361015610011575f80fd5b5f3560e01c80631b7623be1461072a5780633f4ba83a146106a75780635c975abb146106835780636cf0702814610604578063715018a6146105a05780638456cb59146105325780638da5cb5b1461050d5780638f18c887146104e7578063abe73ef5146103c8578063b3f00674146103a2578063b40afc1c1461024a578063efdcd974146101a3578063f2fde38b146100fa5763fc0c546a146100b3575f80fd5b346100f6575f3660031901126100f65760206040516001600160a01b037f0000000000000000000000000000000000000000000000000000000000000000168152f35b5f80fd5b346100f65760203660031901126100f6576001600160a01b0361011b610862565b610123610978565b168015610177576001600160a01b035f548273ffffffffffffffffffffffffffffffffffffffff198216175f55167f8be0079c531659141344cd1fd0a4f28419497f9722a3daafe3b4186f6b6457e05f80a3005b7f1e4fbdf7000000000000000000000000000000000000000000000000000000005f525f60045260245ffd5b346100f65760203660031901126100f6576001600160a01b036101c4610862565b6101cc610978565b168015610222576001600160a01b036001548273ffffffffffffffffffffffffffffffffffffffff19821617600155167fa92ff4390fe6943f0b30e8fe715dde86f85ab79b2b2c640a10fc094cc4036cc85f80a3005b7fe6c4247b000000000000000000000000000000000000000000000000000000005f5260045ffd5b346100f65760203660031901126100f657600435610266610978565b61026e6108c7565b801561037a577f0000000000000000000000000000000000000000000000000000000000000000906040516370a0823160e01b81523060048201526020816024816001600160a01b0387165afa801561036f5782915f9161033a575b501061031257610310916001600160a01b035f541690817f1b5775af7e7537be20684ccf94b9c6f4b180dabad653f5b57a234a9c6a3db40b6020604051868152a26108fd565b005b7f14ecd6c7000000000000000000000000000000000000000000000000000000005f5260045ffd5b9150506020813d602011610367575b8161035660209383610878565b810103126100f657819051846102ca565b3d9150610349565b6040513d5f823e3d90fd5b7f1f2a2005000000000000000000000000000000000000000000000000000000005f5260045ffd5b346100f6575f3660031901126100f65760206001600160a01b0360015416604051908152f35b346100f65760203660031901126100f6576004356103e4610978565b6103ec6108c7565b801561037a576040518181527fba24bd9b798cca64d1031eda1ced9398802343e44e07779bb510d7a21ddddef160203392a27f000000000000000000000000000000000000000000000000000000000000000090604051907f23b872dd000000000000000000000000000000000000000000000000000000005f52336004523060245260445260205f60648180865af19060015f51148216156104c7575b501561049257005b6001600160a01b03907f5274afe7000000000000000000000000000000000000000000000000000000005f521660045260245ffd5b60018215166104df5750813b15153d1516168261048a565b3d5f823e3d90fd5b346100f6575f3660031901126100f65760206001600160a01b0360025416604051908152f35b346100f6575f3660031901126100f65760206001600160a01b035f5416604051908152f35b346100f6575f3660031901126100f65761054a610978565b6105526108c7565b7401000000000000000000000000000000000000000060ff60a01b195f5416175f557f62e78cea01bee320cd4e420270b5ea74000d11b0c9f74754ebdbfc544b05a2586020604051338152a1005b346100f6575f3660031901126100f6576105b8610978565b5f6001600160a01b03815473ffffffffffffffffffffffffffffffffffffffff1981168355167f8be0079c531659141344cd1fd0a4f28419497f9722a3daafe3b4186f6b6457e08280a3005b346100f65760203660031901126100f6576001600160a01b03610625610862565b61062d610978565b168015610222576001600160a01b036002548273ffffffffffffffffffffffffffffffffffffffff19821617600255167f794e037b171755a48ba0a0c0479366ddfa166115f60f976a299a762d668dbd1b5f80a3005b346100f6575f3660031901126100f657602060ff5f5460a01c166040519015158152f35b346100f6575f3660031901126100f6576106bf610978565b5f5460ff8160a01c16156107025760ff60a01b19165f557f5db9ee0a495bf2e6ff9c91a7834c1ba4fdd244a5e8aa4e537bd38aeae4b073aa6020604051338152a1005b7f8dfc202b000000000000000000000000000000000000000000000000000000005f5260045ffd5b346100f65760403660031901126100f657610743610862565b6024356001600160a01b0360025416330361083a576107606108c7565b6001600160a01b03821691821561022257811561037a577f00000000000000000000000000000000000000000000000000000000000000006040516370a0823160e01b81523060048201526020816024816001600160a01b0386165afa801561036f5784915f91610805575b501061031257610310937f16cbc685358ca7d4e6b273dcdf2cb5d18c80b950aa2319b519756cd016233a6c6020604051868152a26108fd565b9150506020813d602011610832575b8161082160209383610878565b810103126100f657839051866107cc565b3d9150610814565b7fcc38385f000000000000000000000000000000000000000000000000000000005f5260045ffd5b600435906001600160a01b03821682036100f657565b90601f8019910116810190811067ffffffffffffffff82111761089a57604052565b7f4e487b71000000000000000000000000000000000000000000000000000000005f52604160045260245ffd5b60ff5f5460a01c166108d557565b7fd93c0665000000000000000000000000000000000000000000000000000000005f5260045ffd5b916001600160a01b03604051927fa9059cbb000000000000000000000000000000000000000000000000000000005f521660045260245260205f60448180865af19060015f5114821615610957575b604052156104925750565b90600181151661096f57823b15153d1516169061094c565b503d5f823e3d90fd5b6001600160a01b035f5416330361098b57565b7f118cdaa7000000000000000000000000000000000000000000000000000000005f523360045260245ffdfea26469706673582212208a7f98b307b33a9cad20a4dec8c258d36e79e1b0bfd2c2cea714b8cfe8417b3b64736f6c634300081c0033",
  "devdoc": {
    "errors": {
      "EnforcedPause()": [
        {
          "details": "The operation failed because the contract is paused."
        }
      ],
      "ExpectedPause()": [
        {
          "details": "The operation failed because the contract is not paused."
        }
      ],
      "InsufficientVaultBalance()": [
        {
          "details": "Reverts when the vault does not have enough token liquidity."
        }
      ],
      "InvalidAddress()": [
        {
          "details": "Reverts when an address parameter is zero."
        }
      ],
      "NotSavingCore()": [
        {
          "details": "Reverts when a caller is not the configured SavingCore contract."
        }
      ],
      "OwnableInvalidOwner(address)": [
        {
          "details": "The owner is not a valid owner account. (eg. `address(0)`)"
        }
      ],
      "OwnableUnauthorizedAccount(address)": [
        {
          "details": "The caller account is not authorized to perform an operation."
        }
      ],
      "SafeERC20FailedOperation(address)": [
        {
          "details": "An operation with an ERC-20 token failed."
        }
      ],
      "ZeroAmount()": [
        {
          "details": "Reverts when an amount parameter is zero."
        }
      ]
    },
    "events": {
      "FeeReceiverUpdated(address,address)": {
        "params": {
          "newReceiver": "New fee receiver address.",
          "oldReceiver": "Previous fee receiver address."
        }
      },
      "InterestPaid(address,uint256)": {
        "params": {
          "amount": "Amount of interest paid.",
          "recipient": "Address that received the interest payment."
        }
      },
      "Paused(address)": {
        "details": "Emitted when the pause is triggered by `account`."
      },
      "SavingCoreUpdated(address,address)": {
        "params": {
          "newSavingCore": "New SavingCore address.",
          "oldSavingCore": "Previous SavingCore address."
        }
      },
      "Unpaused(address)": {
        "details": "Emitted when the pause is lifted by `account`."
      },
      "VaultFunded(address,uint256)": {
        "params": {
          "amount": "Amount of tokens transferred.",
          "funder": "Address that transferred tokens into the vault."
        }
      },
      "VaultWithdrawn(address,uint256)": {
        "params": {
          "amount": "Amount of tokens withdrawn.",
          "recipient": "Address that received the withdrawn tokens."
        }
      }
    },
    "kind": "dev",
    "methods": {
      "constructor": {
        "params": {
          "_initialFeeReceiver": "Initial address that receives penalty fees.",
          "_token": "ERC20 token address used by the vault."
        }
      },
      "fundVault(uint256)": {
        "details": "Caller must approve this contract before calling.",
        "params": {
          "amount": "Amount of tokens to transfer into the vault."
        }
      },
      "owner()": {
        "details": "Returns the address of the current owner."
      },
      "paused()": {
        "details": "Returns true if the contract is paused, and false otherwise."
      },
      "payInterest(address,uint256)": {
        "details": "Callable only by the configured SavingCore contract.",
        "params": {
          "amount": "Amount of interest to pay.",
          "to": "Recipient of the interest payment."
        }
      },
      "renounceOwnership()": {
        "details": "Leaves the contract without owner. It will not be possible to call `onlyOwner` functions. Can only be called by the current owner. NOTE: Renouncing ownership will leave the contract without an owner, thereby disabling any functionality that is only available to the owner."
      },
      "setFeeReceiver(address)": {
        "params": {
          "newReceiver": "New fee receiver address."
        }
      },
      "setSavingCore(address)": {
        "params": {
          "newSavingCore": "SavingCore contract address."
        }
      },
      "transferOwnership(address)": {
        "details": "Transfers ownership of the contract to a new account (`newOwner`). Can only be called by the current owner."
      },
      "withdrawVault(uint256)": {
        "params": {
          "amount": "Amount of tokens to withdraw."
        }
      }
    },
    "title": "VaultManager",
    "version": 1
  },
  "userdoc": {
    "events": {
      "FeeReceiverUpdated(address,address)": {
        "notice": "Emitted when the fee receiver is updated."
      },
      "InterestPaid(address,uint256)": {
        "notice": "Emitted when interest liquidity is paid to a depositor."
      },
      "SavingCoreUpdated(address,address)": {
        "notice": "Emitted when the authorized SavingCore contract is updated."
      },
      "VaultFunded(address,uint256)": {
        "notice": "Emitted when the vault receives funding."
      },
      "VaultWithdrawn(address,uint256)": {
        "notice": "Emitted when the owner withdraws vault liquidity."
      }
    },
    "kind": "user",
    "methods": {
      "constructor": {
        "notice": "Initializes the vault with its ERC20 token and initial penalty fee receiver."
      },
      "feeReceiver()": {
        "notice": "Address that receives early withdrawal penalty fees."
      },
      "fundVault(uint256)": {
        "notice": "Funds the vault with tokens from the owner."
      },
      "pause()": {
        "notice": "Pauses vault funding and withdrawals."
      },
      "payInterest(address,uint256)": {
        "notice": "Pays interest liquidity to a matured depositor."
      },
      "savingCore()": {
        "notice": "SavingCore contract allowed to pay interest from this vault."
      },
      "setFeeReceiver(address)": {
        "notice": "Updates the address that receives early withdrawal penalty fees."
      },
      "setSavingCore(address)": {
        "notice": "Updates the SavingCore contract authorized to pay interest from this vault."
      },
      "token()": {
        "notice": "ERC20 token held by the vault, expected to be USDC or MockUSDC."
      },
      "unpause()": {
        "notice": "Unpauses vault funding and withdrawals."
      },
      "withdrawVault(uint256)": {
        "notice": "Withdraws vault liquidity to the owner."
      }
    },
    "notice": "Holds protocol liquidity used for interest payouts and tracks the early-withdrawal fee receiver.",
    "version": 1
  },
  "storageLayout": {
    "storage": [
      {
        "astId": 8,
        "contract": "contracts/VaultManager.sol:VaultManager",
        "label": "_owner",
        "offset": 0,
        "slot": "0",
        "type": "t_address"
      },
      {
        "astId": 3552,
        "contract": "contracts/VaultManager.sol:VaultManager",
        "label": "_paused",
        "offset": 20,
        "slot": "0",
        "type": "t_bool"
      },
      {
        "astId": 10180,
        "contract": "contracts/VaultManager.sol:VaultManager",
        "label": "feeReceiver",
        "offset": 0,
        "slot": "1",
        "type": "t_address"
      },
      {
        "astId": 10183,
        "contract": "contracts/VaultManager.sol:VaultManager",
        "label": "savingCore",
        "offset": 0,
        "slot": "2",
        "type": "t_address"
      }
    ],
    "types": {
      "t_address": {
        "encoding": "inplace",
        "label": "address",
        "numberOfBytes": "20"
      },
      "t_bool": {
        "encoding": "inplace",
        "label": "bool",
        "numberOfBytes": "1"
      }
    }
  }
}